{
  "contractName": "SocialGameToken",
  "abi": [
    {
      "inputs": [],
      "stateMutability": "nonpayable",
      "type": "constructor"
    },
    {
      "anonymous": false,
      "inputs": [
        {
          "indexed": true,
          "internalType": "address",
          "name": "owner",
          "type": "address"
        },
        {
          "indexed": true,
          "internalType": "address",
          "name": "approved",
          "type": "address"
        },
        {
          "indexed": true,
          "internalType": "uint256",
          "name": "tokenId",
          "type": "uint256"
        }
      ],
      "name": "Approval",
      "type": "event"
    },
    {
      "anonymous": false,
      "inputs": [
        {
          "indexed": true,
          "internalType": "address",
          "name": "owner",
          "type": "address"
        },
        {
          "indexed": true,
          "internalType": "address",
          "name": "operator",
          "type": "address"
        },
        {
          "indexed": false,
          "internalType": "bool",
          "name": "approved",
          "type": "bool"
        }
      ],
      "name": "ApprovalForAll",
      "type": "event"
    },
    {
      "anonymous": false,
      "inputs": [
        {
          "indexed": false,
          "internalType": "address",
          "name": "SocialGame",
          "type": "address"
        },
        {
          "indexed": false,
          "internalType": "uint256",
          "name": "gameId",
          "type": "uint256"
        }
      ],
      "name": "GameCreated",
      "type": "event"
    },
    {
      "anonymous": false,
      "inputs": [
        {
          "indexed": true,
          "internalType": "address",
          "name": "previousOwner",
          "type": "address"
        },
        {
          "indexed": true,
          "internalType": "address",
          "name": "newOwner",
          "type": "address"
        }
      ],
      "name": "OwnershipTransferred",
      "type": "event"
    },
    {
      "anonymous": false,
      "inputs": [
        {
          "indexed": true,
          "internalType": "address",
          "name": "from",
          "type": "address"
        },
        {
          "indexed": true,
          "internalType": "address",
          "name": "to",
          "type": "address"
        },
        {
          "indexed": true,
          "internalType": "uint256",
          "name": "tokenId",
          "type": "uint256"
        }
      ],
      "name": "Transfer",
      "type": "event"
    },
    {
      "inputs": [],
      "name": "DEFAULT_ENTRY_COST",
      "outputs": [
        {
          "internalType": "uint256",
          "name": "",
          "type": "uint256"
        }
      ],
      "stateMutability": "view",
      "type": "function"
    },
    {
      "inputs": [],
      "name": "DEFAULT_PLAYERS",
      "outputs": [
        {
          "internalType": "uint256",
          "name": "",
          "type": "uint256"
        }
      ],
      "stateMutability": "view",
      "type": "function"
    },
    {
      "inputs": [],
      "name": "MAX_ENDORSERS",
      "outputs": [
        {
          "internalType": "uint256",
          "name": "",
          "type": "uint256"
        }
      ],
      "stateMutability": "view",
      "type": "function"
    },
    {
      "inputs": [
        {
          "internalType": "address",
          "name": "to",
          "type": "address"
        },
        {
          "internalType": "uint256",
          "name": "tokenId",
          "type": "uint256"
        }
      ],
      "name": "approve",
      "outputs": [],
      "stateMutability": "nonpayable",
      "type": "function"
    },
    {
      "inputs": [
        {
          "internalType": "address",
          "name": "owner",
          "type": "address"
        }
      ],
      "name": "balanceOf",
      "outputs": [
        {
          "internalType": "uint256",
          "name": "",
          "type": "uint256"
        }
      ],
      "stateMutability": "view",
      "type": "function"
    },
    {
      "inputs": [
        {
          "internalType": "uint256",
          "name": "tokenId",
          "type": "uint256"
        }
      ],
      "name": "getApproved",
      "outputs": [
        {
          "internalType": "address",
          "name": "",
          "type": "address"
        }
      ],
      "stateMutability": "view",
      "type": "function"
    },
    {
      "inputs": [
        {
          "internalType": "address",
          "name": "owner",
          "type": "address"
        },
        {
          "internalType": "address",
          "name": "operator",
          "type": "address"
        }
      ],
      "name": "isApprovedForAll",
      "outputs": [
        {
          "internalType": "bool",
          "name": "",
          "type": "bool"
        }
      ],
      "stateMutability": "view",
      "type": "function"
    },
    {
      "inputs": [],
      "name": "name",
      "outputs": [
        {
          "internalType": "string",
          "name": "",
          "type": "string"
        }
      ],
      "stateMutability": "view",
      "type": "function"
    },
    {
      "inputs": [],
      "name": "owner",
      "outputs": [
        {
          "internalType": "address",
          "name": "",
          "type": "address"
        }
      ],
      "stateMutability": "view",
      "type": "function"
    },
    {
      "inputs": [
        {
          "internalType": "uint256",
          "name": "tokenId",
          "type": "uint256"
        }
      ],
      "name": "ownerOf",
      "outputs": [
        {
          "internalType": "address",
          "name": "",
          "type": "address"
        }
      ],
      "stateMutability": "view",
      "type": "function"
    },
    {
      "inputs": [],
      "name": "renounceOwnership",
      "outputs": [],
      "stateMutability": "nonpayable",
      "type": "function"
    },
    {
      "inputs": [
        {
          "internalType": "address",
          "name": "from",
          "type": "address"
        },
        {
          "internalType": "address",
          "name": "to",
          "type": "address"
        },
        {
          "internalType": "uint256",
          "name": "tokenId",
          "type": "uint256"
        }
      ],
      "name": "safeTransferFrom",
      "outputs": [],
      "stateMutability": "nonpayable",
      "type": "function"
    },
    {
      "inputs": [
        {
          "internalType": "address",
          "name": "from",
          "type": "address"
        },
        {
          "internalType": "address",
          "name": "to",
          "type": "address"
        },
        {
          "internalType": "uint256",
          "name": "tokenId",
          "type": "uint256"
        },
        {
          "internalType": "bytes",
          "name": "_data",
          "type": "bytes"
        }
      ],
      "name": "safeTransferFrom",
      "outputs": [],
      "stateMutability": "nonpayable",
      "type": "function"
    },
    {
      "inputs": [
        {
          "internalType": "address",
          "name": "operator",
          "type": "address"
        },
        {
          "internalType": "bool",
          "name": "approved",
          "type": "bool"
        }
      ],
      "name": "setApprovalForAll",
      "outputs": [],
      "stateMutability": "nonpayable",
      "type": "function"
    },
    {
      "inputs": [
        {
          "internalType": "bytes4",
          "name": "interfaceId",
          "type": "bytes4"
        }
      ],
      "name": "supportsInterface",
      "outputs": [
        {
          "internalType": "bool",
          "name": "",
          "type": "bool"
        }
      ],
      "stateMutability": "view",
      "type": "function"
    },
    {
      "inputs": [],
      "name": "symbol",
      "outputs": [
        {
          "internalType": "string",
          "name": "",
          "type": "string"
        }
      ],
      "stateMutability": "view",
      "type": "function"
    },
    {
      "inputs": [
        {
          "internalType": "uint256",
          "name": "tokenId",
          "type": "uint256"
        }
      ],
      "name": "tokenURI",
      "outputs": [
        {
          "internalType": "string",
          "name": "",
          "type": "string"
        }
      ],
      "stateMutability": "view",
      "type": "function"
    },
    {
      "inputs": [
        {
          "internalType": "address",
          "name": "from",
          "type": "address"
        },
        {
          "internalType": "address",
          "name": "to",
          "type": "address"
        },
        {
          "internalType": "uint256",
          "name": "tokenId",
          "type": "uint256"
        }
      ],
      "name": "transferFrom",
      "outputs": [],
      "stateMutability": "nonpayable",
      "type": "function"
    },
    {
      "inputs": [
        {
          "internalType": "address",
          "name": "newOwner",
          "type": "address"
        }
      ],
      "name": "transferOwnership",
      "outputs": [],
      "stateMutability": "nonpayable",
      "type": "function"
    },
    {
      "inputs": [
        {
          "internalType": "address",
          "name": "operator",
          "type": "address"
        },
        {
          "internalType": "address payable",
          "name": "beneficiary_",
          "type": "address"
        },
        {
          "internalType": "uint256",
          "name": "participants_",
          "type": "uint256"
        },
        {
          "internalType": "uint256",
          "name": "pricePerRound_",
          "type": "uint256"
        },
        {
          "internalType": "uint256",
          "name": "totalEndorsers",
          "type": "uint256"
        }
      ],
      "name": "createSocialGame",
      "outputs": [
        {
          "internalType": "uint256",
          "name": "gameId_",
          "type": "uint256"
        }
      ],
      "stateMutability": "nonpayable",
      "type": "function"
    },
    {
      "inputs": [
        {
          "internalType": "address",
          "name": "operator",
          "type": "address"
        },
        {
          "internalType": "address payable",
          "name": "beneficiary_",
          "type": "address"
        },
        {
          "internalType": "uint256",
          "name": "participants_",
          "type": "uint256"
        },
        {
          "internalType": "uint256",
          "name": "pricePerRound_",
          "type": "uint256"
        }
      ],
      "name": "createSocialGame",
      "outputs": [
        {
          "internalType": "uint256",
          "name": "gameId_",
          "type": "uint256"
        }
      ],
      "stateMutability": "nonpayable",
      "type": "function"
    },
    {
      "inputs": [
        {
          "internalType": "address",
          "name": "player",
          "type": "address"
        },
        {
          "internalType": "string",
          "name": "tokenURI_",
          "type": "string"
        },
        {
          "internalType": "uint256",
          "name": "gameId",
          "type": "uint256"
        }
      ],
      "name": "enterGame",
      "outputs": [
        {
          "internalType": "uint256",
          "name": "ticket_",
          "type": "uint256"
        }
      ],
      "stateMutability": "nonpayable",
      "type": "function"
    },
    {
      "inputs": [],
      "name": "gameCompleted",
      "outputs": [],
      "stateMutability": "nonpayable",
      "type": "function"
    },
    {
      "inputs": [
        {
          "internalType": "address",
          "name": "operator",
          "type": "address"
        },
        {
          "internalType": "address",
          "name": "from",
          "type": "address"
        },
        {
          "internalType": "uint256",
          "name": "tokenId",
          "type": "uint256"
        },
        {
          "internalType": "bytes",
          "name": "data",
          "type": "bytes"
        }
      ],
      "name": "onERC721Received",
      "outputs": [
        {
          "internalType": "bytes4",
          "name": "",
          "type": "bytes4"
        }
      ],
      "stateMutability": "nonpayable",
      "type": "function"
    }
  ],
  "bytecode": "0x60806040523480156200001157600080fd5b50604080518082018252601281527129b7b1b4b0b62430b936b7b73caa37b5b2b760711b60208083019182528351808501909452600484526314d2135560e21b908401528151919291620000689160009162000137565b5080516200007e90600190602084019062000137565b5050506000620000936200013360201b60201c565b600780546001600160a01b0319166001600160a01b038316908117909155604051919250906000907f8be0079c531659141344cd1fd0a4f28419497f9722a3daafe3b4186f6b6457e0908290a350604051620000ef90620001c6565b604051809103906000f0801580156200010c573d6000803e3d6000fd5b50600e80546001600160a01b0319166001600160a01b039290921691909117905562000228565b3390565b8280546200014590620001eb565b90600052602060002090601f016020900481019282620001695760008555620001b4565b82601f106200018457805160ff1916838001178555620001b4565b82800160010185558215620001b4579182015b82811115620001b457825182559160200191906001019062000197565b50620001c2929150620001d4565b5090565b6115a3806200609e83390190565b5b80821115620001c25760008155600101620001d5565b600181811c908216806200020057607f821691505b602082108114156200022257634e487b7160e01b600052602260045260246000fd5b50919050565b615e6680620002386000396000f3fe60806040523480156200001157600080fd5b5060043610620001425760003560e01c806301ffc9a7146200014757806306fdde031462000173578063081812fc146200018c578063095ea7b314620001b2578063150b7a0214620001cb57806323b872dd14620001fc5780633fcb41f6146200021357806342842e0e14620002395780634d699f0014620002505780635edf36f8146200025a5780636352211e146200027157806368f39d8b146200028857806370a082311462000291578063715018a614620002a85780638da5cb5b14620002b257806395d89b4114620002bc578063a22cb46514620002c6578063b88d4fde14620002dd578063c87b56dd14620002f4578063e5d5f4e9146200030b578063e66a1ab11462000314578063e985e9c5146200032b578063eccfd1ff1462000342578063f2fde38b1462000352575b600080fd5b6200015e62000158366004620020f8565b62000369565b60405190151581526020015b60405180910390f35b6200017d620003bd565b6040516200016a919062002220565b620001a36200019d36600462002138565b62000457565b6040516200016a9190620021cd565b620001c9620001c3366004620020c9565b620004e7565b005b620001e2620001dc36600462001ef0565b62000603565b6040516001600160e01b031990911681526020016200016a565b620001c96200020d36600462001eaa565b6200072d565b6200022a6200022436600462001e54565b62000765565b6040519081526020016200016a565b620001c96200024a36600462001eaa565b62000a59565b620001c962000a76565b6200022a6200026b36600462001e09565b62000cc0565b620001a36200028236600462002138565b62000cdb565b6200022a601481565b6200022a620002a236600462001dab565b62000d54565b620001c962000ddd565b620001a362000e4a565b6200017d62000e59565b620001c9620002d73660046200201f565b62000e6a565b620001c9620002ee36600462001f97565b62000f2d565b6200017d6200030536600462002138565b62000f6c565b6200022a606481565b6200022a6200032536600462002056565b620010f6565b6200015e6200033c36600462001dcb565b62001203565b6200022a670de0b6b3a764000081565b620001c96200036336600462001dab565b62001231565b60006001600160e01b031982166380ac58cd60e01b14806200039b57506001600160e01b03198216635b5e139f60e01b145b80620003b757506301ffc9a760e01b6001600160e01b03198316145b92915050565b606060008054620003ce9062002388565b80601f0160208091040260200160405190810160405280929190818152602001828054620003fc9062002388565b80156200044d5780601f1062000421576101008083540402835291602001916200044d565b820191906000526020600020905b8154815290600101906020018083116200042f57829003601f168201915b5050505050905090565b6000620004648262001317565b620004cb5760405162461bcd60e51b815260206004820152602c60248201527f4552433732313a20617070726f76656420717565727920666f72206e6f6e657860448201526b34b9ba32b73a103a37b5b2b760a11b60648201526084015b60405180910390fd5b506000908152600460205260409020546001600160a01b031690565b6000620004f48262000cdb565b9050806001600160a01b0316836001600160a01b03161415620005645760405162461bcd60e51b815260206004820152602160248201527f4552433732313a20617070726f76616c20746f2063757272656e74206f776e656044820152603960f91b6064820152608401620004c2565b336001600160a01b038216148062000583575062000583813362001203565b620005f25760405162461bcd60e51b815260206004820152603860248201527f4552433732313a20617070726f76652063616c6c6572206973206e6f74206f776044820152771b995c881b9bdc88185c1c1c9bdd995908199bdc88185b1b60421b6064820152608401620004c2565b620005fe838362001334565b505050565b60006064670de0b6b3a76400006040841415620006a4576200065b85858080601f01602080910402602001604051908101604052809392919081815260200183838082843760009201829052509250620013a4915050565b9150620006a185858080601f01602080910402602001604051908101604052809392919081815260200183838082843760009201919091525060209250620013a4915050565b90505b6000620006b48989858562000cc0565b604080516060810182526001600160a01b03808c16825260208083018c8152338486019081526000968752600d90925293909420915182549082166001600160a01b03199182161783559251600183015592516002909101805491909316911617905550630a85bd0160e11b9250505095945050505050565b62000739338262001405565b620007585760405162461bcd60e51b8152600401620004c290620022bc565b620005fe838383620014d3565b60006200077160095490565b620007f6576200078062000e4a565b6001600160a01b0316866001600160a01b031614620007f15760405162461bcd60e51b815260206004820152602660248201527f47616d652073746172742063616e206f6e6c792062652063616c6c65642062796044820152651037bbb732b960d11b6064820152608401620004c2565b600091505b62000805600980546001019055565b60095490506000858585848630600e60009054906101000a90046001600160a01b0316604051620008369062001c7b565b6001600160a01b0397881681526020810196909652604086019490945260608501929092526080840152831660a083015290911660c082015260e001604051809103906000f0801580156200088f573d6000803e3d6000fd5b5060405163f2fde38b60e01b81529091506001600160a01b0382169063f2fde38b90620008c1908a90600401620021cd565b600060405180830381600087803b158015620008dc57600080fd5b505af1158015620008f1573d6000803e3d6000fd5b5050506001600160a01b0382166000818152600a60209081526040808320879055805163d7c81b5560e01b8152905160019550600b949263d7c81b559260048082019391829003018186803b1580156200094a57600080fd5b505afa1580156200095f573d6000803e3d6000fd5b505050506040513d601f19601f8201168201806040525081019062000985919062002152565b815260208101919091526040908101600020805460ff191692151592909217909155600e549051630ae5e73960e01b81526001600160a01b0390911690630ae5e73990620009d8908490600401620021cd565b600060405180830381600087803b158015620009f357600080fd5b505af115801562000a08573d6000803e3d6000fd5b5050604080516001600160a01b0385168152602081018690527f306841c3fce8498c2d9b7194b8da4c04d03847394e237b625ce6d029b107f077935001905060405180910390a15095945050505050565b620005fe8383836040518060200160405280600081525062000f2d565b336000908152600a60205260409020548062000aca5760405162461bcd60e51b81526020600482015260126024820152714e6f7420616e206163746976652067616d6560701b6044820152606401620004c2565b6000818152600b602052604090205460ff16151560011462000b245760405162461bcd60e51b815260206004820152601260248201527147616d65206973206e6f742061637469766560701b6044820152606401620004c2565b600e546040516385e6853160e01b81526001600160a01b03909116906385e685319062000b56903390600401620021cd565b600060405180830381600087803b15801562000b7157600080fd5b505af115801562000b86573d6000803e3d6000fd5b5050506000828152600b60209081526040808320805460ff19169055600d90915290206001015415905062000cbd576000818152600d6020908152604091829020825160608101845281546001600160a01b039081168083526001840154948301859052600290930154168185018190529351632142170760e11b81523060048201526024810192909252604482019290925290919081906342842e0e90606401600060405180830381600087803b15801562000c4257600080fd5b505af115801562000c57573d6000803e3d6000fd5b505060408051606081018252600080825260208083018281528385018381528a8452600d90925293909120915182546001600160a01b03199081166001600160a01b03928316178455935160018401559051600290920180549093169116179055505050505b50565b600062000cd285858585601462000765565b95945050505050565b6000818152600260205260408120546001600160a01b031680620003b75760405162461bcd60e51b815260206004820152602960248201527f4552433732313a206f776e657220717565727920666f72206e6f6e657869737460448201526832b73a103a37b5b2b760b91b6064820152608401620004c2565b60006001600160a01b03821662000dc15760405162461bcd60e51b815260206004820152602a60248201527f4552433732313a2062616c616e636520717565727920666f7220746865207a65604482015269726f206164647265737360b01b6064820152608401620004c2565b506001600160a01b031660009081526003602052604090205490565b3362000de862000e4a565b6001600160a01b03161462000e115760405162461bcd60e51b8152600401620004c29062002287565b6007546040516000916001600160a01b03169060008051602062005df1833981519152908390a3600780546001600160a01b0319169055565b6007546001600160a01b031690565b606060018054620003ce9062002388565b6001600160a01b03821633141562000ec15760405162461bcd60e51b815260206004820152601960248201527822a9219b99189d1030b8383937bb32903a379031b0b63632b960391b6044820152606401620004c2565b3360008181526005602090815260408083206001600160a01b03871680855290835292819020805460ff191686151590811790915590519081529192917f17307eab39ab6107e8899845ad3d59bd9653f200f220920489ca2b5937696c31910160405180910390a35050565b62000f39338362001405565b62000f585760405162461bcd60e51b8152600401620004c290620022bc565b62000f66848484846200167b565b50505050565b606062000f798262001317565b62000fe15760405162461bcd60e51b815260206004820152603160248201527f45524337323155524953746f726167653a2055524920717565727920666f72206044820152703737b732bc34b9ba32b73a103a37b5b2b760791b6064820152608401620004c2565b6000828152600660205260408120805462000ffc9062002388565b80601f01602080910402602001604051908101604052809291908181526020018280546200102a9062002388565b80156200107b5780601f106200104f576101008083540402835291602001916200107b565b820191906000526020600020905b8154815290600101906020018083116200105d57829003601f168201915b5050505050905060006200109a60408051602081019091526000815290565b9050805160001415620010ae575092915050565b815115620010e3578082604051602001620010cb9291906200219a565b60405160208183030381529060405292505050919050565b620010ee84620016b5565b949350505050565b336000908152600a6020526040812054620011455760405162461bcd60e51b815260206004820152600e60248201526d11d85b59481b9bdd081d985b1a5960921b6044820152606401620004c2565b336000908152600a60205260409020548214620011c05760405162461bcd60e51b815260206004820152603260248201527f43616e6e6f7420726567697374657220706c61796572206173207468652067616044820152711b59481a59081a5cc81b9bdd081bdddb995960721b6064820152608401620004c2565b620011cf600880546001019055565b50600854620011df848262001798565b620011eb8184620018cf565b6000818152600c602052604090209190915592915050565b6001600160a01b03918216600090815260056020908152604080832093909416825291909152205460ff1690565b336200123c62000e4a565b6001600160a01b031614620012655760405162461bcd60e51b8152600401620004c29062002287565b6001600160a01b038116620012cc5760405162461bcd60e51b815260206004820152602660248201527f4f776e61626c653a206e6577206f776e657220697320746865207a65726f206160448201526564647265737360d01b6064820152608401620004c2565b6007546040516001600160a01b0380841692169060008051602062005df183398151915290600090a3600780546001600160a01b0319166001600160a01b0392909216919091179055565b6000908152600260205260409020546001600160a01b0316151590565b600081815260046020526040902080546001600160a01b0319166001600160a01b03841690811790915581906200136b8262000cdb565b6001600160a01b03167f8c5be1e5ebec7d5bd14f71427d1e84f3dd0314c0f7b2291e5b200ac8c7c3b92560405160405180910390a45050565b6000620013b38260206200230d565b83511015620013fc5760405162461bcd60e51b8152602060048201526014602482015273736c6963696e67206f7574206f662072616e676560601b6044820152606401620004c2565b50016020015190565b6000620014128262001317565b620014755760405162461bcd60e51b815260206004820152602c60248201527f4552433732313a206f70657261746f7220717565727920666f72206e6f6e657860448201526b34b9ba32b73a103a37b5b2b760a11b6064820152608401620004c2565b6000620014828362000cdb565b9050806001600160a01b0316846001600160a01b03161480620014c05750836001600160a01b0316620014b58462000457565b6001600160a01b0316145b80620010ee5750620010ee818562001203565b826001600160a01b0316620014e88262000cdb565b6001600160a01b031614620015525760405162461bcd60e51b815260206004820152602960248201527f4552433732313a207472616e73666572206f6620746f6b656e2074686174206960448201526839903737ba1037bbb760b91b6064820152608401620004c2565b6001600160a01b038216620015b65760405162461bcd60e51b8152602060048201526024808201527f4552433732313a207472616e7366657220746f20746865207a65726f206164646044820152637265737360e01b6064820152608401620004c2565b620015c383838362001960565b620015d060008262001334565b6001600160a01b0383166000908152600360205260408120805460019290620015fb9084906200233f565b90915550506001600160a01b03821660009081526003602052604081208054600192906200162b9084906200230d565b909155505060008181526002602052604080822080546001600160a01b0319166001600160a01b03868116918217909255915184939187169160008051602062005e1183398151915291a4505050565b62001688848484620014d3565b620016968484848462001a4b565b62000f665760405162461bcd60e51b8152600401620004c29062002235565b6060620016c28262001317565b620017285760405162461bcd60e51b815260206004820152602f60248201527f4552433732314d657461646174613a2055524920717565727920666f72206e6f60448201526e3732bc34b9ba32b73a103a37b5b2b760891b6064820152608401620004c2565b60006200174060408051602081019091526000815290565b9050600081511162001762576040518060200160405280600081525062001791565b806200176e8462001b66565b604051602001620017819291906200219a565b6040516020818303038152906040525b9392505050565b6001600160a01b038216620017f05760405162461bcd60e51b815260206004820181905260248201527f4552433732313a206d696e7420746f20746865207a65726f20616464726573736044820152606401620004c2565b620017fb8162001317565b15620018495760405162461bcd60e51b815260206004820152601c60248201527b115490cdcc8c4e881d1bdad95b88185b1c9958591e481b5a5b9d195960221b6044820152606401620004c2565b620018576000838362001960565b6001600160a01b0382166000908152600360205260408120805460019290620018829084906200230d565b909155505060008181526002602052604080822080546001600160a01b0319166001600160a01b038616908117909155905183929060008051602062005e11833981519152908290a45050565b620018da8262001317565b6200193f5760405162461bcd60e51b815260206004820152602e60248201527f45524337323155524953746f726167653a2055524920736574206f66206e6f6e60448201526d32bc34b9ba32b73a103a37b5b2b760911b6064820152608401620004c2565b60008281526006602090815260409091208251620005fe9284019062001c89565b6001600160a01b0383166200197457505050565b6000818152600c6020526040902054620019c45760405162461bcd60e51b815260206004820152601060248201526f125b9d985b1a5908151bdad95b88125960821b6044820152606401620004c2565b6000818152600c60209081526040808320548352600b90915290205460ff1615620005fe5760405162461bcd60e51b815260206004820152603060248201527f43616e6e6f74207472616e7366657220746f6b656e73207768656e2067616d6560448201526f206973207374696c6c2061637469766560801b6064820152608401620004c2565b60006001600160a01b0384163b1562001b5b57604051630a85bd0160e11b81526001600160a01b0385169063150b7a029062001a92903390899088908890600401620021e1565b602060405180830381600087803b15801562001aad57600080fd5b505af192505050801562001ae0575060408051601f3d908101601f1916820190925262001add9181019062002118565b60015b62001b40573d80801562001b11576040519150601f19603f3d011682016040523d82523d6000602084013e62001b16565b606091505b50805162001b385760405162461bcd60e51b8152600401620004c29062002235565b805181602001fd5b6001600160e01b031916630a85bd0160e11b149050620010ee565b506001949350505050565b60608162001b8b5750506040805180820190915260018152600360fc1b602082015290565b8160005b811562001bbb578062001ba281620023c5565b915062001bb39050600a8362002328565b915062001b8f565b6000816001600160401b0381111562001bd85762001bd86200243c565b6040519080825280601f01601f19166020018201604052801562001c03576020820181803683370190505b5090505b8415620010ee5762001c1b6001836200233f565b915062001c2a600a86620023e3565b62001c379060306200230d565b60f81b81838151811062001c4f5762001c4f62002426565b60200101906001600160f81b031916908160001a90535062001c73600a8662002328565b945062001c07565b613971806200248083390190565b82805462001c979062002388565b90600052602060002090601f01602090048101928262001cbb576000855562001d06565b82601f1062001cd657805160ff191683800117855562001d06565b8280016001018555821562001d06579182015b8281111562001d0657825182559160200191906001019062001ce9565b5062001d1492915062001d18565b5090565b5b8082111562001d14576000815560010162001d19565b60006001600160401b038084111562001d4c5762001d4c6200243c565b604051601f8501601f19908116603f0116810190828211818310171562001d775762001d776200243c565b8160405280935085815286868601111562001d9157600080fd5b858560208301376000602087830101525050509392505050565b60006020828403121562001dbe57600080fd5b8135620017918162002452565b6000806040838503121562001ddf57600080fd5b823562001dec8162002452565b9150602083013562001dfe8162002452565b809150509250929050565b6000806000806080858703121562001e2057600080fd5b843562001e2d8162002452565b9350602085013562001e3f8162002452565b93969395505050506040820135916060013590565b600080600080600060a0868803121562001e6d57600080fd5b853562001e7a8162002452565b9450602086013562001e8c8162002452565b94979496505050506040830135926060810135926080909101359150565b60008060006060848603121562001ec057600080fd5b833562001ecd8162002452565b9250602084013562001edf8162002452565b929592945050506040919091013590565b60008060008060006080868803121562001f0957600080fd5b853562001f168162002452565b9450602086013562001f288162002452565b93506040860135925060608601356001600160401b038082111562001f4c57600080fd5b818801915088601f83011262001f6157600080fd5b81358181111562001f7157600080fd5b89602082850101111562001f8457600080fd5b9699959850939650602001949392505050565b6000806000806080858703121562001fae57600080fd5b843562001fbb8162002452565b9350602085013562001fcd8162002452565b92506040850135915060608501356001600160401b0381111562001ff057600080fd5b8501601f810187136200200257600080fd5b620020138782356020840162001d2f565b91505092959194509250565b600080604083850312156200203357600080fd5b8235620020408162002452565b91506020830135801515811462001dfe57600080fd5b6000806000606084860312156200206c57600080fd5b8335620020798162002452565b925060208401356001600160401b038111156200209557600080fd5b8401601f81018613620020a757600080fd5b620020b88682356020840162001d2f565b925050604084013590509250925092565b60008060408385031215620020dd57600080fd5b8235620020ea8162002452565b946020939093013593505050565b6000602082840312156200210b57600080fd5b8135620017918162002468565b6000602082840312156200212b57600080fd5b8151620017918162002468565b6000602082840312156200214b57600080fd5b5035919050565b6000602082840312156200216557600080fd5b5051919050565b600081518084526200218681602086016020860162002359565b601f01601f19169290920160200192915050565b60008351620021ae81846020880162002359565b835190830190620021c481836020880162002359565b01949350505050565b6001600160a01b0391909116815260200190565b6001600160a01b038581168252841660208201526040810183905260806060820181905260009062002216908301846200216c565b9695505050505050565b6020815260006200179160208301846200216c565b60208082526032908201527f4552433732313a207472616e7366657220746f206e6f6e20455243373231526560408201527131b2b4bb32b91034b6b83632b6b2b73a32b960711b606082015260800190565b6020808252818101527f4f776e61626c653a2063616c6c6572206973206e6f7420746865206f776e6572604082015260600190565b60208082526031908201527f4552433732313a207472616e736665722063616c6c6572206973206e6f74206f6040820152701ddb995c881b9bdc88185c1c1c9bdd9959607a1b606082015260800190565b60008219821115620023235762002323620023fa565b500190565b6000826200233a576200233a62002410565b500490565b600082821015620023545762002354620023fa565b500390565b60005b83811015620023765781810151838201526020016200235c565b8381111562000f665750506000910152565b600181811c908216806200239d57607f821691505b60208210811415620023bf57634e487b7160e01b600052602260045260246000fd5b50919050565b6000600019821415620023dc57620023dc620023fa565b5060010190565b600082620023f557620023f562002410565b500690565b634e487b7160e01b600052601160045260246000fd5b634e487b7160e01b600052601260045260246000fd5b634e487b7160e01b600052603260045260246000fd5b634e487b7160e01b600052604160045260246000fd5b6001600160a01b038116811462000cbd57600080fd5b6001600160e01b03198116811462000cbd57600080fdfe6101406040523480156200001257600080fd5b50604051620039713803806200397183398101604081905262000035916200020e565b600080546001600160a01b031916339081178255604051909182917f8be0079c531659141344cd1fd0a4f28419497f9722a3daafe3b4186f6b6457e0908290a35060008511620000cc5760405162461bcd60e51b815260206004820152601d60248201527f696e76616c6964207072696365206f66207469636b657420656e74727900000060448201526064015b60405180910390fd5b600386116200011e5760405162461bcd60e51b815260206004820152601460248201527f696e76616c6964207061727469636970616e74730000000000000000000000006044820152606401620000c3565b866040516200012d9062000200565b6200013991906200028a565b604051809103906000f08015801562000156573d6000803e3d6000fd5b5060601b6001600160601b0319166080526040513090620001779062000200565b6200018391906200028a565b604051809103906000f080158015620001a0573d6000803e3d6000fd5b5060601b6001600160601b03191660a05260e09590955260c09390935261010091909152600580546001600160a01b03199081166001600160a01b03948516179091556006805490911692909316919091179091556101205250620002b7565b610bfd8062002d7483390190565b600080600080600080600060e0888a0312156200022a57600080fd5b875162000237816200029e565b809750506020880151955060408801519450606088015193506080880151925060a088015162000267816200029e565b60c08901519092506200027a816200029e565b8091505092959891949750929550565b6001600160a01b0391909116815260200190565b6001600160a01b0381168114620002b457600080fd5b50565b60805160601c60a05160601c60c05160e05161010051610120516129726200040260003960008181610427015281816106c7015281816116dc0152818161176401528181611dd10152611eda0152600081816105450152818161193c0152611a4601526000818161038501528181610f97015281816110370152818161109b0152818161152801528181611acf0152611f020152600081816104d901528181610fb801528181611058015281816110bc015281816115530152611f2301526000818161017c015281816101fb015281816108bc01528181610a3d01528181610bc501528181610d200152818161186d0152818161226101526122d401526000818161084901528181610b4901528181610c6c01528181611270015281816113df0152818161147701528181611616015281816117ce01528181611cb301526121ee01526129726000f3fe60806040526004361061016c5760003560e01c8063150b7a0214610269578063235004ac146102a7578063291b3d60146102d457806329dd29c7146102f75780632b63a5851461030c578063590e1ae31461032157806367ee66e6146103295780636b149d87146103495780636c4470fb1461037357806370740ac9146103a7578063715018a6146103bc5780637534c9a2146103d1578063789c20f9146103f15780637ec42e691461041557806383ae869d146104495780638773f4f41461045e5780638da5cb5b146104735780639af6549a14610488578063a26dbf261461049d578063acffa436146104b2578063b2c744a8146104c7578063b5ae4519146104fb578063c39b583c14610511578063d11711a21461052b578063d62fbc351461045e578063d7c81b5514610533578063eb1b998714610567578063ec6e563d1461057c578063ee31b8cd14610591578063f2fde38b146105a6578063fe437ae7146105c6576101f0565b366101f057336001600160a01b037f000000000000000000000000000000000000000000000000000000000000000016146101ee5760405162461bcd60e51b815260206004820152602960248201526000805160206128fd83398151915260448201526828726563656976652960b81b60648201526084015b60405180910390fd5b005b336001600160a01b037f000000000000000000000000000000000000000000000000000000000000000016146101ee5760405162461bcd60e51b815260206004820152602a60248201526000805160206128fd8339815191526044820152692866616c6c6261636b2960b01b60648201526084016101e5565b34801561027557600080fd5b5061028961028436600461262a565b6105eb565b6040516001600160e01b031990911681526020015b60405180910390f35b3480156102b357600080fd5b506003546102c7906001600160a01b031681565b60405161029e9190612768565b3480156102e057600080fd5b506102e9601481565b60405190815260200161029e565b34801561030357600080fd5b506102e9600a81565b34801561031857600080fd5b506101ee6107c5565b6101ee6109c0565b34801561033557600080fd5b506004546102c7906001600160a01b031681565b34801561035557600080fd5b5061035e610c67565b6040805192835260208301919091520161029e565b34801561037f57600080fd5b506102e97f000000000000000000000000000000000000000000000000000000000000000081565b3480156103b357600080fd5b506101ee610dab565b3480156103c857600080fd5b506101ee61111a565b3480156103dd57600080fd5b506102c76103ec3660046126e9565b611181565b3480156103fd57600080fd5b5060025460ff165b604051901515815260200161029e565b34801561042157600080fd5b506102e97f000000000000000000000000000000000000000000000000000000000000000081565b34801561045557600080fd5b506104056111ab565b34801561046a57600080fd5b506102e9600581565b34801561047f57600080fd5b506102c76111f0565b34801561049457600080fd5b506101ee6111ff565b3480156104a957600080fd5b506102e9611517565b3480156104be57600080fd5b506102e9603c81565b3480156104d357600080fd5b506102e97f000000000000000000000000000000000000000000000000000000000000000081565b34801561050757600080fd5b506102e960075481565b34801561051d57600080fd5b506002546104059060ff1681565b6101ee611551565b34801561053f57600080fd5b506102e97f000000000000000000000000000000000000000000000000000000000000000081565b34801561057357600080fd5b506101ee611b11565b34801561058857600080fd5b50610405611cad565b34801561059d57600080fd5b506101ee611d59565b3480156105b257600080fd5b506101ee6105c13660046125e9565b611fab565b3480156105d257600080fd5b506002546102c79061010090046001600160a01b031681565b6005546000906001600160a01b031633146106675760405162461bcd60e51b815260206004820152603660248201527f43616e206f6e6c79207265636569766520746f6b656e732066726f6d20746865604482015275081cdbd8da585b081d1bdad95b8818dbdb9d1c9858dd60521b60648201526084016101e5565b6001600160a01b038516600090815260086020526040902054156106c55760405162461bcd60e51b815260206004820152601560248201527443616e206f6e6c7920656e646f727365206f6e636560581b60448201526064016101e5565b7f00000000000000000000000000000000000000000000000000000000000000006007541061074d5760405162461bcd60e51b815260206004820152602e60248201527f53756666696369656e7420656e646f7273656d656e747320726563656976656460448201526d20746f20626567696e2067616d6560901b60648201526084016101e5565b6001600160a01b0385166000908152600860205260409020849055600754610776906001612800565b6007556040517f6c1db45156f46e792997773bd94e0ccff5ee22722c352b5379d5c7c1dc7b4afb906107ab908790879061277c565b60405180910390a150630a85bd0160e11b95945050505050565b336107ce6111f0565b6001600160a01b0316146107f45760405162461bcd60e51b81526004016101e5906127cb565b60025460ff16156108475760405162461bcd60e51b815260206004820181905260248201527f47616d6520697320636f6d706c657465642c2063616e6e6f742063616e63656c60448201526064016101e5565b7f00000000000000000000000000000000000000000000000000000000000000006001600160a01b0316638c52dc416040518163ffffffff1660e01b8152600401600060405180830381600087803b1580156108a257600080fd5b505af11580156108b6573d6000803e3d6000fd5b505050507f00000000000000000000000000000000000000000000000000000000000000006001600160a01b0316638c52dc416040518163ffffffff1660e01b8152600401600060405180830381600087803b15801561091557600080fd5b505af1158015610929573d6000803e3d6000fd5b50505050600560009054906101000a90046001600160a01b03166001600160a01b0316634d699f006040518163ffffffff1660e01b8152600401600060405180830381600087803b15801561097d57600080fd5b505af1158015610991573d6000803e3d6000fd5b50506040517f1dc43dc4f1689be1269b3e80407b3401b4cb752c02591cac32e47dfd758af27d925060009150a1565b6109c8611cad565b610a235760405162461bcd60e51b815260206004820152602660248201527f43616e6e6f7420726566756e642069662067616d65206973206e6f742063616e60448201526518d95b1b195960d21b60648201526084016101e5565b6040516371d4ed8d60e11b81526000906001600160a01b037f0000000000000000000000000000000000000000000000000000000000000000169063e3a9db1a90610a72903390600401612768565b60206040518083038186803b158015610a8a57600080fd5b505afa158015610a9e573d6000803e3d6000fd5b505050506040513d601f19601f82011682018060405250810190610ac29190612702565b11610b325760405162461bcd60e51b815260206004820152603a60248201527f43616e6e6f7420726566756e64206163636f756e742c206e6f742061207061726044820152791d1a58da5c185b9d081bdc881c99599d5b990818db185a5b595960321b60648201526084016101e5565b6040516351cff8d960e01b81526001600160a01b037f000000000000000000000000000000000000000000000000000000000000000016906351cff8d990610b7e903390600401612768565b600060405180830381600087803b158015610b9857600080fd5b505af1158015610bac573d6000803e3d6000fd5b50506040516351cff8d960e01b81526001600160a01b037f00000000000000000000000000000000000000000000000000000000000000001692506351cff8d99150610bfc903390600401612768565b600060405180830381600087803b158015610c1657600080fd5b505af1158015610c2a573d6000803e3d6000fd5b505050507f167242d43394c1ae34826c8d7544822cbe8c1071d221a571aad57cdd2c2a2fd333604051610c5d9190612768565b60405180910390a1565b6000807f00000000000000000000000000000000000000000000000000000000000000006001600160a01b031663e3a9db1a336040518263ffffffff1660e01b8152600401610cb69190612768565b60206040518083038186803b158015610cce57600080fd5b505afa158015610ce2573d6000803e3d6000fd5b505050506040513d601f19601f82011682018060405250810190610d069190612702565b6040516371d4ed8d60e11b81529092506001600160a01b037f0000000000000000000000000000000000000000000000000000000000000000169063e3a9db1a90610d55903390600401612768565b60206040518083038186803b158015610d6d57600080fd5b505afa158015610d81573d6000803e3d6000fd5b505050506040513d601f19601f82011682018060405250810190610da59190612702565b90509091565b60025460ff16610e125760405162461bcd60e51b815260206004820152602c60248201527f43616e6e6f74207769746864726177206966207468652067616d65206973206e60448201526b1bdd0818dbdb5c1b195d195960a21b60648201526084016101e5565b60025461010090046001600160a01b0316331480610e3a57506003546001600160a01b031633145b80610e4f57506004546001600160a01b031633145b610e955760405162461bcd60e51b815260206004820152601760248201527643616e6e6f7420636c61696d20746865207072697a652160481b60448201526064016101e5565b60025461010090046001600160a01b031633148015610ebe5750600454600160a01b900460ff16155b80610ee857506003546001600160a01b031633148015610ee85750600454600160a81b900460ff16155b80610f1257506004546001600160a01b031633148015610f125750600454600160b01b900460ff16155b610f5e5760405162461bcd60e51b815260206004820152601d60248201527f57696e6e657273207072697a6520616c726561647920636c61696d656400000060448201526064016101e5565b600254339061010090046001600160a01b0316811415611005576004805460ff60a01b1916600160a01b17905561100060646014610fdc7f00000000000000000000000000000000000000000000000000000000000000007f000000000000000000000000000000000000000000000000000000000000000061282c565b610fe6919061282c565b610ff09190612818565b6001600160a01b03831690612088565b6110e0565b6003546001600160a01b031633141561107c576004805460ff60a81b1916600160a81b1790556110006064600a610fdc7f00000000000000000000000000000000000000000000000000000000000000007f000000000000000000000000000000000000000000000000000000000000000061282c565b6004805460ff60b01b1916600160b01b1790556110e060646005610fdc7f00000000000000000000000000000000000000000000000000000000000000007f000000000000000000000000000000000000000000000000000000000000000061282c565b7f09f058359c5a4d11027ce8027f5f0f4df210cb3ebac92f2c584170ed78624dd83360405161110f9190612768565b60405180910390a150565b336111236111f0565b6001600160a01b0316146111495760405162461bcd60e51b81526004016101e5906127cb565b600080546040516001600160a01b039091169060008051602061291d833981519152908390a3600080546001600160a01b0319169055565b6001818154811061119157600080fd5b6000918252602090912001546001600160a01b0316905081565b60025460009061010090046001600160a01b03163314806111d657506003546001600160a01b031633145b806111eb57506004546001600160a01b031633145b905090565b6000546001600160a01b031690565b611207611cad565b1561126e5760405162461bcd60e51b815260206004820152603160248201527f43616e6e6f742077697468647261772066726f6d2044414f2c2067616d652068604482015270185cc81899595b8818d85b98d95b1b1959607a1b60648201526084016101e5565b7f00000000000000000000000000000000000000000000000000000000000000006001600160a01b03166338af3eed6040518163ffffffff1660e01b815260040160206040518083038186803b1580156112c757600080fd5b505afa1580156112db573d6000803e3d6000fd5b505050506040513d601f19601f820116820180604052508101906112ff919061260d565b6001600160a01b0316336001600160a01b0316146113715760405162461bcd60e51b815260206004820152602960248201527f43616e6e6f742077697468647261772066726f6d2044414f2c206e6f742062656044820152686e656669636961727960b81b60648201526084016101e5565b60025460ff166113db5760405162461bcd60e51b815260206004820152602f60248201527f43616e6e6f742077697468647261772064616f2066756e642c2067616d65206960448201526e1cc81b9bdd0818dbdb5c1b195d1959608a1b60648201526084016101e5565b60007f00000000000000000000000000000000000000000000000000000000000000006001600160a01b031631116114755760405162461bcd60e51b815260206004820152603760248201527f43616e6e6f742077697468647261772066726f6d2044414f2066756e642c20446044820152761053c8199d5b9908185b1c9958591e4818db185a5b5959604a1b60648201526084016101e5565b7f00000000000000000000000000000000000000000000000000000000000000006001600160a01b0316639af6549a6040518163ffffffff1660e01b8152600401600060405180830381600087803b1580156114d057600080fd5b505af11580156114e4573d6000803e3d6000fd5b505050507fcb521d22cc2e41947c2b6ccfda03178961b692e976ca005baacd005317856b1d33604051610c5d9190612768565b60025460009060ff161561154a57507f000000000000000000000000000000000000000000000000000000000000000090565b5060015490565b7f000000000000000000000000000000000000000000000000000000000000000034146115ba5760405162461bcd60e51b8152602060048201526017602482015276125b9d985b1a5908185b5bdd5b9d081c9958d95a5d9959604a1b60448201526064016101e5565b60025460ff16156115ff5760405162461bcd60e51b815260206004820152600f60248201526e47616d652068617320656e6465642160881b60448201526064016101e5565b6040516371d4ed8d60e11b81526001600160a01b037f0000000000000000000000000000000000000000000000000000000000000000169063e3a9db1a9061164b903390600401612768565b60206040518083038186803b15801561166357600080fd5b505afa158015611677573d6000803e3d6000fd5b505050506040513d601f19601f8201168201806040525081019061169b9190612702565b156116da5760405162461bcd60e51b815260206004820152600f60248201526e105b1c9958591e48115b9d195c9959608a1b60448201526064016101e5565b7f0000000000000000000000000000000000000000000000000000000000000000600754146117605760405162461bcd60e51b815260206004820152602c60248201527f526571756972656420656e646f7273657273206e6f74206d65742c2067616d6560448201526b081b9bdd081cdd185c9d195960a21b60648201526084016101e5565b60007f000000000000000000000000000000000000000000000000000000000000000061178b575060055b6001805480820182556000919091527fb10e2d527612073b26eecdfd717e6a320cf44b4afac2b0732d9fcbe2b7fa0cf60180546001600160a01b031916331790557f00000000000000000000000000000000000000000000000000000000000000006001600160a01b031663f340fa01606461180884603c612800565b611812903461282c565b61181c9190612818565b336040518363ffffffff1660e01b81526004016118399190612768565b6000604051808303818588803b15801561185257600080fd5b505af1158015611866573d6000803e3d6000fd5b50505050507f00000000000000000000000000000000000000000000000000000000000000006001600160a01b031663f340fa01606483603c6118a99190612800565b6118b490606461284b565b6118be903461282c565b6118c89190612818565b336040518363ffffffff1660e01b81526004016118e59190612768565b6000604051808303818588803b1580156118fe57600080fd5b505af1158015611912573d6000803e3d6000fd5b505060055460405163e66a1ab160e01b8152336004820152606060248201526000606482018190527f0000000000000000000000000000000000000000000000000000000000000000604483015294506001600160a01b03909116925063e66a1ab19150608401602060405180830381600087803b15801561199357600080fd5b505af11580156119a7573d6000803e3d6000fd5b505050506040513d601f19601f820116820180604052508101906119cb9190612702565b90507fb198f199c43cc078ad46e5a5fabe03eba401f7417816c86af0bd2e7345c9950633826040516119fe92919061277c565b60405180910390a16006546040516001600160601b03193060601b1660208201526001600160a01b0390911690633f18c9a59060340160408051601f198184030181528282527f000000000000000000000000000000000000000000000000000000000000000060208401529101604051602081830303815290604052346040518463ffffffff1660e01b8152600401611a9a93929190612795565b600060405180830381600087803b158015611ab457600080fd5b505af1158015611ac8573d6000803e3d6000fd5b50506001547f000000000000000000000000000000000000000000000000000000000000000014159150611b0d9050576002805460ff19166001179055611b0d6121a3565b5050565b611b19611cad565b611b7e5760405162461bcd60e51b815260206004820152603060248201527f43616e6e6f7420726566756e6420656e646f7273656d656e742c2067616d652060448201526f1a5cc81b9bdd0818d85b98d95b1b195960821b60648201526084016101e5565b33600090815260086020526040902054611bec5760405162461bcd60e51b815260206004820152602960248201527f4e6f7420616e20656e646f72736572206f7220616c726561647920636c61696d6044820152681959081c99599d5b9960ba1b60648201526084016101e5565b3360008181526008602052604080822080549290556005549051632142170760e11b815230600482015260248101939093526044830182905290916001600160a01b039091169081906342842e0e90606401600060405180830381600087803b158015611c5857600080fd5b505af1158015611c6c573d6000803e3d6000fd5b505050507fd5ac6307b44f6b4d642c21fe19ab8d191a20a68eaf085cdfc26ca5ebba10e6a13383604051611ca192919061277c565b60405180910390a15050565b600060017f00000000000000000000000000000000000000000000000000000000000000006001600160a01b031663c19d93fb6040518163ffffffff1660e01b815260040160206040518083038186803b158015611d0a57600080fd5b505afa158015611d1e573d6000803e3d6000fd5b505050506040513d601f19601f82011682018060405250810190611d4291906126c8565b6002811115611d5357611d536128a2565b14905090565b60025460ff16611dcd5760405162461bcd60e51b815260206004820152603960248201527f43616e6e6f7420636c61696d20656e646f7273656d656e7420666565206966206044820152781d1a194819d85b59481a5cc81b9bdd0818dbdb5c1b195d1959603a1b60648201526084016101e5565b60007f000000000000000000000000000000000000000000000000000000000000000011611e535760405162461bcd60e51b815260206004820152602d60248201527f546865726520617265206e6f20726571756972656420656e646f72736572732060448201526c666f7220746869732067616d6560981b60648201526084016101e5565b33600090815260086020526040902054611ed55760405162461bcd60e51b815260206004820152603e60248201527f43616e6e6f7420636c61696d20656e646f7273656d656e74206665652062656360448201527f617573652073656e646572206973206e6f7420616e20656e646f72736572000060648201526084016101e5565b3360007f000000000000000000000000000000000000000000000000000000000000000060646005611f477f00000000000000000000000000000000000000000000000000000000000000007f000000000000000000000000000000000000000000000000000000000000000061282c565b611f51919061282c565b611f5b9190612818565b611f659190612818565b9050611f7a6001600160a01b03831682612088565b7f7a10dc0e616dab082dec16c066cf08dca1a814e025df12b69253b7077fc9b76d3382604051611ca192919061277c565b33611fb46111f0565b6001600160a01b031614611fda5760405162461bcd60e51b81526004016101e5906127cb565b6001600160a01b03811661203f5760405162461bcd60e51b815260206004820152602660248201527f4f776e61626c653a206e6577206f776e657220697320746865207a65726f206160448201526564647265737360d01b60648201526084016101e5565b600080546040516001600160a01b038085169392169160008051602061291d83398151915291a3600080546001600160a01b0319166001600160a01b0392909216919091179055565b804710156120d85760405162461bcd60e51b815260206004820152601d60248201527f416464726573733a20696e73756666696369656e742062616c616e636500000060448201526064016101e5565b6000826001600160a01b03168260405160006040518083038185875af1925050503d8060008114612125576040519150601f19603f3d011682016040523d82523d6000602084013e61212a565b606091505b505090508061219e5760405162461bcd60e51b815260206004820152603a60248201527f416464726573733a20756e61626c6520746f2073656e642076616c75652c20726044820152791958da5c1a595b9d081b585e481a185d99481c995d995c9d195960321b60648201526084016101e5565b505050565b60025460ff166121ec5760405162461bcd60e51b815260206004820152601460248201527347616d65206973206e6f7420636f6d706c65746560601b60448201526064016101e5565b7f00000000000000000000000000000000000000000000000000000000000000006001600160a01b03166343d726d66040518163ffffffff1660e01b8152600401600060405180830381600087803b15801561224757600080fd5b505af115801561225b573d6000803e3d6000fd5b505050507f00000000000000000000000000000000000000000000000000000000000000006001600160a01b03166343d726d66040518163ffffffff1660e01b8152600401600060405180830381600087803b1580156122ba57600080fd5b505af11580156122ce573d6000803e3d6000fd5b505050507f00000000000000000000000000000000000000000000000000000000000000006001600160a01b0316639af6549a6040518163ffffffff1660e01b8152600401600060405180830381600087803b15801561232d57600080fd5b505af1158015612341573d6000803e3d6000fd5b50505050600061234f61249e565b905061236961236460018054905083446124bd565b612509565b600280546001600160a01b039290921661010002610100600160a81b03199092169190911790556001546123a2906123649083426124bd565b600380546001600160a01b0319166001600160a01b03929092169190911790556001546123d590612364908360006124bd565b600480546001600160a01b0319166001600160a01b0392831617815560055460408051624d699f60e81b815290519190931692634d699f00928181019260009290919082900301818387803b15801561242d57600080fd5b505af1158015612441573d6000803e3d6000fd5b5050600254600354600454604080516101009094046001600160a01b03908116855292831660208501529116908201527f15d257b91b144902b272fec7302c18e20e02e8199fcd6189b64447b87180c3379250606001905061110f565b60008060405160208160208460ff600019fa6124b657fe5b5192915050565b60008083836040516020016124dc929190918252602082015260400190565b60408051601f19818403018152919052805160209091012090506125008582612862565b95945050505050565b60006001828154811061251e5761251e6128ce565b600091825260209091200154600180546001600160a01b0390921692509061254790829061284b565b81548110612557576125576128ce565b600091825260209091200154600180546001600160a01b039092169184908110612583576125836128ce565b9060005260206000200160006101000a8154816001600160a01b0302191690836001600160a01b0316021790555060018054806125c2576125c26128b8565b600082815260209020810160001990810180546001600160a01b0319169055019055919050565b6000602082840312156125fb57600080fd5b8135612606816128e4565b9392505050565b60006020828403121561261f57600080fd5b8151612606816128e4565b60008060008060006080868803121561264257600080fd5b853561264d816128e4565b9450602086013561265d816128e4565b93506040860135925060608601356001600160401b038082111561268057600080fd5b818801915088601f83011261269457600080fd5b8135818111156126a357600080fd5b8960208285010111156126b557600080fd5b9699959850939650602001949392505050565b6000602082840312156126da57600080fd5b81516003811061260657600080fd5b6000602082840312156126fb57600080fd5b5035919050565b60006020828403121561271457600080fd5b5051919050565b6000815180845260005b8181101561274157602081850181015186830182015201612725565b81811115612753576000602083870101525b50601f01601f19169290920160200192915050565b6001600160a01b0391909116815260200190565b6001600160a01b03929092168252602082015260400190565b6060815260006127a8606083018661271b565b82810360208401526127ba818661271b565b915050826040830152949350505050565b6020808252818101527f4f776e61626c653a2063616c6c6572206973206e6f7420746865206f776e6572604082015260600190565b6000821982111561281357612813612876565b500190565b6000826128275761282761288c565b500490565b600081600019048311821515161561284657612846612876565b500290565b60008282101561285d5761285d612876565b500390565b6000826128715761287161288c565b500690565b634e487b7160e01b600052601160045260246000fd5b634e487b7160e01b600052601260045260246000fd5b634e487b7160e01b600052602160045260246000fd5b634e487b7160e01b600052603160045260246000fd5b634e487b7160e01b600052603260045260246000fd5b6001600160a01b03811681146128f957600080fd5b5056fe63616e6e6f7420726563656976652066756e64732065787465726e616c6c79208be0079c531659141344cd1fd0a4f28419497f9722a3daafe3b4186f6b6457e0a264697066735822122028567d9b3823908e059bbaee11c6df0e34dd909b60743792c25dc54c4c43780c64736f6c6343000806003360a060405234801561001057600080fd5b50604051610bfd380380610bfd83398101604081905261002f916100ff565b600080546001600160a01b031916339081178255604051909182917f8be0079c531659141344cd1fd0a4f28419497f9722a3daafe3b4186f6b6457e0908290a3506001600160a01b0381166100e05760405162461bcd60e51b815260206004820152602d60248201527f526566756e64457363726f773a2062656e65666963696172792069732074686560448201526c207a65726f206164647265737360981b606482015260840160405180910390fd5b60601b6001600160601b0319166080526002805460ff1916905561012f565b60006020828403121561011157600080fd5b81516001600160a01b038116811461012857600080fd5b9392505050565b60805160601c610ab061014d60003960006102220152610ab06000f3fe6080604052600436106100975760003560e01c806338af3eed1461009c57806343d726d6146100ce57806351cff8d9146100e5578063685ca19414610105578063715018a6146101355780638c52dc411461014a5780638da5cb5b1461015f5780639af6549a14610174578063c19d93fb14610189578063e3a9db1a146101a9578063f2fde38b146101ed578063f340fa011461020d575b600080fd5b3480156100a857600080fd5b506100b1610220565b6040516001600160a01b0390911681526020015b60405180910390f35b3480156100da57600080fd5b506100e3610244565b005b3480156100f157600080fd5b506100e3610100366004610988565b61032b565b34801561011157600080fd5b50610125610120366004610988565b6103a8565b60405190151581526020016100c5565b34801561014157600080fd5b506100e36103ca565b34801561015657600080fd5b506100e3610431565b34801561016b57600080fd5b506100b1610519565b34801561018057600080fd5b506100e3610528565b34801561019557600080fd5b5060025460ff166040516100c591906109ac565b3480156101b557600080fd5b506101df6101c4366004610988565b6001600160a01b031660009081526001602052604090205490565b6040519081526020016100c5565b3480156101f957600080fd5b506100e3610208366004610988565b6105cb565b6100e361021b366004610988565b6106a8565b7f000000000000000000000000000000000000000000000000000000000000000090565b3361024d610519565b6001600160a01b03161461027c5760405162461bcd60e51b8152600401610273906109d4565b60405180910390fd5b600060025460ff16600281111561029557610295610a2f565b146102f45760405162461bcd60e51b815260206004820152602960248201527f526566756e64457363726f773a2063616e206f6e6c7920636c6f7365207768696044820152686c652061637469766560b81b6064820152608401610273565b6002805460ff1916811790556040517f088672c3a6e342f7cd94a65ba63b79df24a8973927b4d05d803c44bbf787d12f90600090a1565b610334816103a8565b61039c5760405162461bcd60e51b815260206004820152603360248201527f436f6e646974696f6e616c457363726f773a207061796565206973206e6f7420604482015272616c6c6f77656420746f20776974686472617760681b6064820152608401610273565b6103a58161072b565b50565b6000600160025460ff1660028111156103c3576103c3610a2f565b1492915050565b336103d3610519565b6001600160a01b0316146103f95760405162461bcd60e51b8152600401610273906109d4565b600080546040516001600160a01b0390911690600080516020610a5b833981519152908390a3600080546001600160a01b0319169055565b3361043a610519565b6001600160a01b0316146104605760405162461bcd60e51b8152600401610273906109d4565b600060025460ff16600281111561047957610479610a2f565b146104e15760405162461bcd60e51b815260206004820152603260248201527f526566756e64457363726f773a2063616e206f6e6c7920656e61626c6520726560448201527166756e6473207768696c652061637469766560701b6064820152608401610273565b6002805460ff191660011790556040517f599d8e5a83cffb867d051598c4d70e805d59802d8081c1c7d6dffc5b6aca2b8990600090a1565b6000546001600160a01b031690565b6002805460ff16600281111561054057610540610a2f565b146105ae5760405162461bcd60e51b815260206004820152603860248201527f526566756e64457363726f773a2062656e65666963696172792063616e206f6e6044820152771b1e481dda5d1a191c985dc81dda1a5b194818db1bdcd95960421b6064820152608401610273565b6105c9476105ba610220565b6001600160a01b0316906107c9565b565b336105d4610519565b6001600160a01b0316146105fa5760405162461bcd60e51b8152600401610273906109d4565b6001600160a01b03811661065f5760405162461bcd60e51b815260206004820152602660248201527f4f776e61626c653a206e6577206f776e657220697320746865207a65726f206160448201526564647265737360d01b6064820152608401610273565b600080546040516001600160a01b0380851693921691600080516020610a5b83398151915291a3600080546001600160a01b0319166001600160a01b0392909216919091179055565b600060025460ff1660028111156106c1576106c1610a2f565b146107225760405162461bcd60e51b815260206004820152602b60248201527f526566756e64457363726f773a2063616e206f6e6c79206465706f736974207760448201526a68696c652061637469766560a81b6064820152608401610273565b6103a5816108e4565b33610734610519565b6001600160a01b03161461075a5760405162461bcd60e51b8152600401610273906109d4565b6001600160a01b038116600081815260016020526040812080549190559061078290826107c9565b816001600160a01b03167f7084f5476618d8e60b11ef0d7d3f06914655adb8793e28ff7f018d4c76d505d5826040516107bd91815260200190565b60405180910390a25050565b804710156108195760405162461bcd60e51b815260206004820152601d60248201527f416464726573733a20696e73756666696369656e742062616c616e63650000006044820152606401610273565b6000826001600160a01b03168260405160006040518083038185875af1925050503d8060008114610866576040519150601f19603f3d011682016040523d82523d6000602084013e61086b565b606091505b50509050806108df5760405162461bcd60e51b815260206004820152603a60248201527f416464726573733a20756e61626c6520746f2073656e642076616c75652c20726044820152791958da5c1a595b9d081b585e481a185d99481c995d995c9d195960321b6064820152608401610273565b505050565b336108ed610519565b6001600160a01b0316146109135760405162461bcd60e51b8152600401610273906109d4565b6001600160a01b0381166000908152600160205260409020543490610939908290610a09565b6001600160a01b038316600081815260016020526040908190209290925590517f2da466a7b24304f47e87fa2e1e5a81b9831ce54fec19055ce277ca2f39ba42c4906107bd9084815260200190565b60006020828403121561099a57600080fd5b81356109a581610a45565b9392505050565b60208101600383106109ce57634e487b7160e01b600052602160045260246000fd5b91905290565b6020808252818101527f4f776e61626c653a2063616c6c6572206973206e6f7420746865206f776e6572604082015260600190565b60008219821115610a2a57634e487b7160e01b600052601160045260246000fd5b500190565b634e487b7160e01b600052602160045260246000fd5b6001600160a01b03811681146103a557600080fdfe8be0079c531659141344cd1fd0a4f28419497f9722a3daafe3b4186f6b6457e0a2646970667358221220d7a9c97dcf6583e28e354922d4613415acfbb9b8194dd3af5a299b2da7e8509d64736f6c634300080600338be0079c531659141344cd1fd0a4f28419497f9722a3daafe3b4186f6b6457e0ddf252ad1be2c89b69c2b068fc378daa952ba7f163c4a11628f55a4df523b3efa26469706673582212206353fb18f3f1acd334d1cffdaaabb81ef0d213eb3c991ba4297d78c52fe1107f64736f6c63430008060033608060405234801561001057600080fd5b50600080546001600160a01b031916339081178255604051909182917f8be0079c531659141344cd1fd0a4f28419497f9722a3daafe3b4186f6b6457e0908290a350611542806100616000396000f3fe608060405234801561001057600080fd5b50600436106100f15760003560e01c80630222813e146100f65780630ae5e739146101115780633d1d4bcb146101265780633f18c9a51461014a57806346502d941461015d5780634ddcbfcc146101705780634e75e1aa146101835780635a8474bb146101ab578063715018a6146101be57806376608c7f146101c657806385e68531146101d95780638da5cb5b146101ec5780639cde15221461020c578063cdf314321461021f578063d6ca019814610232578063e4d235d114610245578063f1e626c314610258578063f2fde38b1461026b578063fef201f31461027e575b600080fd5b6100fe610286565b6040519081526020015b60405180910390f35b61012461011f366004611062565b610296565b005b610139610134366004611092565b6102f5565b604051610108959493929190611363565b610124610158366004611131565b610320565b61013961016b3660046111e1565b610394565b61012461017e36600461119d565b61060f565b6101966101913660046110ce565b610680565b60408051928352602083019190915201610108565b6101246101b93660046111e1565b6106a0565b61012461070e565b6101246101d436600461119d565b610775565b6101246101e7366004611062565b6107ca565b6101f461081a565b6040516001600160a01b039091168152602001610108565b6100fe61021a3660046111e1565b610829565b61012461022d3660046111e1565b61085c565b610196610240366004611236565b6108b3565b610124610253366004611131565b61092c565b6101396102663660046111fa565b610982565b610124610279366004611062565b610c21565b610139610cfe565b600061029142610829565b905090565b3361029f61081a565b6001600160a01b0316146102ce5760405162461bcd60e51b81526004016102c59061132e565b60405180910390fd5b6001600160a01b03166000908152600160208190526040909120805460ff19169091179055565b600080606080606061030e610308610286565b87610982565b939a9299509097509550909350915050565b3360009081526001602052604090205460ff168061034d57503361034261081a565b6001600160a01b0316145b6103695760405162461bcd60e51b81526004016102c5906112f9565b6000610373610286565b905061038181858585610d22565b61038e6000858585610d22565b50505050565b6000806060808083866103a9575060026103b9565b5060008681526009602052604090205b806002015495508060030154945080600401805480602002602001604051908101604052809291908181526020016000905b8282101561049757838290600052602060002001805461040a90611454565b80601f016020809104026020016040519081016040528092919081815260200182805461043690611454565b80156104835780601f1061045857610100808354040283529160200191610483565b820191906000526020600020905b81548152906001019060200180831161046657829003601f168201915b5050505050815260200190600101906103eb565b505050509150600082516001600160401b038111156104b8576104b86114d6565b6040519080825280602002602001820160405280156104e1578160200160208202803683370190505b509050600083516001600160401b038111156104ff576104ff6114d6565b604051908082528060200260200182016040528015610528578160200160208202803683370190505b50905060005b84518110156105fe578360050185828151811061054d5761054d6114c0565b602002602001015160405161056291906112dd565b908152602001604051809103902060000154838281518110610586576105866114c0565b602002602001018181525050836005018582815181106105a8576105a86114c0565b60200260200101516040516105bd91906112dd565b9081526020016040518091039020600101548282815181106105e1576105e16114c0565b6020908102919091010152806105f68161148f565b91505061052e565b509698959750959491935090915050565b3360009081526001602052604090205460ff168061063c57503361063161081a565b6001600160a01b0316145b6106585760405162461bcd60e51b81526004016102c5906112f9565b6000610662610286565b905061066f818484610e0c565b61067b60008484610e0c565b505050565b60008061069561068e610286565b85856108b3565b915091509250929050565b3360009081526001602052604090205460ff16806106cd5750336106c261081a565b6001600160a01b0316145b6106e95760405162461bcd60e51b81526004016102c5906112f9565b60006106f3610286565b90506106ff8183610ec8565b61070a600083610ec8565b5050565b3361071761081a565b6001600160a01b03161461073d5760405162461bcd60e51b81526004016102c59061132e565b600080546040516001600160a01b03909116906000805160206114ed833981519152908390a3600080546001600160a01b0319169055565b3360009081526001602052604090205460ff16806107a257503361079761081a565b6001600160a01b0316145b6107be5760405162461bcd60e51b81526004016102c5906112f9565b61070a60008383610e0c565b336107d361081a565b6001600160a01b0316146107f95760405162461bcd60e51b81526004016102c59061132e565b6001600160a01b03166000908152600160205260409020805460ff19169055565b6000546001600160a01b031690565b600060405162461bcd60e51b81526004016102c590602080825260049082015263746f646f60e01b604082015260600190565b3360009081526001602052604090205460ff168061088957503361087e61081a565b6001600160a01b0316145b6108a55760405162461bcd60e51b81526004016102c5906112f9565b6108b0600082610ec8565b50565b60008080856108c4575060026108d4565b5060008581526009602052604090205b600081600501866040516108e891906112dd565b90815260200160405180910390206003018560405161090791906112dd565b9081526040519081900360200190208054600190910154909890975095505050505050565b3360009081526001602052604090205460ff168061095957503361094e61081a565b6001600160a01b0316145b6109755760405162461bcd60e51b81526004016102c5906112f9565b61067b6000848484610d22565b600080606080808387610997575060026109a7565b5060008781526009602052604090205b600081600501886040516109bb91906112dd565b90815260200160405180910390209050806000015496508060010154955080600201805480602002602001604051908101604052809291908181526020016000905b82821015610aa9578382906000526020600020018054610a1c90611454565b80601f0160208091040260200160405190810160405280929190818152602001828054610a4890611454565b8015610a955780601f10610a6a57610100808354040283529160200191610a95565b820191906000526020600020905b815481529060010190602001808311610a7857829003601f168201915b5050505050815260200190600101906109fd565b505050509250600083516001600160401b03811115610aca57610aca6114d6565b604051908082528060200260200182016040528015610af3578160200160208202803683370190505b509050600084516001600160401b03811115610b1157610b116114d6565b604051908082528060200260200182016040528015610b3a578160200160208202803683370190505b50905060005b8551811015610c105783600301868281518110610b5f57610b5f6114c0565b6020026020010151604051610b7491906112dd565b908152602001604051809103902060000154838281518110610b9857610b986114c0565b60200260200101818152505083600301868281518110610bba57610bba6114c0565b6020026020010151604051610bcf91906112dd565b908152602001604051809103902060010154828281518110610bf357610bf36114c0565b602090810291909101015280610c088161148f565b915050610b40565b50979a969950975091949350505050565b33610c2a61081a565b6001600160a01b031614610c505760405162461bcd60e51b81526004016102c59061132e565b6001600160a01b038116610cb55760405162461bcd60e51b815260206004820152602660248201527f4f776e61626c653a206e6577206f776e657220697320746865207a65726f206160448201526564647265737360d01b60648201526084016102c5565b600080546040516001600160a01b03808516939216916000805160206114ed83398151915291a3600080546001600160a01b0319166001600160a01b0392909216919091179055565b6000806060806060610d1161016b610286565b945094509450945094509091929394565b610d2d848483610e0c565b600084610d3c57506002610d47565b610d44610f1c565b90505b60008160050185604051610d5b91906112dd565b9081526020016040518091039020905060008160030185604051610d7f91906112dd565b9081526040805160209281900383018120818301909252815481526001909101549181018290529150610dd95760028201805460018101825560009182526020918290208751610dd793919092019190880190610f3d565b505b600181602001818151610dec9190611410565b905250805184908290610e00908390611410565b90525050505050505050565b610e168382610ec8565b600083610e2557506002610e30565b610e2d610f1c565b90505b60008160050184604051610e4491906112dd565b90815260200160405180910390209050806001015460001415610e8e5760048201805460018101825560009182526020918290208651610e8c93919092019190870190610f3d565b505b6001816001016000828254610ea39190611410565b9091555050805483908290600090610ebc908490611410565b90915550505050505050565b600082610ed757506002610ee2565b610edf610f1c565b90505b6001816003016000828254610ef79190611410565b9250508190555081816002016000828254610f129190611410565b9091555050505050565b600060096000610f2a610286565b8152602001908152602001600020905090565b828054610f4990611454565b90600052602060002090601f016020900481019282610f6b5760008555610fb1565b82601f10610f8457805160ff1916838001178555610fb1565b82800160010185558215610fb1579182015b82811115610fb1578251825591602001919060010190610f96565b50610fbd929150610fc1565b5090565b5b80821115610fbd5760008155600101610fc2565b600082601f830112610fe757600080fd5b81356001600160401b0380821115611001576110016114d6565b604051601f8301601f19908116603f01168101908282118183101715611029576110296114d6565b8160405283815286602085880101111561104257600080fd5b836020870160208301376000602085830101528094505050505092915050565b60006020828403121561107457600080fd5b81356001600160a01b038116811461108b57600080fd5b9392505050565b6000602082840312156110a457600080fd5b81356001600160401b038111156110ba57600080fd5b6110c684828501610fd6565b949350505050565b600080604083850312156110e157600080fd5b82356001600160401b03808211156110f857600080fd5b61110486838701610fd6565b9350602085013591508082111561111a57600080fd5b5061112785828601610fd6565b9150509250929050565b60008060006060848603121561114657600080fd5b83356001600160401b038082111561115d57600080fd5b61116987838801610fd6565b9450602086013591508082111561117f57600080fd5b5061118c86828701610fd6565b925050604084013590509250925092565b600080604083850312156111b057600080fd5b82356001600160401b038111156111c657600080fd5b6111d285828601610fd6565b95602094909401359450505050565b6000602082840312156111f357600080fd5b5035919050565b6000806040838503121561120d57600080fd5b8235915060208301356001600160401b0381111561122a57600080fd5b61112785828601610fd6565b60008060006060848603121561124b57600080fd5b8335925060208401356001600160401b038082111561126957600080fd5b61127587838801610fd6565b9350604086013591508082111561128b57600080fd5b5061129886828701610fd6565b9150509250925092565b600081518084526020808501945080840160005b838110156112d2578151875295820195908201906001016112b6565b509495945050505050565b600082516112ef818460208701611428565b9190910192915050565b6020808252818101527f43616e6e6f7420616363657373207265706f7274696e672066756e6374696f6e604082015260600190565b6020808252818101527f4f776e61626c653a2063616c6c6572206973206e6f7420746865206f776e6572604082015260600190565b85815260006020868184015260a0604084015261138360a08401876112a2565b838103606085015261139581876112a2565b905083810360808501528085518083528383019150838160051b84010184880160005b838110156113fe57601f1980878503018652825180518086526113e0818b88018c8501611428565b96890196601f019091169390930187019250908601906001016113b8565b50909c9b505050505050505050505050565b60008219821115611423576114236114aa565b500190565b60005b8381101561144357818101518382015260200161142b565b8381111561038e5750506000910152565b600181811c9082168061146857607f821691505b6020821081141561148957634e487b7160e01b600052602260045260246000fd5b50919050565b60006000198214156114a3576114a36114aa565b5060010190565b634e487b7160e01b600052601160045260246000fd5b634e487b7160e01b600052603260045260246000fd5b634e487b7160e01b600052604160045260246000fdfe8be0079c531659141344cd1fd0a4f28419497f9722a3daafe3b4186f6b6457e0a26469706673582212200b74ae6c7c4047d9e364929eab0415640898218cdb7eabc37ce0ec62aa13782664736f6c63430008060033",
  "immutableReferences": {},
  "source": "// contracts/GameItem.sol\n// SPDX-License-Identifier: MIT\npragma solidity ^0.8.0;\n\nimport \"@openzeppelin/contracts/access/Ownable.sol\";\nimport \"@openzeppelin/contracts/token/ERC721/ERC721.sol\";\nimport \"@openzeppelin/contracts/token/ERC721/extensions/ERC721URIStorage.sol\";\nimport \"@openzeppelin/contracts/token/ERC721/IERC721Receiver.sol\";\nimport \"@openzeppelin/contracts/token/ERC721/IERC721.sol\";\nimport \"@openzeppelin/contracts/utils/Counters.sol\";\nimport \"./SocialGame.sol\";\nimport \"./ISocialGameToken.sol\";\nimport \"./reports/Report.sol\";\n\n/**\n * @title Social Change Game Token\n * @notice Smart Contract developed for the Harmony One Round 2 Hackathon on Gitcoin\n * @dev Contract that represents entries in the game as NFTs. Note a single token contract\n * is deployed. We track the game by its game-id and game address. Tokens of active games\n * cannot be transferred. Once a game is completed, the NFT can be used to represent the\n * participation of an address in the Social Game and can be transferred to others\n *\n * Intended usage: Track the tickets issued for all Social Change Games and act as a factory\n * to create SocialGames. SHMT tokens represent a badge of honor for how much donations were\n * made\n *\n * @author victaphu\n */\ncontract SocialGameToken is\n    ERC721URIStorage,\n    ISocialGameToken,\n    IERC721Receiver,\n    Ownable\n{\n    using Counters for Counters.Counter;\n\n    event GameCreated(address SocialGame, uint256 gameId);\n\n    uint256 public constant MAX_ENDORSERS = 20;\n    uint256 public constant DEFAULT_PLAYERS = 100;\n    uint256 public constant DEFAULT_ENTRY_COST = 1 ether;\n\n    Counters.Counter private _tokenIds;\n    Counters.Counter private _gameIds;\n\n    // mapping of social game contract address to game id\n    mapping(address => uint256) private _socialGameIds;\n\n    // mapping of game id to active status, true for active, false for inactive\n    mapping(uint256 => bool) private _gameStatus;\n\n    // mapping of token id to game id\n    mapping(uint256 => uint256) private _tokenToGameId;\n\n    struct ERC721Details {\n        address from;\n        uint256 tokenId;\n        address erc721Address;\n    }\n\n    // mapping of game to external erc721 token\n    mapping(uint256 => ERC721Details) private _extensionERC721Token;\n\n    // onchain reporting of events that happen\n    Report private _reporting;\n\n    constructor() ERC721(\"SocialHarmonyToken\", \"SHMT\") {\n        _reporting = new Report();\n    }\n\n    function createSocialGame(\n        address operator,\n        address payable beneficiary_,\n        uint256 participants_,\n        uint256 pricePerRound_\n    ) public returns (uint256 gameId_) {\n        gameId_ = createSocialGame(\n            operator,\n            beneficiary_,\n            participants_,\n            pricePerRound_,\n            MAX_ENDORSERS\n        );\n    }\n\n    function createSocialGame(\n        address operator,\n        address payable beneficiary_,\n        uint256 participants_,\n        uint256 pricePerRound_,\n        uint256 totalEndorsers\n    ) public returns (uint256 gameId_) {\n        // return new instance of social game, transferring ownership\n\n        if (_gameIds.current() == 0) {\n            require(\n                operator == owner(),\n                \"Game start can only be called by owner\"\n            );\n            totalEndorsers = 0;\n        }\n        _gameIds.increment();\n        gameId_ = _gameIds.current();\n        SocialGame game = new SocialGame(\n            beneficiary_,\n            participants_,\n            pricePerRound_,\n            gameId_,\n            totalEndorsers,\n            address(this),\n            address(_reporting)\n        );\n        game.transferOwnership(operator);\n        _socialGameIds[address(game)] = gameId_;\n        _gameStatus[game.gameId()] = true;\n        _reporting.grantAccess(address(game));\n\n        emit GameCreated(address(game), gameId_);\n    }\n\n    /**\n     * @dev this function mints an NFT for a given player using the token URI and the\n     * game id. It represents a single entry in a given social game. This function can only\n     * be called by the SocialGame with the corresponding game id (initialised using {createSocialGame})\n     *\n     * Requirements - caller must own the game id\n     */\n    function enterGame(\n        address player,\n        string memory tokenURI_,\n        uint256 gameId\n    ) external override returns (uint256 ticket_) {\n        require(_socialGameIds[msg.sender] > 0, \"Game not valid\");\n        require(\n            _socialGameIds[msg.sender] == gameId,\n            \"Cannot register player as the game id is not owned\"\n        );\n        _tokenIds.increment();\n\n        ticket_ = _tokenIds.current();\n        _mint(player, ticket_); // use safe mint ...\n        _setTokenURI(ticket_, tokenURI_);\n        _tokenToGameId[ticket_] = gameId;\n    }\n\n    /**\n     * @dev called when a social game has completed. This is called by the\n     * social game itself to flag that the game has completed.\n     *\n     * Requirement - game must be currently active, and the caller must own a game\n     */\n    function gameCompleted() external override {\n        uint256 gameId = _socialGameIds[msg.sender];\n        require(gameId > 0, \"Not an active game\");\n        require(_gameStatus[gameId] == true, \"Game is not active\");\n        _reporting.revokeAccess(msg.sender);\n        _gameStatus[gameId] = false;\n        // once a game is completed the user can transfer the nft\n\n        if (_extensionERC721Token[gameId].tokenId > 0) {\n            // token id exists, lets transfer the token back to the sender\n            ERC721Details memory details = _extensionERC721Token[gameId];\n            IERC721 wrapped = IERC721(details.erc721Address);\n            wrapped.safeTransferFrom(\n                address(this),\n                details.from,\n                details.tokenId\n            );\n            // clear the details to get back some gas refund\n            _extensionERC721Token[gameId] = ERC721Details(\n                address(0x0),\n                0,\n                address(0x0)\n            );\n        }\n    }\n\n    /**\n     * @dev Prevent transfers until the game has completed. we will know the game the token belongs to\n     * by looking up its mapping.\n     */\n    function _beforeTokenTransfer(\n        address from,\n        address to,\n        uint256 tokenId\n    ) internal view override {\n        if (from == address(0)) {\n            return; // we are minting the token\n        }\n\n        require(_tokenToGameId[tokenId] > 0, \"Invalid Token Id\");\n        require(\n            _gameStatus[_tokenToGameId[tokenId]] == false,\n            \"Cannot transfer tokens when game is still active\"\n        );\n    }\n\n    /**\n     * https://ethereum.stackexchange.com/questions/49185/solidity-conversion-bytes-memory-to-uint\n     * convert bytes to uint256\n     */\n    function sliceUint(bytes memory bs, uint256 start)\n        internal\n        pure\n        returns (uint256)\n    {\n        require(bs.length >= start + 32, \"slicing out of range\");\n        uint256 x;\n        assembly {\n            x := mload(add(bs, add(0x20, start)))\n        }\n        return x;\n    }\n\n    /**\n     * @dev transfer an ERC721 token through safeTransferFrom to the SocialGameToken address to setup\n     * a social game. The supplied data argument is a concatenation of two uint256 encoded into bytes.\n     * First argument is the number of participants for a game, and the second argument is the price\n     * per round in the game. This is supplied to createSocialGame. When the game completes, the token\n     * is transfered back to the owner.\n     * Capture the GameCreated event to find the address and game id for the SocialGame contract\n     *\n     * Note at this point no validation is done to confirm that the caller is a ERC721 token contract\n     * @param operator is the msg.sender of the caller to the ERC721 safeTransferFrom function\n     * @param from address representing the previous owner of the given token ID\n     * @param tokenId uint256 ID of the token to be transferred\n     * @param data bytes optional data to send along with the call\n     * @return special selector as required by interface {IERC721Receiver.onERC721Received}\n     */\n    function onERC721Received(\n        address operator,\n        address from,\n        uint256 tokenId,\n        bytes calldata data\n    ) external override returns (bytes4) {\n        // 2 x 32 byte arrays, first one is num participants, second is price per round\n        // default values are provided\n        uint256 numberParticipants = DEFAULT_PLAYERS;\n        uint256 pricePerRound = DEFAULT_ENTRY_COST;\n\n        if (data.length == 64) {\n            numberParticipants = sliceUint(data, 0); // start at 0-31 bytes for first uint\n            pricePerRound = sliceUint(data, 32); // 32 bytes, 256 bits for second uint\n        }\n        // who is ultimate message.sender?\n        uint256 gameId = createSocialGame(\n            operator,\n            payable(from),\n            numberParticipants,\n            pricePerRound\n        );\n        _extensionERC721Token[gameId] = ERC721Details(\n            from,\n            tokenId,\n            msg.sender\n        );\n        return this.onERC721Received.selector;\n    }\n}\n",
  "sourcePath": "/Users/noorjehanphu/dev/social-harmony/truffle/contracts/SocialGameToken.sol",
  "compiler": {
    "name": "solc",
    "version": "0.8.6+commit.11564f7e.Emscripten.clang"
  },
  "schemaVersion": "3.4.1",
  "updatedAt": "2021-07-08T16:54:31.531Z",
  "devdoc": {
    "author": "victaphu",
    "details": "Contract that represents entries in the game as NFTs. Note a single token contract is deployed. We track the game by its game-id and game address. Tokens of active games cannot be transferred. Once a game is completed, the NFT can be used to represent the participation of an address in the Social Game and can be transferred to others Intended usage: Track the tickets issued for all Social Change Games and act as a factory to create SocialGames. SHMT tokens represent a badge of honor for how much donations were made",
    "kind": "dev",
    "methods": {
      "approve(address,uint256)": {
        "details": "See {IERC721-approve}."
      },
      "balanceOf(address)": {
        "details": "See {IERC721-balanceOf}."
      },
      "enterGame(address,string,uint256)": {
        "details": "this function mints an NFT for a given player using the token URI and the game id. It represents a single entry in a given social game. This function can only be called by the SocialGame with the corresponding game id (initialised using {createSocialGame}) Requirements - caller must own the game id"
      },
      "gameCompleted()": {
        "details": "called when a social game has completed. This is called by the social game itself to flag that the game has completed. Requirement - game must be currently active, and the caller must own a game"
      },
      "getApproved(uint256)": {
        "details": "See {IERC721-getApproved}."
      },
      "isApprovedForAll(address,address)": {
        "details": "See {IERC721-isApprovedForAll}."
      },
      "name()": {
        "details": "See {IERC721Metadata-name}."
      },
      "onERC721Received(address,address,uint256,bytes)": {
        "details": "transfer an ERC721 token through safeTransferFrom to the SocialGameToken address to setup a social game. The supplied data argument is a concatenation of two uint256 encoded into bytes. First argument is the number of participants for a game, and the second argument is the price per round in the game. This is supplied to createSocialGame. When the game completes, the token is transfered back to the owner. Capture the GameCreated event to find the address and game id for the SocialGame contract Note at this point no validation is done to confirm that the caller is a ERC721 token contract",
        "params": {
          "data": "bytes optional data to send along with the call",
          "from": "address representing the previous owner of the given token ID",
          "operator": "is the msg.sender of the caller to the ERC721 safeTransferFrom function",
          "tokenId": "uint256 ID of the token to be transferred"
        },
        "returns": {
          "_0": "special selector as required by interface {IERC721Receiver.onERC721Received}"
        }
      },
      "owner()": {
        "details": "Returns the address of the current owner."
      },
      "ownerOf(uint256)": {
        "details": "See {IERC721-ownerOf}."
      },
      "renounceOwnership()": {
        "details": "Leaves the contract without owner. It will not be possible to call `onlyOwner` functions anymore. Can only be called by the current owner. NOTE: Renouncing ownership will leave the contract without an owner, thereby removing any functionality that is only available to the owner."
      },
      "safeTransferFrom(address,address,uint256)": {
        "details": "See {IERC721-safeTransferFrom}."
      },
      "safeTransferFrom(address,address,uint256,bytes)": {
        "details": "See {IERC721-safeTransferFrom}."
      },
      "setApprovalForAll(address,bool)": {
        "details": "See {IERC721-setApprovalForAll}."
      },
      "supportsInterface(bytes4)": {
        "details": "See {IERC165-supportsInterface}."
      },
      "symbol()": {
        "details": "See {IERC721Metadata-symbol}."
      },
      "tokenURI(uint256)": {
        "details": "See {IERC721Metadata-tokenURI}."
      },
      "transferFrom(address,address,uint256)": {
        "details": "See {IERC721-transferFrom}."
      },
      "transferOwnership(address)": {
        "details": "Transfers ownership of the contract to a new account (`newOwner`). Can only be called by the current owner."
      }
    },
    "title": "Social Change Game Token",
    "version": 1
  },
  "userdoc": {
    "kind": "user",
    "methods": {},
    "notice": "Smart Contract developed for the Harmony One Round 2 Hackathon on Gitcoin",
    "version": 1
  }
}