{
  "contractName": "SocialHarmonyRegistry",
  "abi": [
    {
      "inputs": [],
      "stateMutability": "nonpayable",
      "type": "constructor"
    },
    {
      "anonymous": false,
      "inputs": [
        {
          "indexed": true,
          "internalType": "address",
          "name": "previousOwner",
          "type": "address"
        },
        {
          "indexed": true,
          "internalType": "address",
          "name": "newOwner",
          "type": "address"
        }
      ],
      "name": "OwnershipTransferred",
      "type": "event"
    },
    {
      "anonymous": false,
      "inputs": [
        {
          "indexed": true,
          "internalType": "bytes32",
          "name": "role",
          "type": "bytes32"
        },
        {
          "indexed": true,
          "internalType": "bytes32",
          "name": "previousAdminRole",
          "type": "bytes32"
        },
        {
          "indexed": true,
          "internalType": "bytes32",
          "name": "newAdminRole",
          "type": "bytes32"
        }
      ],
      "name": "RoleAdminChanged",
      "type": "event"
    },
    {
      "anonymous": false,
      "inputs": [
        {
          "indexed": true,
          "internalType": "bytes32",
          "name": "role",
          "type": "bytes32"
        },
        {
          "indexed": true,
          "internalType": "address",
          "name": "account",
          "type": "address"
        },
        {
          "indexed": true,
          "internalType": "address",
          "name": "sender",
          "type": "address"
        }
      ],
      "name": "RoleGranted",
      "type": "event"
    },
    {
      "anonymous": false,
      "inputs": [
        {
          "indexed": true,
          "internalType": "bytes32",
          "name": "role",
          "type": "bytes32"
        },
        {
          "indexed": true,
          "internalType": "address",
          "name": "account",
          "type": "address"
        },
        {
          "indexed": true,
          "internalType": "address",
          "name": "sender",
          "type": "address"
        }
      ],
      "name": "RoleRevoked",
      "type": "event"
    },
    {
      "inputs": [],
      "name": "DEFAULT_ADMIN_ROLE",
      "outputs": [
        {
          "internalType": "bytes32",
          "name": "",
          "type": "bytes32"
        }
      ],
      "stateMutability": "view",
      "type": "function",
      "constant": true
    },
    {
      "inputs": [],
      "name": "VERIFIER_GRANT_ROLE",
      "outputs": [
        {
          "internalType": "bytes32",
          "name": "",
          "type": "bytes32"
        }
      ],
      "stateMutability": "view",
      "type": "function",
      "constant": true
    },
    {
      "inputs": [
        {
          "internalType": "bytes32",
          "name": "role",
          "type": "bytes32"
        }
      ],
      "name": "getRoleAdmin",
      "outputs": [
        {
          "internalType": "bytes32",
          "name": "",
          "type": "bytes32"
        }
      ],
      "stateMutability": "view",
      "type": "function",
      "constant": true
    },
    {
      "inputs": [
        {
          "internalType": "bytes32",
          "name": "role",
          "type": "bytes32"
        },
        {
          "internalType": "address",
          "name": "account",
          "type": "address"
        }
      ],
      "name": "grantRole",
      "outputs": [],
      "stateMutability": "nonpayable",
      "type": "function"
    },
    {
      "inputs": [
        {
          "internalType": "bytes32",
          "name": "role",
          "type": "bytes32"
        },
        {
          "internalType": "address",
          "name": "account",
          "type": "address"
        }
      ],
      "name": "hasRole",
      "outputs": [
        {
          "internalType": "bool",
          "name": "",
          "type": "bool"
        }
      ],
      "stateMutability": "view",
      "type": "function",
      "constant": true
    },
    {
      "inputs": [],
      "name": "lastUpdated",
      "outputs": [
        {
          "internalType": "uint256",
          "name": "",
          "type": "uint256"
        }
      ],
      "stateMutability": "view",
      "type": "function",
      "constant": true
    },
    {
      "inputs": [
        {
          "internalType": "uint256",
          "name": "",
          "type": "uint256"
        }
      ],
      "name": "organisations",
      "outputs": [
        {
          "internalType": "address",
          "name": "",
          "type": "address"
        }
      ],
      "stateMutability": "view",
      "type": "function",
      "constant": true
    },
    {
      "inputs": [],
      "name": "owner",
      "outputs": [
        {
          "internalType": "address",
          "name": "",
          "type": "address"
        }
      ],
      "stateMutability": "view",
      "type": "function",
      "constant": true
    },
    {
      "inputs": [],
      "name": "renounceOwnership",
      "outputs": [],
      "stateMutability": "nonpayable",
      "type": "function"
    },
    {
      "inputs": [
        {
          "internalType": "bytes32",
          "name": "role",
          "type": "bytes32"
        },
        {
          "internalType": "address",
          "name": "account",
          "type": "address"
        }
      ],
      "name": "renounceRole",
      "outputs": [],
      "stateMutability": "nonpayable",
      "type": "function"
    },
    {
      "inputs": [
        {
          "internalType": "bytes32",
          "name": "role",
          "type": "bytes32"
        },
        {
          "internalType": "address",
          "name": "account",
          "type": "address"
        }
      ],
      "name": "revokeRole",
      "outputs": [],
      "stateMutability": "nonpayable",
      "type": "function"
    },
    {
      "inputs": [],
      "name": "socialGameToken",
      "outputs": [
        {
          "internalType": "contract SocialGameToken",
          "name": "",
          "type": "address"
        }
      ],
      "stateMutability": "view",
      "type": "function",
      "constant": true
    },
    {
      "inputs": [
        {
          "internalType": "bytes4",
          "name": "interfaceId",
          "type": "bytes4"
        }
      ],
      "name": "supportsInterface",
      "outputs": [
        {
          "internalType": "bool",
          "name": "",
          "type": "bool"
        }
      ],
      "stateMutability": "view",
      "type": "function",
      "constant": true
    },
    {
      "inputs": [
        {
          "internalType": "address",
          "name": "newOwner",
          "type": "address"
        }
      ],
      "name": "transferOwnership",
      "outputs": [],
      "stateMutability": "nonpayable",
      "type": "function"
    },
    {
      "inputs": [
        {
          "internalType": "address",
          "name": "organisation",
          "type": "address"
        }
      ],
      "name": "tokenURI",
      "outputs": [
        {
          "internalType": "string",
          "name": "",
          "type": "string"
        }
      ],
      "stateMutability": "view",
      "type": "function",
      "constant": true
    },
    {
      "inputs": [
        {
          "internalType": "string",
          "name": "uri",
          "type": "string"
        }
      ],
      "name": "registerURI",
      "outputs": [],
      "stateMutability": "nonpayable",
      "type": "function"
    },
    {
      "inputs": [
        {
          "internalType": "address",
          "name": "organisation",
          "type": "address"
        }
      ],
      "name": "isVerified",
      "outputs": [
        {
          "internalType": "bool",
          "name": "verified_",
          "type": "bool"
        }
      ],
      "stateMutability": "view",
      "type": "function",
      "constant": true
    },
    {
      "inputs": [
        {
          "internalType": "address",
          "name": "organisation",
          "type": "address"
        }
      ],
      "name": "verifyOrganisation",
      "outputs": [],
      "stateMutability": "nonpayable",
      "type": "function"
    },
    {
      "inputs": [
        {
          "internalType": "address",
          "name": "organisation",
          "type": "address"
        }
      ],
      "name": "unverifyOrganisation",
      "outputs": [],
      "stateMutability": "nonpayable",
      "type": "function"
    },
    {
      "inputs": [],
      "name": "getOrgsCount",
      "outputs": [
        {
          "internalType": "uint256",
          "name": "count",
          "type": "uint256"
        }
      ],
      "stateMutability": "view",
      "type": "function",
      "constant": true
    },
    {
      "inputs": [
        {
          "internalType": "uint256",
          "name": "start",
          "type": "uint256"
        },
        {
          "internalType": "uint256",
          "name": "pageSize",
          "type": "uint256"
        }
      ],
      "name": "getURIs",
      "outputs": [
        {
          "internalType": "address[]",
          "name": "orgs",
          "type": "address[]"
        },
        {
          "internalType": "string[]",
          "name": "orgURIs",
          "type": "string[]"
        },
        {
          "internalType": "bool[]",
          "name": "verified",
          "type": "bool[]"
        }
      ],
      "stateMutability": "view",
      "type": "function",
      "constant": true
    }
  ],
  "bytecode": "0x6080604052600060055534801561001557600080fd5b50600080546001600160a01b031916339081178255604051909182917f8be0079c531659141344cd1fd0a4f28419497f9722a3daafe3b4186f6b6457e0908290a350610062600033610078565b61007363183c181960e11b33610078565b61010d565b6100828282610086565b5050565b60008281526001602090815260408083206001600160a01b038516845290915290205460ff166100825760008281526001602081815260408084206001600160a01b0386168086529252808420805460ff19169093179092559051339285917f2f8788117e7eff1d82e926ec794901d17c78024a50270940304540a733656f0d9190a45050565b61151d8061011c6000396000f3fe608060405234801561001057600080fd5b50600436106101075760003560e01c806301ffc9a71461010c5780630cfec94614610134578063246f8c4414610149578063248a9ca3146101745780632f2ff15d1461019557806336568abe146101a85780635629a5ed146101bb578063715018a6146101ce57806376eb92ab146101d6578063881b1a0b146101de5780638da5cb5b146101ec57806391d14854146101f457806393702f3314610207578063a217fddf14610227578063ad45a73e1461022f578063b9209e3314610242578063d0b06f5d1461026e578063d547741f14610277578063e07876aa1461028a578063f2fde38b146102ac578063fb9579b0146102bf575b600080fd5b61011f61011a366004611095565b6102d2565b60405190151581526020015b60405180910390f35b610147610142366004611035565b610309565b005b61015c610157366004611050565b61040a565b6040516001600160a01b03909116815260200161012b565b610187610182366004611050565b610434565b60405190815260200161012b565b6101476101a3366004611069565b61044a565b6101476101b6366004611069565b61046c565b6101476101c93660046110bf565b6104ea565b61014761059d565b600354610187565b61018763183c181960e11b81565b61015c610604565b61011f610202366004611069565b610613565b61021a610215366004611035565b61063e565b60405161012b919061131d565b610187600081565b60065461015c906001600160a01b031681565b61011f610250366004611035565b6001600160a01b031660009081526004602052604090205460ff1690565b61018760055481565b610147610285366004611069565b61072d565b61029d61029836600461116f565b61074a565b60405161012b93929190611269565b6101476102ba366004611035565b610add565b6101476102cd366004611035565b610bba565b60006001600160e01b03198216637965db0b60e01b148061030357506301ffc9a760e01b6001600160e01b03198316145b92915050565b63183c181960e11b61031b8133610ca8565b6001600160a01b0382166000908152600260205260408120805461033e9061142f565b9050116103665760405162461bcd60e51b815260040161035d90611330565b60405180910390fd5b6001600160a01b03821660009081526004602052604090205460ff1615156001146103d35760405162461bcd60e51b815260206004820152601f60248201527f4f7267616e69736174696f6e20616c726561647920756e766572696669656400604482015260640161035d565b6001600160a01b0382166000908152600460205260408120805460ff1916905560058054916104018361146a565b91905055505050565b6003818154811061041a57600080fd5b6000918252602090912001546001600160a01b0316905081565b6000908152600160208190526040909120015490565b61045382610434565b61045d8133610ca8565b6104678383610d0c565b505050565b6001600160a01b03811633146104dc5760405162461bcd60e51b815260206004820152602f60248201527f416363657373436f6e74726f6c3a2063616e206f6e6c792072656e6f756e636560448201526e103937b632b9903337b91039b2b63360891b606482015260840161035d565b6104e68282610d77565b5050565b33600090815260026020526040902080546105049061142f565b1515905061054f57600380546001810182556000919091527fc2575a0e9e593c00f959f8c92f12db2869c3395a3b0502d05e2516446f71f85b0180546001600160a01b031916331790555b336000908152600260209081526040909120825161056f92840190610f80565b50336000908152600460205260408120805460ff1916905560058054916105958361146a565b919050555050565b336105a6610604565b6001600160a01b0316146105cc5760405162461bcd60e51b815260040161035d90611365565b600080546040516001600160a01b03909116906000805160206114c8833981519152908390a3600080546001600160a01b0319169055565b6000546001600160a01b031690565b60009182526001602090815260408084206001600160a01b0393909316845291905290205460ff1690565b6001600160a01b0381166000908152600260205260408120805460609291906106669061142f565b9050116106855760405162461bcd60e51b815260040161035d90611330565b6001600160a01b038216600090815260026020526040902080546106a89061142f565b80601f01602080910402602001604051908101604052809291908181526020018280546106d49061142f565b80156107215780601f106106f657610100808354040283529160200191610721565b820191906000526020600020905b81548152906001019060200180831161070457829003601f168201915b50505050509050919050565b61073682610434565b6107408133610ca8565b6104678383610d77565b60608080600084116107b35760405162461bcd60e51b815260206004820152602c60248201527f696e76616c696420696e7075747320746f20676574555249732c20706167652060448201526b1cda5e99481a5b9d985b1a5960a21b606482015260840161035d565b6003546107c0858761139a565b11156108095760405162461bcd60e51b8152602060048201526018602482015277696e76616c696420696e70757420746f206765745552497360401b604482015260640161035d565b6000846001600160401b03811115610823576108236114b1565b60405190808252806020026020018201604052801561084c578160200160208202803683370190505b5090506000856001600160401b03811115610869576108696114b1565b60405190808252806020026020018201604052801561089c57816020015b60608152602001906001900390816108875790505b5090506000866001600160401b038111156108b9576108b96114b1565b6040519080825280602002602001820160405280156108e2578160200160208202803683370190505b509050875b6108f1888a61139a565b81108015610900575060035481105b15610ace57600381815481106109185761091861149b565b6000918252602090912001546001600160a01b0316846109388b846113d1565b815181106109485761094861149b565b60200260200101906001600160a01b031690816001600160a01b031681525050600260006003838154811061097f5761097f61149b565b60009182526020808320909101546001600160a01b03168352820192909252604001902080546109ae9061142f565b80601f01602080910402602001604051908101604052809291908181526020018280546109da9061142f565b8015610a275780601f106109fc57610100808354040283529160200191610a27565b820191906000526020600020905b815481529060010190602001808311610a0a57829003601f168201915b5050505050838a83610a3991906113d1565b81518110610a4957610a4961149b565b60200260200101819052506004600060038381548110610a6b57610a6b61149b565b60009182526020808320909101546001600160a01b0316835282019290925260400190205460ff1682610a9e8b846113d1565b81518110610aae57610aae61149b565b91151560209283029190910190910152610ac78161146a565b90506108e7565b50919790965090945092505050565b33610ae6610604565b6001600160a01b031614610b0c5760405162461bcd60e51b815260040161035d90611365565b6001600160a01b038116610b715760405162461bcd60e51b815260206004820152602660248201527f4f776e61626c653a206e6577206f776e657220697320746865207a65726f206160448201526564647265737360d01b606482015260840161035d565b600080546040516001600160a01b03808516939216916000805160206114c883398151915291a3600080546001600160a01b0319166001600160a01b0392909216919091179055565b63183c181960e11b610bcc8133610ca8565b6001600160a01b03821660009081526002602052604081208054610bef9061142f565b905011610c0e5760405162461bcd60e51b815260040161035d90611330565b6001600160a01b03821660009081526004602052604090205460ff1615610c775760405162461bcd60e51b815260206004820152601d60248201527f4f7267616e69736174696f6e20616c7265616479207665726966696564000000604482015260640161035d565b6001600160a01b0382166000908152600460205260408120805460ff1916600117905560058054916104018361146a565b610cb28282610613565b6104e657610cca816001600160a01b03166014610dde565b610cd5836020610dde565b604051602001610ce69291906111fa565b60408051601f198184030181529082905262461bcd60e51b825261035d9160040161131d565b610d168282610613565b6104e65760008281526001602081815260408084206001600160a01b0386168086529252808420805460ff19169093179092559051339285917f2f8788117e7eff1d82e926ec794901d17c78024a50270940304540a733656f0d9190a45050565b610d818282610613565b156104e65760008281526001602090815260408083206001600160a01b0385168085529252808320805460ff1916905551339285917ff6391f5c32d9c69d2a47ea670b442974b53935d1edc7fd64eb21e047a839171b9190a45050565b60606000610ded8360026113b2565b610df890600261139a565b6001600160401b03811115610e0f57610e0f6114b1565b6040519080825280601f01601f191660200182016040528015610e39576020820181803683370190505b509050600360fc1b81600081518110610e5457610e5461149b565b60200101906001600160f81b031916908160001a905350600f60fb1b81600181518110610e8357610e8361149b565b60200101906001600160f81b031916908160001a9053506000610ea78460026113b2565b610eb290600161139a565b90505b6001811115610f2a576f181899199a1a9b1b9c1cb0b131b232b360811b85600f1660108110610ee657610ee661149b565b1a60f81b828281518110610efc57610efc61149b565b60200101906001600160f81b031916908160001a90535060049490941c93610f2381611418565b9050610eb5565b508315610f795760405162461bcd60e51b815260206004820181905260248201527f537472696e67733a20686578206c656e67746820696e73756666696369656e74604482015260640161035d565b9392505050565b828054610f8c9061142f565b90600052602060002090601f016020900481019282610fae5760008555610ff4565b82601f10610fc757805160ff1916838001178555610ff4565b82800160010185558215610ff4579182015b82811115610ff4578251825591602001919060010190610fd9565b50611000929150611004565b5090565b5b808211156110005760008155600101611005565b80356001600160a01b038116811461103057600080fd5b919050565b60006020828403121561104757600080fd5b610f7982611019565b60006020828403121561106257600080fd5b5035919050565b6000806040838503121561107c57600080fd5b8235915061108c60208401611019565b90509250929050565b6000602082840312156110a757600080fd5b81356001600160e01b031981168114610f7957600080fd5b6000602082840312156110d157600080fd5b81356001600160401b03808211156110e857600080fd5b818401915084601f8301126110fc57600080fd5b81358181111561110e5761110e6114b1565b604051601f8201601f19908116603f01168101908382118183101715611136576111366114b1565b8160405282815287602084870101111561114f57600080fd5b826020860160208301376000928101602001929092525095945050505050565b6000806040838503121561118257600080fd5b50508035926020909101359150565b600081518084526020808501945080840160005b838110156111c35781511515875295820195908201906001016111a5565b509495945050505050565b600081518084526111e68160208601602086016113e8565b601f01601f19169290920160200192915050565b76020b1b1b2b9b9a1b7b73a3937b61d1030b1b1b7bab73a1604d1b81526000835161122c8160178501602088016113e8565b7001034b99036b4b9b9b4b733903937b6329607d1b601791840191820152835161125d8160288401602088016113e8565b01602801949350505050565b606080825284519082018190526000906020906080840190828801845b828110156112ab5781516001600160a01b031684529284019290840190600101611286565b50505083810382850152855180825282820190600581901b8301840188850160005b838110156112fb57601f198684030185526112e98383516111ce565b948701949250908601906001016112cd565b5050868103604088015261130f8189611191565b9a9950505050505050505050565b602081526000610f7960208301846111ce565b6020808252601b908201527a13dc99d85b9a5cd85d1a5bdb881b9bdd081c9959da5cdd195c9959602a1b604082015260600190565b6020808252818101527f4f776e61626c653a2063616c6c6572206973206e6f7420746865206f776e6572604082015260600190565b600082198211156113ad576113ad611485565b500190565b60008160001904831182151516156113cc576113cc611485565b500290565b6000828210156113e3576113e3611485565b500390565b60005b838110156114035781810151838201526020016113eb565b83811115611412576000848401525b50505050565b60008161142757611427611485565b506000190190565b600181811c9082168061144357607f821691505b6020821081141561146457634e487b7160e01b600052602260045260246000fd5b50919050565b600060001982141561147e5761147e611485565b5060010190565b634e487b7160e01b600052601160045260246000fd5b634e487b7160e01b600052603260045260246000fd5b634e487b7160e01b600052604160045260246000fdfe8be0079c531659141344cd1fd0a4f28419497f9722a3daafe3b4186f6b6457e0a264697066735822122020aa09f0c9fd7e4c633d3e98987fc83a59e6a1b28ffbebadb0875b639d65d67264736f6c63430008060033",
  "immutableReferences": {},
  "source": "// contracts/GameItem.sol\n// SPDX-License-Identifier: MIT\npragma solidity ^0.8.0;\n\nimport \"@openzeppelin/contracts/access/Ownable.sol\";\nimport \"@openzeppelin/contracts/access/AccessControl.sol\";\nimport \"./SocialGameToken.sol\";\n\n/**\n * @title Social Change Game Registry\n * @notice Smart Contract developed for the Harmony One Round 2 Hackathon on Gitcoin\n * @dev Contract that is used to register organisations for the social harmony games dapp.\n * Use a URI that points to a JSON object containing the information for each social harmony\n * organisation. Each org will have their own public keys registered in the registry. this can\n * be used to look up the social harmony games and the game token created for that public key.\n *\n * JSON format registering the organisation (note no validation of the JSON is made on the smart contract)\n {\n    \"organisation\": \"\",\n    \"organisationBanner\":\"\", // url of image\n    \"description\": \"\",\n    \"story\": \"\",\n    \"icon\": \"\",\n    \"heroImages\": [], // URL of images to show\n    \"publicKey\": \"\",\n    \"contactDetails\": {\n        \"email\": \"\",\n        \"site\": \"\",\n        \"twitter\": \"\",\n        \"facebook\": \"\",\n        \"phone\": \"\"\n    }\n }\n *\n * One public key may only own one organisation. The URI and JSON can be updated as required. For the DAPP, \n * IPFS is used to store the JSON dynamically. \n *\n * Note that at this point anyone can add an entry into the registry. Organisations are \n * verified by the registry owner (to be changed to allow multi-party verification). Verified organisations will\n * appear with a tick in the DAPP\n *\n * @author victaphu\n */\ncontract SocialHarmonyRegistry is Ownable, AccessControl {\n    // mapping of address to URI of organisation\n    mapping(address => string) private _tokenURIs;\n\n    // list of organisations registered\n    address[] public organisations;\n\n    // mapping of verified organisations\n    mapping(address => bool) private _verified;\n\n    bytes32 public constant VERIFIER_GRANT_ROLE = \"0x02\"; // verify/revoke organisations\n\n    uint256 public lastUpdated = 0; // latest update of the registry for caching purposes\n\n    SocialGameToken public socialGameToken; // the token that this registry is connected to\n\n    constructor() {\n        _setupRole(DEFAULT_ADMIN_ROLE, msg.sender);\n        _setupRole(VERIFIER_GRANT_ROLE, msg.sender);\n    }\n\n    function tokenURI(address organisation)\n        public\n        view\n        virtual\n        returns (string memory)\n    {\n        require(\n            bytes(_tokenURIs[organisation]).length > 0,\n            \"Organisation not registered\"\n        );\n        return _tokenURIs[organisation];\n    }\n\n    function registerURI(string memory uri) public {\n        // updating the URI will also flag the item as unverified\n        if (bytes(_tokenURIs[msg.sender]).length == 0) {\n            organisations.push(msg.sender);\n        }\n        _tokenURIs[msg.sender] = uri;\n        _verified[msg.sender] = false;\n        lastUpdated ++;\n    }\n\n    function isVerified(address organisation)\n        public\n        view\n        returns (bool verified_)\n    {\n        verified_ = _verified[organisation];\n    }\n\n    function verifyOrganisation(address organisation)\n        public\n        onlyRole(VERIFIER_GRANT_ROLE)\n    {\n        require(\n            bytes(_tokenURIs[organisation]).length > 0,\n            \"Organisation not registered\"\n        );\n        require(\n            _verified[organisation] == false,\n            \"Organisation already verified\"\n        );\n        _verified[organisation] = true;\n        lastUpdated ++;\n    }\n\n    function unverifyOrganisation(address organisation)\n        public\n        onlyRole(VERIFIER_GRANT_ROLE)\n    {\n        require(\n            bytes(_tokenURIs[organisation]).length > 0,\n            \"Organisation not registered\"\n        );\n        require(\n            _verified[organisation] == true,\n            \"Organisation already unverified\"\n        );\n        _verified[organisation] = false;\n        lastUpdated ++;\n    }\n\n    function getOrgsCount() public view returns (uint256 count) {\n        count = organisations.length;\n    }\n\n    function getURIs(uint256 start, uint256 pageSize)\n        public\n        view\n        returns (address[] memory orgs, string[] memory orgURIs, bool[] memory verified)\n    {\n        require(start >= 0 && pageSize > 0, \"invalid inputs to getURIs, page size invalid\");\n        require(\n            (start + pageSize) <= organisations.length,\n            \"invalid input to getURIs\"\n        );\n\n        address[] memory orgs_ = new address[](pageSize);\n        string[] memory orgURIs_ = new string[](pageSize);\n        bool[] memory verified_ = new bool[](pageSize);\n        for (\n            uint256 i = start;\n            i < start + pageSize && i < organisations.length;\n            ++i\n        ) {\n            orgs_[i - start] = organisations[i];\n            orgURIs_[i - start] = _tokenURIs[organisations[i]];\n            verified_[i - start] = _verified[organisations[i]];\n        }\n\n        orgs = orgs_;\n        orgURIs = orgURIs_;\n        verified = verified_;\n    }\n}\n",
  "sourcePath": "/Users/noorjehanphu/dev/social-harmony/truffle/contracts/SocialHarmonyRegistry.sol",
  "compiler": {
    "name": "solc",
    "version": "0.8.6+commit.11564f7e.Emscripten.clang"
  },
  "schemaVersion": "3.4.1",
  "updatedAt": "2021-07-18T19:27:59.582Z",
  "networkType": "ethereum",
  "devdoc": {
    "author": "victaphu",
    "details": "Contract that is used to register organisations for the social harmony games dapp. Use a URI that points to a JSON object containing the information for each social harmony organisation. Each org will have their own public keys registered in the registry. this can be used to look up the social harmony games and the game token created for that public key. JSON format registering the organisation (note no validation of the JSON is made on the smart contract) { \"organisation\": \"\", \"organisationBanner\":\"\", // url of image \"description\": \"\", \"story\": \"\", \"icon\": \"\", \"heroImages\": [], // URL of images to show \"publicKey\": \"\", \"contactDetails\": { \"email\": \"\", \"site\": \"\", \"twitter\": \"\", \"facebook\": \"\", \"phone\": \"\" } } One public key may only own one organisation. The URI and JSON can be updated as required. For the DAPP,  IPFS is used to store the JSON dynamically.  Note that at this point anyone can add an entry into the registry. Organisations are  verified by the registry owner (to be changed to allow multi-party verification). Verified organisations will appear with a tick in the DAPP",
    "kind": "dev",
    "methods": {
      "getRoleAdmin(bytes32)": {
        "details": "Returns the admin role that controls `role`. See {grantRole} and {revokeRole}. To change a role's admin, use {_setRoleAdmin}."
      },
      "grantRole(bytes32,address)": {
        "details": "Grants `role` to `account`. If `account` had not been already granted `role`, emits a {RoleGranted} event. Requirements: - the caller must have ``role``'s admin role."
      },
      "hasRole(bytes32,address)": {
        "details": "Returns `true` if `account` has been granted `role`."
      },
      "owner()": {
        "details": "Returns the address of the current owner."
      },
      "renounceOwnership()": {
        "details": "Leaves the contract without owner. It will not be possible to call `onlyOwner` functions anymore. Can only be called by the current owner. NOTE: Renouncing ownership will leave the contract without an owner, thereby removing any functionality that is only available to the owner."
      },
      "renounceRole(bytes32,address)": {
        "details": "Revokes `role` from the calling account. Roles are often managed via {grantRole} and {revokeRole}: this function's purpose is to provide a mechanism for accounts to lose their privileges if they are compromised (such as when a trusted device is misplaced). If the calling account had been granted `role`, emits a {RoleRevoked} event. Requirements: - the caller must be `account`."
      },
      "revokeRole(bytes32,address)": {
        "details": "Revokes `role` from `account`. If `account` had been granted `role`, emits a {RoleRevoked} event. Requirements: - the caller must have ``role``'s admin role."
      },
      "supportsInterface(bytes4)": {
        "details": "See {IERC165-supportsInterface}."
      },
      "transferOwnership(address)": {
        "details": "Transfers ownership of the contract to a new account (`newOwner`). Can only be called by the current owner."
      }
    },
    "title": "Social Change Game Registry",
    "version": 1
  },
  "userdoc": {
    "kind": "user",
    "methods": {},
    "notice": "Smart Contract developed for the Harmony One Round 2 Hackathon on Gitcoin",
    "version": 1
  }
}