{
  "contractName": "SocialDAO",
  "abi": [
    {
      "inputs": [
        {
          "internalType": "uint256",
          "name": "duration",
          "type": "uint256"
        },
        {
          "internalType": "uint256",
          "name": "milestones",
          "type": "uint256"
        },
        {
          "internalType": "address[]",
          "name": "approverList",
          "type": "address[]"
        },
        {
          "internalType": "uint256[]",
          "name": "staked",
          "type": "uint256[]"
        },
        {
          "internalType": "address",
          "name": "beneficiaryAddress",
          "type": "address"
        },
        {
          "internalType": "string",
          "name": "metadata",
          "type": "string"
        }
      ],
      "stateMutability": "nonpayable",
      "type": "constructor"
    },
    {
      "inputs": [
        {
          "internalType": "string",
          "name": "uri",
          "type": "string"
        }
      ],
      "name": "updateCurrentMilestoneMeta",
      "outputs": [],
      "stateMutability": "nonpayable",
      "type": "function"
    },
    {
      "inputs": [],
      "name": "approveCurrentMilestone",
      "outputs": [],
      "stateMutability": "nonpayable",
      "type": "function"
    },
    {
      "inputs": [],
      "name": "getMilestoneURI",
      "outputs": [
        {
          "internalType": "string",
          "name": "uri",
          "type": "string"
        }
      ],
      "stateMutability": "view",
      "type": "function"
    }
  ],
  "bytecode": "0x60806040523480156200001157600080fd5b5060405162001d5438038062001d54833981810160405281019062000037919062000afe565b600285118015620000485750600a85105b6200008a576040517f08c379a0000000000000000000000000000000000000000000000000000000008152600401620000819062000d2f565b60405180910390fd5b600284511180156200009d575060058451105b8015620000ab575082518451145b620000ed576040517f08c379a0000000000000000000000000000000000000000000000000000000008152600401620000e49062000db7565b60405180910390fd5b605a861162000133576040517f08c379a00000000000000000000000000000000000000000000000000000000081526004016200012a9062000dfb565b60405180910390fd5b6000620151808762000146919062000fa2565b4262000153919062000f0d565b60008190555060018662000168919062001003565b8762000175919062000f6a565b60018190555060008091505b84518210156200024c57848281518110620001a157620001a0620011f9565b5b602002602001015160056000888581518110620001c357620001c2620011f9565b5b602002602001015173ffffffffffffffffffffffffffffffffffffffff1673ffffffffffffffffffffffffffffffffffffffff168152602001908152602001600020819055508482815181106200021f576200021e620011f9565b5b60200260200101518162000234919062000f0d565b9050818062000243906200111e565b92505062000181565b6064811462000292576040517f08c379a0000000000000000000000000000000000000000000000000000000008152600401620002899062000d73565b60405180910390fd5b620002a26200030a60201b60201c565b83600460006101000a81548173ffffffffffffffffffffffffffffffffffffffff021916908373ffffffffffffffffffffffffffffffffffffffff1602179055508260039080519060200190620002fb92919062000796565b50505050505050505062001449565b6000546002541062000353576040517f08c379a00000000000000000000000000000000000000000000000000000000081526004016200034a9062000d51565b60405180910390fd5b4260025410156200039b576040517f08c379a0000000000000000000000000000000000000000000000000000000008152600401620003929062000e1d565b60405180910390fd5b600080600090505b600760020180549050811015620006405760646005600060076002018481548110620003d457620003d3620011f9565b5b9060005260206000200160009054906101000a900473ffffffffffffffffffffffffffffffffffffffff1673ffffffffffffffffffffffffffffffffffffffff1673ffffffffffffffffffffffffffffffffffffffff16815260200190815260200160002054116200047d576040517f08c379a0000000000000000000000000000000000000000000000000000000008152600401620004749062000dd9565b60405180910390fd5b6103e860056000600760020184815481106200049e576200049d620011f9565b5b9060005260206000200160009054906101000a900473ffffffffffffffffffffffffffffffffffffffff1673ffffffffffffffffffffffffffffffffffffffff1673ffffffffffffffffffffffffffffffffffffffff1681526020019081526020016000205462000510919062001003565b60056000600760020184815481106200052e576200052d620011f9565b5b9060005260206000200160009054906101000a900473ffffffffffffffffffffffffffffffffffffffff1673ffffffffffffffffffffffffffffffffffffffff1673ffffffffffffffffffffffffffffffffffffffff168152602001908152602001600020819055506005600060076002018381548110620005b557620005b4620011f9565b5b9060005260206000200160009054906101000a900473ffffffffffffffffffffffffffffffffffffffff1673ffffffffffffffffffffffffffffffffffffffff1673ffffffffffffffffffffffffffffffffffffffff168152602001908152602001600020548262000628919062000f0d565b9150808062000637906200111e565b915050620003a3565b6032821162000686576040517f08c379a00000000000000000000000000000000000000000000000000000000081526004016200067d9062000d95565b60405180910390fd5b6201518060015462000699919062000fa2565b42620006a6919062000f0d565b6002819055506000546002541115620006c3576000546002819055505b620006cd62000827565b8060076000820151816000019080519060200190620006ee92919062000796565b506020820151816001015560408201518160020190805190602001906200071792919062000848565b50905050600681908060018154018082558091505060019003906000526020600020906003020160009091909190915060008201518160000190805190602001906200076592919062000796565b506020820151816001015560408201518160020190805190602001906200078e92919062000848565b505050505050565b828054620007a490620010b2565b90600052602060002090601f016020900481019282620007c8576000855562000814565b82601f10620007e357805160ff191683800117855562000814565b8280016001018555821562000814579182015b8281111562000813578251825591602001919060010190620007f6565b5b509050620008239190620008d7565b5090565b60405180606001604052806060815260200160008152602001606081525090565b828054828255906000526020600020908101928215620008c4579160200282015b82811115620008c35782518260006101000a81548173ffffffffffffffffffffffffffffffffffffffff021916908373ffffffffffffffffffffffffffffffffffffffff1602179055509160200191906001019062000869565b5b509050620008d39190620008d7565b5090565b5b80821115620008f2576000816000905550600101620008d8565b5090565b60006200090d620009078462000e68565b62000e3f565b905080838252602082019050828560208602820111156200093357620009326200125c565b5b60005b858110156200096757816200094c888262000a37565b84526020840193506020830192505060018101905062000936565b5050509392505050565b600062000988620009828462000e97565b62000e3f565b90508083825260208201905082856020860282011115620009ae57620009ad6200125c565b5b60005b85811015620009e25781620009c7888262000ae7565b845260208401935060208301925050600181019050620009b1565b5050509392505050565b600062000a03620009fd8462000ec6565b62000e3f565b90508281526020810184848401111562000a225762000a2162001261565b5b62000a2f8482856200107c565b509392505050565b60008151905062000a488162001415565b92915050565b600082601f83011262000a665762000a6562001257565b5b815162000a78848260208601620008f6565b91505092915050565b600082601f83011262000a995762000a9862001257565b5b815162000aab84826020860162000971565b91505092915050565b600082601f83011262000acc5762000acb62001257565b5b815162000ade848260208601620009ec565b91505092915050565b60008151905062000af8816200142f565b92915050565b60008060008060008060c0878903121562000b1e5762000b1d6200126b565b5b600062000b2e89828a0162000ae7565b965050602062000b4189828a0162000ae7565b955050604087015167ffffffffffffffff81111562000b655762000b6462001266565b5b62000b7389828a0162000a4e565b945050606087015167ffffffffffffffff81111562000b975762000b9662001266565b5b62000ba589828a0162000a81565b935050608062000bb889828a0162000a37565b92505060a087015167ffffffffffffffff81111562000bdc5762000bdb62001266565b5b62000bea89828a0162000ab4565b9150509295509295509295565b600062000c0660128362000efc565b915062000c138262001281565b602082019050919050565b600062000c2d600f8362000efc565b915062000c3a82620012aa565b602082019050919050565b600062000c54601a8362000efc565b915062000c6182620012d3565b602082019050919050565b600062000c7b603a8362000efc565b915062000c8882620012fc565b604082019050919050565b600062000ca260168362000efc565b915062000caf826200134b565b602082019050919050565b600062000cc960168362000efc565b915062000cd68262001374565b602082019050919050565b600062000cf060178362000efc565b915062000cfd826200139d565b602082019050919050565b600062000d17603d8362000efc565b915062000d2482620013c6565b604082019050919050565b6000602082019050818103600083015262000d4a8162000bf7565b9050919050565b6000602082019050818103600083015262000d6c8162000c1e565b9050919050565b6000602082019050818103600083015262000d8e8162000c45565b9050919050565b6000602082019050818103600083015262000db08162000c6c565b9050919050565b6000602082019050818103600083015262000dd28162000c93565b9050919050565b6000602082019050818103600083015262000df48162000cba565b9050919050565b6000602082019050818103600083015262000e168162000ce1565b9050919050565b6000602082019050818103600083015262000e388162000d08565b9050919050565b600062000e4b62000e5e565b905062000e598282620010e8565b919050565b6000604051905090565b600067ffffffffffffffff82111562000e865762000e8562001228565b5b602082029050602081019050919050565b600067ffffffffffffffff82111562000eb55762000eb462001228565b5b602082029050602081019050919050565b600067ffffffffffffffff82111562000ee45762000ee362001228565b5b62000eef8262001270565b9050602081019050919050565b600082825260208201905092915050565b600062000f1a8262001072565b915062000f278362001072565b9250827fffffffffffffffffffffffffffffffffffffffffffffffffffffffffffffffff0382111562000f5f5762000f5e6200116c565b5b828201905092915050565b600062000f778262001072565b915062000f848362001072565b92508262000f975762000f966200119b565b5b828204905092915050565b600062000faf8262001072565b915062000fbc8362001072565b9250817fffffffffffffffffffffffffffffffffffffffffffffffffffffffffffffffff048311821515161562000ff85762000ff76200116c565b5b828202905092915050565b6000620010108262001072565b91506200101d8362001072565b9250828210156200103357620010326200116c565b5b828203905092915050565b60006200104b8262001052565b9050919050565b600073ffffffffffffffffffffffffffffffffffffffff82169050919050565b6000819050919050565b60005b838110156200109c5780820151818401526020810190506200107f565b83811115620010ac576000848401525b50505050565b60006002820490506001821680620010cb57607f821691505b60208210811415620010e257620010e1620011ca565b5b50919050565b620010f38262001270565b810181811067ffffffffffffffff8211171562001115576200111462001228565b5b80604052505050565b60006200112b8262001072565b91507fffffffffffffffffffffffffffffffffffffffffffffffffffffffffffffffff8214156200116157620011606200116c565b5b600182019050919050565b7f4e487b7100000000000000000000000000000000000000000000000000000000600052601160045260246000fd5b7f4e487b7100000000000000000000000000000000000000000000000000000000600052601260045260246000fd5b7f4e487b7100000000000000000000000000000000000000000000000000000000600052602260045260246000fd5b7f4e487b7100000000000000000000000000000000000000000000000000000000600052603260045260246000fd5b7f4e487b7100000000000000000000000000000000000000000000000000000000600052604160045260246000fd5b600080fd5b600080fd5b600080fd5b600080fd5b600080fd5b6000601f19601f8301169050919050565b7f496e76616c6964204d696c6573746f6e65730000000000000000000000000000600082015250565b7f44414f2068617320657870697265640000000000000000000000000000000000600082015250565b7f496e73756666696369656e74207374616b656420746f6b656e73000000000000600082015250565b7f4e656564206d6f7265207374616b656420617070726f766572732c206375727260008201527f656e746c79206e6f7420656e6f75676820617070726f76657273000000000000602082015250565b7f417070726f7665722f7374616b6520696e76616c696400000000000000000000600082015250565b7f496e76616c696420417070726f76616c20537461746500000000000000000000600082015250565b7f44414f204475726174696f6e20697320696e76616c6964000000000000000000600082015250565b7f43616e6e6f74206d6f766520746f206e657874206d696c6573746f6e6520756e60008201527f74696c206d696c6573746f6e6520646174652069732072656163686564000000602082015250565b62001420816200103e565b81146200142c57600080fd5b50565b6200143a8162001072565b81146200144657600080fd5b50565b6108fb80620014596000396000f3fe608060405234801561001057600080fd5b50600436106100415760003560e01c80633812ccd61461004657806344ca69bb14610062578063d3822dfa14610080575b600080fd5b610060600480360381019061005b9190610468565b61008a565b005b61006a6100f2565b6040516100779190610553565b60405180910390f35b610088610187565b005b6000600760020180549050146100d5576040517f08c379a00000000000000000000000000000000000000000000000000000000081526004016100cc906105b5565b60405180910390fd5b80600760000190805190602001906100ee929190610355565b5050565b606060076000018054610104906106e9565b80601f0160208091040260200160405190810160405280929190818152602001828054610130906106e9565b801561017d5780601f106101525761010080835404028352916020019161017d565b820191906000526020600020905b81548152906001019060200180831161016057829003601f168201915b5050505050905090565b6064600560003373ffffffffffffffffffffffffffffffffffffffff1673ffffffffffffffffffffffffffffffffffffffff1681526020019081526020016000205410610209576040517f08c379a000000000000000000000000000000000000000000000000000000000815260040161020090610575565b60405180910390fd5b60006007600001805461021b906106e9565b90501161025d576040517f08c379a000000000000000000000000000000000000000000000000000000000815260040161025490610595565b60405180910390fd5b6103e8600560003373ffffffffffffffffffffffffffffffffffffffff1673ffffffffffffffffffffffffffffffffffffffff168152602001908152602001600020546102aa9190610647565b600560003373ffffffffffffffffffffffffffffffffffffffff1673ffffffffffffffffffffffffffffffffffffffff168152602001908152602001600020819055506007600201339080600181540180825580915050600190039060005260206000200160009091909190916101000a81548173ffffffffffffffffffffffffffffffffffffffff021916908373ffffffffffffffffffffffffffffffffffffffff160217905550565b828054610361906106e9565b90600052602060002090601f01602090048101928261038357600085556103ca565b82601f1061039c57805160ff19168380011785556103ca565b828001600101855582156103ca579182015b828111156103c95782518255916020019190600101906103ae565b5b5090506103d791906103db565b5090565b5b808211156103f45760008160009055506001016103dc565b5090565b600061040b610406846105fa565b6105d5565b905082815260208101848484011115610427576104266107de565b5b6104328482856106a7565b509392505050565b600082601f83011261044f5761044e6107d9565b5b813561045f8482602086016103f8565b91505092915050565b60006020828403121561047e5761047d6107e8565b5b600082013567ffffffffffffffff81111561049c5761049b6107e3565b5b6104a88482850161043a565b91505092915050565b60006104bc8261062b565b6104c68185610636565b93506104d68185602086016106b6565b6104df816107ed565b840191505092915050565b60006104f7602883610636565b9150610502826107fe565b604082019050919050565b600061051a601a83610636565b91506105258261084d565b602082019050919050565b600061053d602683610636565b915061054882610876565b604082019050919050565b6000602082019050818103600083015261056d81846104b1565b905092915050565b6000602082019050818103600083015261058e816104ea565b9050919050565b600060208201905081810360008301526105ae8161050d565b9050919050565b600060208201905081810360008301526105ce81610530565b9050919050565b60006105df6105f0565b90506105eb828261071b565b919050565b6000604051905090565b600067ffffffffffffffff821115610615576106146107aa565b5b61061e826107ed565b9050602081019050919050565b600081519050919050565b600082825260208201905092915050565b60006106528261069d565b915061065d8361069d565b9250827fffffffffffffffffffffffffffffffffffffffffffffffffffffffffffffffff038211156106925761069161074c565b5b828201905092915050565b6000819050919050565b82818337600083830152505050565b60005b838110156106d45780820151818401526020810190506106b9565b838111156106e3576000848401525b50505050565b6000600282049050600182168061070157607f821691505b602082108114156107155761071461077b565b5b50919050565b610724826107ed565b810181811067ffffffffffffffff82111715610743576107426107aa565b5b80604052505050565b7f4e487b7100000000000000000000000000000000000000000000000000000000600052601160045260246000fd5b7f4e487b7100000000000000000000000000000000000000000000000000000000600052602260045260246000fd5b7f4e487b7100000000000000000000000000000000000000000000000000000000600052604160045260246000fd5b600080fd5b600080fd5b600080fd5b600080fd5b6000601f19601f8301169050919050565b7f417070726f76657220616c726561647920617070726f7665642074686973206d60008201527f696c6573746f6e65000000000000000000000000000000000000000000000000602082015250565b7f4d696c6573746f6e6520555249206e6f742070726f7669646564000000000000600082015250565b7f4d696c6573746f6e652068617665206265656e207061727469616c6c7920617060008201527f70726f766564000000000000000000000000000000000000000000000000000060208201525056fea26469706673582212201900fe8b282b00d2aaf6e9679d0fda54a1593d7069c8e23d83c8cc6624d5eafe64736f6c63430008050033",
  "immutableReferences": {},
  "source": "// SPDX-License-Identifier: MIT\npragma solidity >=0.4.22 <0.9.0;\n\ncontract SocialDAO {\n    uint256 csrDuration; // days for CSR to run (in days)\n    uint256 milestoneDays; // number of milestones (split between csrDuration equally)\n    uint256 nextMilestoneDate; // next date for milestone\n\n    string metadataURI; // uri of metadata about the social game itself\n\n    address beneficiary; // benefactor of the DAO and where the money should be approved\n\n    mapping(address => uint256) approvers;\n\n    // address vs how many percent of total tokens\n    // important for disbursement of shares\n    // when the milestone is cleared, we look allow regain\n    // only those in this list can approve the milestones\n\n    struct Milestone {\n        string metadataURI; // uri of proof - updated when user wants to submit for approval\n        uint256 milestoneDate; // when this milestone is expected to complete\n        address[] approvers; // number of approvers; need at least 50%\n    }\n\n    Milestone[] milestonesApproved;\n    Milestone currentMilestone;\n\n    /**\n     * calculate the next milestone. until milestone date is reached the next disbursement of funds\n     * is not released.\n     */\n    function nextMilestone() private {\n        require(nextMilestoneDate < csrDuration, \"DAO has expired\");\n        require(\n            nextMilestoneDate >= block.timestamp,\n            \"Cannot move to next milestone until milestone date is reached\"\n        );\n\n        uint256 totalApprove;\n        uint256 i;\n\n        for (i = 0; i < currentMilestone.approvers.length; i++) {\n            require(approvers[currentMilestone.approvers[i]] > 100, \"Invalid Approval State\");\n            approvers[currentMilestone.approvers[i]] = approvers[currentMilestone.approvers[i]] - 1000;\n            totalApprove += approvers[currentMilestone.approvers[i]];\n        }\n\n        require(\n            totalApprove > 50,\n            \"Need more staked approvers, currently not enough approvers\"\n        );\n\n        nextMilestoneDate = block.timestamp + milestoneDays * 1 days;\n        if (nextMilestoneDate > csrDuration) {\n            nextMilestoneDate = csrDuration;\n        }\n\n        Milestone memory nextMilestoneObj;\n        currentMilestone = nextMilestoneObj;\n        milestonesApproved.push(nextMilestoneObj);\n    }\n\n    constructor(\n        uint256 duration,\n        uint256 milestones,\n        address[] memory approverList,\n        uint256[] memory staked,\n        address beneficiaryAddress,\n        string memory metadata\n    ) {\n        // any requires here?\n\n        require(milestones > 2 && milestones < 10, \"Invalid Milestones\");\n        require(\n            approverList.length > 2 &&\n                approverList.length < 5 &&\n                approverList.length == staked.length,\n            \"Approver/stake invalid\"\n        );\n        require(duration > 90, \"DAO Duration is invalid\");\n\n        uint256 i;\n\n        csrDuration = block.timestamp + (duration * 1 days); // last day for this\n        milestoneDays = duration / (milestones - 1);\n\n        uint256 total = 0;\n\n        for (i = 0; i < staked.length; i++) {\n            approvers[approverList[i]] = staked[i];\n            total += staked[i];\n        }\n\n        require(total == 100, \"Insufficient staked tokens\");\n\n        nextMilestone();\n\n        beneficiary = beneficiaryAddress;\n        metadataURI = metadata;\n    }\n\n    function updateCurrentMilestoneMeta(string memory uri) public {\n        require(\n            currentMilestone.approvers.length == 0,\n            \"Milestone have been partially approved\"\n        );\n        currentMilestone.metadataURI = uri;\n    }\n\n    function approveCurrentMilestone() public {\n        // milestone metadata URI is not null!\n        // caller only allowed if in approved list\n        require(approvers[msg.sender] < 100, \"Approver already approved this milestone\");\n        require(bytes(currentMilestone.metadataURI).length > 0, \"Milestone URI not provided\");\n        \n        approvers[msg.sender] = approvers[msg.sender] + 1000;\n        currentMilestone.approvers.push(msg.sender); // prevent same person approving multiple times?\n    }\n\n    function getMilestoneURI() public view returns (string memory uri) {\n        uri = currentMilestone.metadataURI;\n    }\n}\n",
  "sourcePath": "/Users/noorjehanphu/dev/social-harmony/truffle/contracts/SocialDAO.sol",
  "compiler": {
    "name": "solc",
    "version": "0.8.5+commit.a4f2e591.Emscripten.clang"
  },
  "schemaVersion": "3.4.1",
  "updatedAt": "2021-06-15T19:03:11.914Z",
  "devdoc": {
    "kind": "dev",
    "methods": {},
    "version": 1
  },
  "userdoc": {
    "kind": "user",
    "methods": {},
    "version": 1
  }
}