{
  "contractName": "SocialGame",
  "abi": [
    {
      "inputs": [
        {
          "internalType": "address payable",
          "name": "beneficiary_",
          "type": "address"
        },
        {
          "internalType": "uint256",
          "name": "participants_",
          "type": "uint256"
        },
        {
          "internalType": "uint256",
          "name": "pricePerRound_",
          "type": "uint256"
        },
        {
          "internalType": "uint256",
          "name": "gameId_",
          "type": "uint256"
        },
        {
          "internalType": "uint256",
          "name": "requiredEndorsers_",
          "type": "uint256"
        },
        {
          "internalType": "address",
          "name": "socialGameToken_",
          "type": "address"
        },
        {
          "internalType": "address",
          "name": "reporting_",
          "type": "address"
        }
      ],
      "stateMutability": "nonpayable",
      "type": "constructor"
    },
    {
      "anonymous": false,
      "inputs": [
        {
          "indexed": false,
          "internalType": "address",
          "name": "beneficiary",
          "type": "address"
        }
      ],
      "name": "BeneficiaryWithdrawn",
      "type": "event"
    },
    {
      "anonymous": false,
      "inputs": [
        {
          "indexed": false,
          "internalType": "address",
          "name": "endorser",
          "type": "address"
        },
        {
          "indexed": false,
          "internalType": "uint256",
          "name": "value",
          "type": "uint256"
        }
      ],
      "name": "EndorsementFeeClaimed",
      "type": "event"
    },
    {
      "anonymous": false,
      "inputs": [
        {
          "indexed": false,
          "internalType": "address",
          "name": "endorser",
          "type": "address"
        },
        {
          "indexed": false,
          "internalType": "uint256",
          "name": "tokenId",
          "type": "uint256"
        }
      ],
      "name": "EndorsementReceived",
      "type": "event"
    },
    {
      "anonymous": false,
      "inputs": [
        {
          "indexed": false,
          "internalType": "address",
          "name": "endorser",
          "type": "address"
        },
        {
          "indexed": false,
          "internalType": "uint256",
          "name": "tokenId",
          "type": "uint256"
        }
      ],
      "name": "EndorsementRefunded",
      "type": "event"
    },
    {
      "anonymous": false,
      "inputs": [],
      "name": "GameCancelled",
      "type": "event"
    },
    {
      "anonymous": false,
      "inputs": [
        {
          "indexed": false,
          "internalType": "address",
          "name": "first",
          "type": "address"
        },
        {
          "indexed": false,
          "internalType": "address",
          "name": "second",
          "type": "address"
        },
        {
          "indexed": false,
          "internalType": "address",
          "name": "third",
          "type": "address"
        }
      ],
      "name": "GameCompleted",
      "type": "event"
    },
    {
      "anonymous": false,
      "inputs": [
        {
          "indexed": true,
          "internalType": "address",
          "name": "previousOwner",
          "type": "address"
        },
        {
          "indexed": true,
          "internalType": "address",
          "name": "newOwner",
          "type": "address"
        }
      ],
      "name": "OwnershipTransferred",
      "type": "event"
    },
    {
      "anonymous": false,
      "inputs": [
        {
          "indexed": false,
          "internalType": "address",
          "name": "participant",
          "type": "address"
        },
        {
          "indexed": false,
          "internalType": "uint256",
          "name": "value",
          "type": "uint256"
        }
      ],
      "name": "Participated",
      "type": "event"
    },
    {
      "anonymous": false,
      "inputs": [
        {
          "indexed": false,
          "internalType": "address",
          "name": "beneficiary",
          "type": "address"
        }
      ],
      "name": "PrizeClaimed",
      "type": "event"
    },
    {
      "anonymous": false,
      "inputs": [
        {
          "indexed": false,
          "internalType": "address",
          "name": "depositor",
          "type": "address"
        }
      ],
      "name": "Refunded",
      "type": "event"
    },
    {
      "stateMutability": "payable",
      "type": "fallback"
    },
    {
      "inputs": [],
      "name": "ENDORSE_FEE",
      "outputs": [
        {
          "internalType": "uint256",
          "name": "",
          "type": "uint256"
        }
      ],
      "stateMutability": "view",
      "type": "function"
    },
    {
      "inputs": [],
      "name": "FUNDS_DAO",
      "outputs": [
        {
          "internalType": "uint256",
          "name": "",
          "type": "uint256"
        }
      ],
      "stateMutability": "view",
      "type": "function"
    },
    {
      "inputs": [],
      "name": "PRIZE_1ST",
      "outputs": [
        {
          "internalType": "uint256",
          "name": "",
          "type": "uint256"
        }
      ],
      "stateMutability": "view",
      "type": "function"
    },
    {
      "inputs": [],
      "name": "PRIZE_2ND",
      "outputs": [
        {
          "internalType": "uint256",
          "name": "",
          "type": "uint256"
        }
      ],
      "stateMutability": "view",
      "type": "function"
    },
    {
      "inputs": [],
      "name": "PRIZE_3RD",
      "outputs": [
        {
          "internalType": "uint256",
          "name": "",
          "type": "uint256"
        }
      ],
      "stateMutability": "view",
      "type": "function"
    },
    {
      "inputs": [],
      "name": "endorsements",
      "outputs": [
        {
          "internalType": "uint256",
          "name": "",
          "type": "uint256"
        }
      ],
      "stateMutability": "view",
      "type": "function"
    },
    {
      "inputs": [],
      "name": "gameId",
      "outputs": [
        {
          "internalType": "uint256",
          "name": "",
          "type": "uint256"
        }
      ],
      "stateMutability": "view",
      "type": "function"
    },
    {
      "inputs": [],
      "name": "isGameCompleted",
      "outputs": [
        {
          "internalType": "bool",
          "name": "",
          "type": "bool"
        }
      ],
      "stateMutability": "view",
      "type": "function"
    },
    {
      "inputs": [],
      "name": "metadataURI",
      "outputs": [
        {
          "internalType": "string",
          "name": "",
          "type": "string"
        }
      ],
      "stateMutability": "view",
      "type": "function"
    },
    {
      "inputs": [],
      "name": "owner",
      "outputs": [
        {
          "internalType": "address",
          "name": "",
          "type": "address"
        }
      ],
      "stateMutability": "view",
      "type": "function"
    },
    {
      "inputs": [],
      "name": "participants",
      "outputs": [
        {
          "internalType": "uint256",
          "name": "",
          "type": "uint256"
        }
      ],
      "stateMutability": "view",
      "type": "function"
    },
    {
      "inputs": [],
      "name": "pricePerRound",
      "outputs": [
        {
          "internalType": "uint256",
          "name": "",
          "type": "uint256"
        }
      ],
      "stateMutability": "view",
      "type": "function"
    },
    {
      "inputs": [
        {
          "internalType": "uint256",
          "name": "",
          "type": "uint256"
        }
      ],
      "name": "receivedAddressesArray",
      "outputs": [
        {
          "internalType": "address",
          "name": "",
          "type": "address"
        }
      ],
      "stateMutability": "view",
      "type": "function"
    },
    {
      "inputs": [],
      "name": "renounceOwnership",
      "outputs": [],
      "stateMutability": "nonpayable",
      "type": "function"
    },
    {
      "inputs": [],
      "name": "requiredEndorsers",
      "outputs": [
        {
          "internalType": "uint256",
          "name": "",
          "type": "uint256"
        }
      ],
      "stateMutability": "view",
      "type": "function"
    },
    {
      "inputs": [
        {
          "internalType": "address",
          "name": "newOwner",
          "type": "address"
        }
      ],
      "name": "transferOwnership",
      "outputs": [],
      "stateMutability": "nonpayable",
      "type": "function"
    },
    {
      "inputs": [],
      "name": "winner1st",
      "outputs": [
        {
          "internalType": "address payable",
          "name": "",
          "type": "address"
        }
      ],
      "stateMutability": "view",
      "type": "function"
    },
    {
      "inputs": [],
      "name": "winner2nd",
      "outputs": [
        {
          "internalType": "address payable",
          "name": "",
          "type": "address"
        }
      ],
      "stateMutability": "view",
      "type": "function"
    },
    {
      "inputs": [],
      "name": "winner3rd",
      "outputs": [
        {
          "internalType": "address payable",
          "name": "",
          "type": "address"
        }
      ],
      "stateMutability": "view",
      "type": "function"
    },
    {
      "stateMutability": "payable",
      "type": "receive"
    },
    {
      "inputs": [
        {
          "internalType": "string",
          "name": "uri",
          "type": "string"
        }
      ],
      "name": "setMetadataURI",
      "outputs": [],
      "stateMutability": "nonpayable",
      "type": "function"
    },
    {
      "inputs": [],
      "name": "participate",
      "outputs": [],
      "stateMutability": "payable",
      "type": "function"
    },
    {
      "inputs": [],
      "name": "refund",
      "outputs": [],
      "stateMutability": "payable",
      "type": "function"
    },
    {
      "inputs": [],
      "name": "refundEndorsement",
      "outputs": [],
      "stateMutability": "nonpayable",
      "type": "function"
    },
    {
      "inputs": [],
      "name": "claimPrize",
      "outputs": [],
      "stateMutability": "nonpayable",
      "type": "function"
    },
    {
      "inputs": [],
      "name": "claimEndorsementFee",
      "outputs": [],
      "stateMutability": "nonpayable",
      "type": "function"
    },
    {
      "inputs": [],
      "name": "didIWin",
      "outputs": [
        {
          "internalType": "bool",
          "name": "won",
          "type": "bool"
        }
      ],
      "stateMutability": "view",
      "type": "function"
    },
    {
      "inputs": [],
      "name": "beneficiaryWithdraw",
      "outputs": [],
      "stateMutability": "nonpayable",
      "type": "function"
    },
    {
      "inputs": [],
      "name": "gameCancelled",
      "outputs": [],
      "stateMutability": "nonpayable",
      "type": "function"
    },
    {
      "inputs": [],
      "name": "isGameComplete",
      "outputs": [
        {
          "internalType": "bool",
          "name": "gameComplete",
          "type": "bool"
        }
      ],
      "stateMutability": "view",
      "type": "function"
    },
    {
      "inputs": [],
      "name": "isGameCancelled",
      "outputs": [
        {
          "internalType": "bool",
          "name": "isCancelled",
          "type": "bool"
        }
      ],
      "stateMutability": "view",
      "type": "function"
    },
    {
      "inputs": [],
      "name": "totalParticipants",
      "outputs": [
        {
          "internalType": "uint256",
          "name": "participants_",
          "type": "uint256"
        }
      ],
      "stateMutability": "view",
      "type": "function"
    },
    {
      "inputs": [],
      "name": "getDeposits",
      "outputs": [
        {
          "internalType": "uint256",
          "name": "daoEscrow",
          "type": "uint256"
        },
        {
          "internalType": "uint256",
          "name": "winnersEscrow",
          "type": "uint256"
        }
      ],
      "stateMutability": "view",
      "type": "function"
    },
    {
      "inputs": [
        {
          "internalType": "address",
          "name": "operator",
          "type": "address"
        },
        {
          "internalType": "address",
          "name": "from",
          "type": "address"
        },
        {
          "internalType": "uint256",
          "name": "tokenId",
          "type": "uint256"
        },
        {
          "internalType": "bytes",
          "name": "data",
          "type": "bytes"
        }
      ],
      "name": "onERC721Received",
      "outputs": [
        {
          "internalType": "bytes4",
          "name": "",
          "type": "bytes4"
        }
      ],
      "stateMutability": "nonpayable",
      "type": "function"
    }
  ],
  "bytecode": "0x6101406040523480156200001257600080fd5b5060405162003887380380620038878339810160408190526200003591620001e0565b600080546001600160a01b031916339081178255604051909182917f8be0079c531659141344cd1fd0a4f28419497f9722a3daafe3b4186f6b6457e0908290a35060008511620000b55760405162461bcd60e51b815260206004820152600660248201526545525f30303160d01b60448201526064015b60405180910390fd5b60038611620000f05760405162461bcd60e51b815260206004820152600660248201526522a92f98181960d11b6044820152606401620000ac565b86604051620000ff90620001d2565b6200010b91906200025c565b604051809103906000f08015801562000128573d6000803e3d6000fd5b5060601b6001600160601b03191660805260405130906200014990620001d2565b6200015591906200025c565b604051809103906000f08015801562000172573d6000803e3d6000fd5b5060601b6001600160601b03191660a05260e09590955260c09390935261010091909152600580546001600160a01b03199081166001600160a01b0394851617909155600680549091169290931691909117909155610120525062000289565b610bfd8062002c8a83390190565b600080600080600080600060e0888a031215620001fc57600080fd5b8751620002098162000270565b809750506020880151955060408801519450606088015193506080880151925060a0880151620002398162000270565b60c08901519092506200024c8162000270565b8091505092959891949750929550565b6001600160a01b0391909116815260200190565b6001600160a01b03811681146200028657600080fd5b50565b60805160601c60a05160601c60c05160e05161010051610120516128b6620003d4600039600081816104540152818161073d015281816115bc0152818161161801528181611bf10152611c9f015260008181610572015281816117f001526118c301526000818161039201528181610f1401528181610fb4015281816110180152818161142b015281816119850152611cc701526000818161050601528181610f3501528181610fd501528181611039015281816114560152611ce8015260008181610192015281816101fa015281816108ed01528181610a4801528181610b9601528181610cf10152818161172101528181612018015261208b01526000818161087a01528181610b1a01528181610c3d01528181611202015281816113190152818161137a015281816114ff0152818161168201528181611b0c0152611fa501526128b66000f3fe6080604052600436106101825760003560e01c806303ee438c14610250578063150b7a021461027b578063235004ac146102b4578063291b3d60146102e157806329dd29c7146103045780632b63a58514610319578063590e1ae31461032e57806367ee66e6146103365780636b149d87146103565780636c4470fb1461038057806370740ac9146103b4578063715018a6146103c9578063750521f5146103de5780637534c9a2146103fe578063789c20f91461041e5780637ec42e691461044257806383ae869d146104765780638773f4f41461048b5780638da5cb5b146104a05780639af6549a146104b5578063a26dbf26146104ca578063acffa436146104df578063b2c744a8146104f4578063b5ae451914610528578063c39b583c1461053e578063d11711a214610558578063d62fbc351461048b578063d7c81b5514610560578063eb1b998714610594578063ec6e563d146105a9578063ee31b8cd146105be578063f2fde38b146105d3578063fe437ae7146105f3576101ef565b366101ef57336001600160a01b037f000000000000000000000000000000000000000000000000000000000000000016146101ed5760405162461bcd60e51b815260206004820152600660248201526545525f30323360d01b60448201526064015b60405180910390fd5b005b336001600160a01b037f000000000000000000000000000000000000000000000000000000000000000016146101ed5760405162461bcd60e51b8152602060048201526006602482015265115497cc0c8d60d21b60448201526064016101e4565b34801561025c57600080fd5b50610265610618565b60405161027291906126cb565b60405180910390f35b34801561028757600080fd5b5061029b61029636600461247a565b6106a6565b6040516001600160e01b03199091168152602001610272565b3480156102c057600080fd5b506003546102d4906001600160a01b031681565b6040516102729190612668565b3480156102ed57600080fd5b506102f6601481565b604051908152602001610272565b34801561031057600080fd5b506102f6600a81565b34801561032557600080fd5b506101ed61080d565b6101ed6109f1565b34801561034257600080fd5b506004546102d4906001600160a01b031681565b34801561036257600080fd5b5061036b610c38565b60408051928352602083019190915201610272565b34801561038c57600080fd5b506102f67f000000000000000000000000000000000000000000000000000000000000000081565b3480156103c057600080fd5b506101ed610d7c565b3480156103d557600080fd5b506101ed611097565b3480156103ea57600080fd5b506101ed6103f9366004612539565b6110fe565b34801561040a57600080fd5b506102d46104193660046125e9565b611144565b34801561042a57600080fd5b5060025460ff165b6040519015158152602001610272565b34801561044e57600080fd5b506102f67f000000000000000000000000000000000000000000000000000000000000000081565b34801561048257600080fd5b5061043261116e565b34801561049757600080fd5b506102f6600581565b3480156104ac57600080fd5b506102d46111b3565b3480156104c157600080fd5b506101ed6111c2565b3480156104d657600080fd5b506102f661141a565b3480156104eb57600080fd5b506102f6603c81565b34801561050057600080fd5b506102f67f000000000000000000000000000000000000000000000000000000000000000081565b34801561053457600080fd5b506102f660075481565b34801561054a57600080fd5b506002546104329060ff1681565b6101ed611454565b34801561056c57600080fd5b506102f67f000000000000000000000000000000000000000000000000000000000000000081565b3480156105a057600080fd5b506101ed6119c3565b3480156105b557600080fd5b50610432611b06565b3480156105ca57600080fd5b506101ed611bb2565b3480156105df57600080fd5b506101ed6105ee366004612439565b611d70565b3480156105ff57600080fd5b506002546102d49061010090046001600160a01b031681565b6009805461062590612775565b80601f016020809104026020016040519081016040528092919081815260200182805461065190612775565b801561069e5780601f106106735761010080835404028352916020019161069e565b820191906000526020600020905b81548152906001019060200180831161068157829003601f168201915b505050505081565b6005546000906001600160a01b031633146106ec5760405162461bcd60e51b815260206004820152600660248201526545525f30323560d01b60448201526064016101e4565b6001600160a01b0385166000908152600860205260409020541561073b5760405162461bcd60e51b815260206004820152600660248201526522a92f98191b60d11b60448201526064016101e4565b7f0000000000000000000000000000000000000000000000000000000000000000600754106107955760405162461bcd60e51b815260206004820152600660248201526545525f30323760d01b60448201526064016101e4565b6001600160a01b03851660009081526008602052604090208490556007546107be906001612713565b6007556040517f6c1db45156f46e792997773bd94e0ccff5ee22722c352b5379d5c7c1dc7b4afb906107f3908790879061267c565b60405180910390a150630a85bd0160e11b95945050505050565b336108166111b3565b6001600160a01b03161461083c5760405162461bcd60e51b81526004016101e4906126de565b60025460ff16156108785760405162461bcd60e51b815260206004820152600660248201526522a92f98191960d11b60448201526064016101e4565b7f00000000000000000000000000000000000000000000000000000000000000006001600160a01b0316638c52dc416040518163ffffffff1660e01b8152600401600060405180830381600087803b1580156108d357600080fd5b505af11580156108e7573d6000803e3d6000fd5b505050507f00000000000000000000000000000000000000000000000000000000000000006001600160a01b0316638c52dc416040518163ffffffff1660e01b8152600401600060405180830381600087803b15801561094657600080fd5b505af115801561095a573d6000803e3d6000fd5b50505050600560009054906101000a90046001600160a01b03166001600160a01b0316634d699f006040518163ffffffff1660e01b8152600401600060405180830381600087803b1580156109ae57600080fd5b505af11580156109c2573d6000803e3d6000fd5b50506040517f1dc43dc4f1689be1269b3e80407b3401b4cb752c02591cac32e47dfd758af27d925060009150a1565b6109f9611b06565b610a2e5760405162461bcd60e51b815260206004820152600660248201526508aa4be6060760d31b60448201526064016101e4565b6040516371d4ed8d60e11b81526000906001600160a01b037f0000000000000000000000000000000000000000000000000000000000000000169063e3a9db1a90610a7d903390600401612668565b60206040518083038186803b158015610a9557600080fd5b505afa158015610aa9573d6000803e3d6000fd5b505050506040513d601f19601f82011682018060405250810190610acd9190612602565b11610b035760405162461bcd60e51b815260206004820152600660248201526545525f30303960d01b60448201526064016101e4565b6040516351cff8d960e01b81526001600160a01b037f000000000000000000000000000000000000000000000000000000000000000016906351cff8d990610b4f903390600401612668565b600060405180830381600087803b158015610b6957600080fd5b505af1158015610b7d573d6000803e3d6000fd5b50506040516351cff8d960e01b81526001600160a01b037f00000000000000000000000000000000000000000000000000000000000000001692506351cff8d99150610bcd903390600401612668565b600060405180830381600087803b158015610be757600080fd5b505af1158015610bfb573d6000803e3d6000fd5b505050507f167242d43394c1ae34826c8d7544822cbe8c1071d221a571aad57cdd2c2a2fd333604051610c2e9190612668565b60405180910390a1565b6000807f00000000000000000000000000000000000000000000000000000000000000006001600160a01b031663e3a9db1a336040518263ffffffff1660e01b8152600401610c879190612668565b60206040518083038186803b158015610c9f57600080fd5b505afa158015610cb3573d6000803e3d6000fd5b505050506040513d601f19601f82011682018060405250810190610cd79190612602565b6040516371d4ed8d60e11b81529092506001600160a01b037f0000000000000000000000000000000000000000000000000000000000000000169063e3a9db1a90610d26903390600401612668565b60206040518083038186803b158015610d3e57600080fd5b505afa158015610d52573d6000803e3d6000fd5b505050506040513d601f19601f82011682018060405250810190610d769190612602565b90509091565b60025460ff16610db75760405162461bcd60e51b815260206004820152600660248201526522a92f98189960d11b60448201526064016101e4565b60025461010090046001600160a01b0316331480610ddf57506003546001600160a01b031633145b80610df457506004546001600160a01b031633145b610e295760405162461bcd60e51b815260206004820152600660248201526545525f30313360d01b60448201526064016101e4565b60025461010090046001600160a01b031633148015610e525750600454600160a01b900460ff16155b80610e7c57506003546001600160a01b031633148015610e7c5750600454600160a81b900460ff16155b80610ea657506004546001600160a01b031633148015610ea65750600454600160b01b900460ff16155b610edb5760405162461bcd60e51b8152602060048201526006602482015265115497cc0c4d60d21b60448201526064016101e4565b600254339061010090046001600160a01b0316811415610f82576004805460ff60a01b1916600160a01b179055610f7d60646014610f597f00000000000000000000000000000000000000000000000000000000000000007f000000000000000000000000000000000000000000000000000000000000000061273f565b610f63919061273f565b610f6d919061272b565b6001600160a01b03831690611e4d565b61105d565b6003546001600160a01b0316331415610ff9576004805460ff60a81b1916600160a81b179055610f7d6064600a610f597f00000000000000000000000000000000000000000000000000000000000000007f000000000000000000000000000000000000000000000000000000000000000061273f565b6004805460ff60b01b1916600160b01b17905561105d60646005610f597f00000000000000000000000000000000000000000000000000000000000000007f000000000000000000000000000000000000000000000000000000000000000061273f565b7f09f058359c5a4d11027ce8027f5f0f4df210cb3ebac92f2c584170ed78624dd83360405161108c9190612668565b60405180910390a150565b336110a06111b3565b6001600160a01b0316146110c65760405162461bcd60e51b81526004016101e4906126de565b600080546040516001600160a01b0390911690600080516020612861833981519152908390a3600080546001600160a01b0319169055565b336111076111b3565b6001600160a01b03161461112d5760405162461bcd60e51b81526004016101e4906126de565b80516111409060099060208401906123a0565b5050565b6001818154811061115457600080fd5b6000918252602090912001546001600160a01b0316905081565b60025460009061010090046001600160a01b031633148061119957506003546001600160a01b031633145b806111ae57506004546001600160a01b031633145b905090565b6000546001600160a01b031690565b6111ca611b06565b156112005760405162461bcd60e51b815260206004820152600660248201526508aa4be6062760d31b60448201526064016101e4565b7f00000000000000000000000000000000000000000000000000000000000000006001600160a01b03166338af3eed6040518163ffffffff1660e01b815260040160206040518083038186803b15801561125957600080fd5b505afa15801561126d573d6000803e3d6000fd5b505050506040513d601f19601f82011682018060405250810190611291919061245d565b6001600160a01b0316336001600160a01b0316146112da5760405162461bcd60e51b815260206004820152600660248201526545525f30313960d01b60448201526064016101e4565b60025460ff166113155760405162461bcd60e51b8152602060048201526006602482015265045525f3032360d41b60448201526064016101e4565b60007f00000000000000000000000000000000000000000000000000000000000000006001600160a01b031631116113785760405162461bcd60e51b815260206004820152600660248201526545525f30323160d01b60448201526064016101e4565b7f00000000000000000000000000000000000000000000000000000000000000006001600160a01b0316639af6549a6040518163ffffffff1660e01b8152600401600060405180830381600087803b1580156113d357600080fd5b505af11580156113e7573d6000803e3d6000fd5b505050507fcb521d22cc2e41947c2b6ccfda03178961b692e976ca005baacd005317856b1d33604051610c2e9190612668565b60025460009060ff161561144d57507f000000000000000000000000000000000000000000000000000000000000000090565b5060015490565b7f000000000000000000000000000000000000000000000000000000000000000034146114ac5760405162461bcd60e51b8152602060048201526006602482015265115497cc0c0d60d21b60448201526064016101e4565b60025460ff16156114e85760405162461bcd60e51b815260206004820152600660248201526545525f30303560d01b60448201526064016101e4565b6040516371d4ed8d60e11b81526001600160a01b037f0000000000000000000000000000000000000000000000000000000000000000169063e3a9db1a90611534903390600401612668565b60206040518083038186803b15801561154c57600080fd5b505afa158015611560573d6000803e3d6000fd5b505050506040513d601f19601f820116820180604052508101906115849190612602565b156115ba5760405162461bcd60e51b815260206004820152600660248201526522a92f98181b60d11b60448201526064016101e4565b7f0000000000000000000000000000000000000000000000000000000000000000600754146116145760405162461bcd60e51b815260206004820152600660248201526545525f30303760d01b60448201526064016101e4565b60007f000000000000000000000000000000000000000000000000000000000000000061163f575060055b6001805480820182556000919091527fb10e2d527612073b26eecdfd717e6a320cf44b4afac2b0732d9fcbe2b7fa0cf60180546001600160a01b031916331790557f00000000000000000000000000000000000000000000000000000000000000006001600160a01b031663f340fa0160646116bc84603c612713565b6116c6903461273f565b6116d0919061272b565b336040518363ffffffff1660e01b81526004016116ed9190612668565b6000604051808303818588803b15801561170657600080fd5b505af115801561171a573d6000803e3d6000fd5b50505050507f00000000000000000000000000000000000000000000000000000000000000006001600160a01b031663f340fa01606483603c61175d9190612713565b61176890606461275e565b611772903461273f565b61177c919061272b565b336040518363ffffffff1660e01b81526004016117999190612668565b6000604051808303818588803b1580156117b257600080fd5b505af11580156117c6573d6000803e3d6000fd5b505060055460405163e66a1ab160e01b8152336004820152606060248201526000606482018190527f0000000000000000000000000000000000000000000000000000000000000000604483015294506001600160a01b03909116925063e66a1ab19150608401602060405180830381600087803b15801561184757600080fd5b505af115801561185b573d6000803e3d6000fd5b505050506040513d601f19601f8201168201806040525081019061187f9190612602565b90507fb198f199c43cc078ad46e5a5fabe03eba401f7417816c86af0bd2e7345c9950633826040516118b292919061267c565b60405180910390a1600654604080517f000000000000000000000000000000000000000000000000000000000000000060208201526001600160a01b0390921691633f18c9a5910160408051601f19818403018152908290526001600160601b03193360601b16602083015290603401604051602081830303815290604052346040518463ffffffff1660e01b815260040161195093929190612695565b600060405180830381600087803b15801561196a57600080fd5b505af115801561197e573d6000803e3d6000fd5b50506001547f0000000000000000000000000000000000000000000000000000000000000000141591506111409050576002805460ff19166001179055611140611f68565b6119cb611b06565b611a005760405162461bcd60e51b8152602060048201526006602482015265045525f3031360d41b60448201526064016101e4565b33600090815260086020526040902054611a455760405162461bcd60e51b815260206004820152600660248201526545525f30313160d01b60448201526064016101e4565b3360008181526008602052604080822080549290556005549051632142170760e11b815230600482015260248101939093526044830182905290916001600160a01b039091169081906342842e0e90606401600060405180830381600087803b158015611ab157600080fd5b505af1158015611ac5573d6000803e3d6000fd5b505050507fd5ac6307b44f6b4d642c21fe19ab8d191a20a68eaf085cdfc26ca5ebba10e6a13383604051611afa92919061267c565b60405180910390a15050565b600060017f00000000000000000000000000000000000000000000000000000000000000006001600160a01b031663c19d93fb6040518163ffffffff1660e01b815260040160206040518083038186803b158015611b6357600080fd5b505afa158015611b77573d6000803e3d6000fd5b505050506040513d601f19601f82011682018060405250810190611b9b9190612518565b6002811115611bac57611bac6127f0565b14905090565b60025460ff16611bed5760405162461bcd60e51b815260206004820152600660248201526545525f30313560d01b60448201526064016101e4565b60007f000000000000000000000000000000000000000000000000000000000000000011611c465760405162461bcd60e51b815260206004820152600660248201526522a92f98189b60d11b60448201526064016101e4565b33600090815260086020526040902054611c8b5760405162461bcd60e51b815260206004820152600660248201526545525f30313760d01b60448201526064016101e4565b3360008181526008602052604081208190557f000000000000000000000000000000000000000000000000000000000000000060646005611d0c7f00000000000000000000000000000000000000000000000000000000000000007f000000000000000000000000000000000000000000000000000000000000000061273f565b611d16919061273f565b611d20919061272b565b611d2a919061272b565b9050611d3f6001600160a01b03831682611e4d565b7f7a10dc0e616dab082dec16c066cf08dca1a814e025df12b69253b7077fc9b76d3382604051611afa92919061267c565b33611d796111b3565b6001600160a01b031614611d9f5760405162461bcd60e51b81526004016101e4906126de565b6001600160a01b038116611e045760405162461bcd60e51b815260206004820152602660248201527f4f776e61626c653a206e6577206f776e657220697320746865207a65726f206160448201526564647265737360d01b60648201526084016101e4565b600080546040516001600160a01b038085169392169160008051602061286183398151915291a3600080546001600160a01b0319166001600160a01b0392909216919091179055565b80471015611e9d5760405162461bcd60e51b815260206004820152601d60248201527f416464726573733a20696e73756666696369656e742062616c616e636500000060448201526064016101e4565b6000826001600160a01b03168260405160006040518083038185875af1925050503d8060008114611eea576040519150601f19603f3d011682016040523d82523d6000602084013e611eef565b606091505b5050905080611f635760405162461bcd60e51b815260206004820152603a60248201527f416464726573733a20756e61626c6520746f2073656e642076616c75652c20726044820152791958da5c1a595b9d081b585e481a185d99481c995d995c9d195960321b60648201526084016101e4565b505050565b60025460ff16611fa35760405162461bcd60e51b815260206004820152600660248201526545525f30303360d01b60448201526064016101e4565b7f00000000000000000000000000000000000000000000000000000000000000006001600160a01b03166343d726d66040518163ffffffff1660e01b8152600401600060405180830381600087803b158015611ffe57600080fd5b505af1158015612012573d6000803e3d6000fd5b505050507f00000000000000000000000000000000000000000000000000000000000000006001600160a01b03166343d726d66040518163ffffffff1660e01b8152600401600060405180830381600087803b15801561207157600080fd5b505af1158015612085573d6000803e3d6000fd5b505050507f00000000000000000000000000000000000000000000000000000000000000006001600160a01b0316639af6549a6040518163ffffffff1660e01b8152600401600060405180830381600087803b1580156120e457600080fd5b505af11580156120f8573d6000803e3d6000fd5b505050506000612106612255565b905061212061211b6001805490508344612274565b6122c0565b600280546001600160a01b039290921661010002610100600160a81b03199092169190911790556001546121599061211b908342612274565b600380546001600160a01b0319166001600160a01b039290921691909117905560015461218c9061211b90836000612274565b600480546001600160a01b0319166001600160a01b0392831617815560055460408051624d699f60e81b815290519190931692634d699f00928181019260009290919082900301818387803b1580156121e457600080fd5b505af11580156121f8573d6000803e3d6000fd5b5050600254600354600454604080516101009094046001600160a01b03908116855292831660208501529116908201527f15d257b91b144902b272fec7302c18e20e02e8199fcd6189b64447b87180c3379250606001905061108c565b60008060405160208160208460ff600019fa61226d57fe5b5192915050565b6000808383604051602001612293929190918252602082015260400190565b60408051601f19818403018152919052805160209091012090506122b785826127b0565b95945050505050565b6000600182815481106122d5576122d561281c565b600091825260209091200154600180546001600160a01b039092169250906122fe90829061275e565b8154811061230e5761230e61281c565b600091825260209091200154600180546001600160a01b03909216918490811061233a5761233a61281c565b9060005260206000200160006101000a8154816001600160a01b0302191690836001600160a01b03160217905550600180548061237957612379612806565b600082815260209020810160001990810180546001600160a01b0319169055019055919050565b8280546123ac90612775565b90600052602060002090601f0160209004810192826123ce5760008555612414565b82601f106123e757805160ff1916838001178555612414565b82800160010185558215612414579182015b828111156124145782518255916020019190600101906123f9565b50612420929150612424565b5090565b5b808211156124205760008155600101612425565b60006020828403121561244b57600080fd5b813561245681612848565b9392505050565b60006020828403121561246f57600080fd5b815161245681612848565b60008060008060006080868803121561249257600080fd5b853561249d81612848565b945060208601356124ad81612848565b93506040860135925060608601356001600160401b03808211156124d057600080fd5b818801915088601f8301126124e457600080fd5b8135818111156124f357600080fd5b89602082850101111561250557600080fd5b9699959850939650602001949392505050565b60006020828403121561252a57600080fd5b81516003811061245657600080fd5b60006020828403121561254b57600080fd5b81356001600160401b038082111561256257600080fd5b818401915084601f83011261257657600080fd5b81358181111561258857612588612832565b604051601f8201601f19908116603f011681019083821181831017156125b0576125b0612832565b816040528281528760208487010111156125c957600080fd5b826020860160208301376000928101602001929092525095945050505050565b6000602082840312156125fb57600080fd5b5035919050565b60006020828403121561261457600080fd5b5051919050565b6000815180845260005b8181101561264157602081850181015186830182015201612625565b81811115612653576000602083870101525b50601f01601f19169290920160200192915050565b6001600160a01b0391909116815260200190565b6001600160a01b03929092168252602082015260400190565b6060815260006126a8606083018661261b565b82810360208401526126ba818661261b565b915050826040830152949350505050565b602081526000612456602083018461261b565b6020808252818101527f4f776e61626c653a2063616c6c6572206973206e6f7420746865206f776e6572604082015260600190565b60008219821115612726576127266127c4565b500190565b60008261273a5761273a6127da565b500490565b6000816000190483118215151615612759576127596127c4565b500290565b600082821015612770576127706127c4565b500390565b600181811c9082168061278957607f821691505b602082108114156127aa57634e487b7160e01b600052602260045260246000fd5b50919050565b6000826127bf576127bf6127da565b500690565b634e487b7160e01b600052601160045260246000fd5b634e487b7160e01b600052601260045260246000fd5b634e487b7160e01b600052602160045260246000fd5b634e487b7160e01b600052603160045260246000fd5b634e487b7160e01b600052603260045260246000fd5b634e487b7160e01b600052604160045260246000fd5b6001600160a01b038116811461285d57600080fd5b5056fe8be0079c531659141344cd1fd0a4f28419497f9722a3daafe3b4186f6b6457e0a2646970667358221220e4be37dfa2328b0cff64f43b51b769b46cd38ed7eaff55a76daf1c290d3edc4564736f6c6343000806003360a060405234801561001057600080fd5b50604051610bfd380380610bfd83398101604081905261002f916100ff565b600080546001600160a01b031916339081178255604051909182917f8be0079c531659141344cd1fd0a4f28419497f9722a3daafe3b4186f6b6457e0908290a3506001600160a01b0381166100e05760405162461bcd60e51b815260206004820152602d60248201527f526566756e64457363726f773a2062656e65666963696172792069732074686560448201526c207a65726f206164647265737360981b606482015260840160405180910390fd5b60601b6001600160601b0319166080526002805460ff1916905561012f565b60006020828403121561011157600080fd5b81516001600160a01b038116811461012857600080fd5b9392505050565b60805160601c610ab061014d60003960006102220152610ab06000f3fe6080604052600436106100975760003560e01c806338af3eed1461009c57806343d726d6146100ce57806351cff8d9146100e5578063685ca19414610105578063715018a6146101355780638c52dc411461014a5780638da5cb5b1461015f5780639af6549a14610174578063c19d93fb14610189578063e3a9db1a146101a9578063f2fde38b146101ed578063f340fa011461020d575b600080fd5b3480156100a857600080fd5b506100b1610220565b6040516001600160a01b0390911681526020015b60405180910390f35b3480156100da57600080fd5b506100e3610244565b005b3480156100f157600080fd5b506100e3610100366004610988565b61032b565b34801561011157600080fd5b50610125610120366004610988565b6103a8565b60405190151581526020016100c5565b34801561014157600080fd5b506100e36103ca565b34801561015657600080fd5b506100e3610431565b34801561016b57600080fd5b506100b1610519565b34801561018057600080fd5b506100e3610528565b34801561019557600080fd5b5060025460ff166040516100c591906109ac565b3480156101b557600080fd5b506101df6101c4366004610988565b6001600160a01b031660009081526001602052604090205490565b6040519081526020016100c5565b3480156101f957600080fd5b506100e3610208366004610988565b6105cb565b6100e361021b366004610988565b6106a8565b7f000000000000000000000000000000000000000000000000000000000000000090565b3361024d610519565b6001600160a01b03161461027c5760405162461bcd60e51b8152600401610273906109d4565b60405180910390fd5b600060025460ff16600281111561029557610295610a2f565b146102f45760405162461bcd60e51b815260206004820152602960248201527f526566756e64457363726f773a2063616e206f6e6c7920636c6f7365207768696044820152686c652061637469766560b81b6064820152608401610273565b6002805460ff1916811790556040517f088672c3a6e342f7cd94a65ba63b79df24a8973927b4d05d803c44bbf787d12f90600090a1565b610334816103a8565b61039c5760405162461bcd60e51b815260206004820152603360248201527f436f6e646974696f6e616c457363726f773a207061796565206973206e6f7420604482015272616c6c6f77656420746f20776974686472617760681b6064820152608401610273565b6103a58161072b565b50565b6000600160025460ff1660028111156103c3576103c3610a2f565b1492915050565b336103d3610519565b6001600160a01b0316146103f95760405162461bcd60e51b8152600401610273906109d4565b600080546040516001600160a01b0390911690600080516020610a5b833981519152908390a3600080546001600160a01b0319169055565b3361043a610519565b6001600160a01b0316146104605760405162461bcd60e51b8152600401610273906109d4565b600060025460ff16600281111561047957610479610a2f565b146104e15760405162461bcd60e51b815260206004820152603260248201527f526566756e64457363726f773a2063616e206f6e6c7920656e61626c6520726560448201527166756e6473207768696c652061637469766560701b6064820152608401610273565b6002805460ff191660011790556040517f599d8e5a83cffb867d051598c4d70e805d59802d8081c1c7d6dffc5b6aca2b8990600090a1565b6000546001600160a01b031690565b6002805460ff16600281111561054057610540610a2f565b146105ae5760405162461bcd60e51b815260206004820152603860248201527f526566756e64457363726f773a2062656e65666963696172792063616e206f6e6044820152771b1e481dda5d1a191c985dc81dda1a5b194818db1bdcd95960421b6064820152608401610273565b6105c9476105ba610220565b6001600160a01b0316906107c9565b565b336105d4610519565b6001600160a01b0316146105fa5760405162461bcd60e51b8152600401610273906109d4565b6001600160a01b03811661065f5760405162461bcd60e51b815260206004820152602660248201527f4f776e61626c653a206e6577206f776e657220697320746865207a65726f206160448201526564647265737360d01b6064820152608401610273565b600080546040516001600160a01b0380851693921691600080516020610a5b83398151915291a3600080546001600160a01b0319166001600160a01b0392909216919091179055565b600060025460ff1660028111156106c1576106c1610a2f565b146107225760405162461bcd60e51b815260206004820152602b60248201527f526566756e64457363726f773a2063616e206f6e6c79206465706f736974207760448201526a68696c652061637469766560a81b6064820152608401610273565b6103a5816108e4565b33610734610519565b6001600160a01b03161461075a5760405162461bcd60e51b8152600401610273906109d4565b6001600160a01b038116600081815260016020526040812080549190559061078290826107c9565b816001600160a01b03167f7084f5476618d8e60b11ef0d7d3f06914655adb8793e28ff7f018d4c76d505d5826040516107bd91815260200190565b60405180910390a25050565b804710156108195760405162461bcd60e51b815260206004820152601d60248201527f416464726573733a20696e73756666696369656e742062616c616e63650000006044820152606401610273565b6000826001600160a01b03168260405160006040518083038185875af1925050503d8060008114610866576040519150601f19603f3d011682016040523d82523d6000602084013e61086b565b606091505b50509050806108df5760405162461bcd60e51b815260206004820152603a60248201527f416464726573733a20756e61626c6520746f2073656e642076616c75652c20726044820152791958da5c1a595b9d081b585e481a185d99481c995d995c9d195960321b6064820152608401610273565b505050565b336108ed610519565b6001600160a01b0316146109135760405162461bcd60e51b8152600401610273906109d4565b6001600160a01b0381166000908152600160205260409020543490610939908290610a09565b6001600160a01b038316600081815260016020526040908190209290925590517f2da466a7b24304f47e87fa2e1e5a81b9831ce54fec19055ce277ca2f39ba42c4906107bd9084815260200190565b60006020828403121561099a57600080fd5b81356109a581610a45565b9392505050565b60208101600383106109ce57634e487b7160e01b600052602160045260246000fd5b91905290565b6020808252818101527f4f776e61626c653a2063616c6c6572206973206e6f7420746865206f776e6572604082015260600190565b60008219821115610a2a57634e487b7160e01b600052601160045260246000fd5b500190565b634e487b7160e01b600052602160045260246000fd5b6001600160a01b03811681146103a557600080fdfe8be0079c531659141344cd1fd0a4f28419497f9722a3daafe3b4186f6b6457e0a2646970667358221220d7a9c97dcf6583e28e354922d4613415acfbb9b8194dd3af5a299b2da7e8509d64736f6c63430008060033",
  "immutableReferences": {
    "86": [
      {
        "length": 32,
        "start": 2170
      },
      {
        "length": 32,
        "start": 2842
      },
      {
        "length": 32,
        "start": 3133
      },
      {
        "length": 32,
        "start": 4610
      },
      {
        "length": 32,
        "start": 4889
      },
      {
        "length": 32,
        "start": 4986
      },
      {
        "length": 32,
        "start": 5375
      },
      {
        "length": 32,
        "start": 5762
      },
      {
        "length": 32,
        "start": 6924
      },
      {
        "length": 32,
        "start": 8101
      }
    ],
    "89": [
      {
        "length": 32,
        "start": 402
      },
      {
        "length": 32,
        "start": 506
      },
      {
        "length": 32,
        "start": 2285
      },
      {
        "length": 32,
        "start": 2632
      },
      {
        "length": 32,
        "start": 2966
      },
      {
        "length": 32,
        "start": 3313
      },
      {
        "length": 32,
        "start": 5921
      },
      {
        "length": 32,
        "start": 8216
      },
      {
        "length": 32,
        "start": 8331
      }
    ],
    "91": [
      {
        "length": 32,
        "start": 1286
      },
      {
        "length": 32,
        "start": 3893
      },
      {
        "length": 32,
        "start": 4053
      },
      {
        "length": 32,
        "start": 4153
      },
      {
        "length": 32,
        "start": 5206
      },
      {
        "length": 32,
        "start": 7400
      }
    ],
    "93": [
      {
        "length": 32,
        "start": 914
      },
      {
        "length": 32,
        "start": 3860
      },
      {
        "length": 32,
        "start": 4020
      },
      {
        "length": 32,
        "start": 4120
      },
      {
        "length": 32,
        "start": 5163
      },
      {
        "length": 32,
        "start": 6533
      },
      {
        "length": 32,
        "start": 7367
      }
    ],
    "95": [
      {
        "length": 32,
        "start": 1394
      },
      {
        "length": 32,
        "start": 6128
      },
      {
        "length": 32,
        "start": 6339
      }
    ],
    "97": [
      {
        "length": 32,
        "start": 1108
      },
      {
        "length": 32,
        "start": 1853
      },
      {
        "length": 32,
        "start": 5564
      },
      {
        "length": 32,
        "start": 5656
      },
      {
        "length": 32,
        "start": 7153
      },
      {
        "length": 32,
        "start": 7327
      }
    ]
  },
  "source": "// SPDX-License-Identifier: MIT\npragma solidity >=0.4.22 <0.9.0;\n\nimport \"@openzeppelin/contracts/utils/escrow/RefundEscrow.sol\";\nimport \"@openzeppelin/contracts/utils/escrow/Escrow.sol\";\nimport \"@openzeppelin/contracts/utils/Address.sol\";\nimport \"@openzeppelin/contracts/access/Ownable.sol\";\nimport \"@openzeppelin/contracts/token/ERC721/IERC721Receiver.sol\";\nimport \"@openzeppelin/contracts/token/ERC721/IERC721.sol\";\n\nimport \"./reports/Report.sol\";\nimport \"./ISocialGameToken.sol\";\n\n/**\n * @title Social Change Game\n * @notice Smart Contract developed for the Harmony One Round 2 Hackathon on Gitcoin\n * @dev Contract to operate the Social Game, receiving entries via deposits into\n * an escrow and releasing or cancelling the game depending on configuration.\n *\n * Contract should be created as part of the {SocialGameToken}-{createSocialGame} function.\n * It can also be created if a user transfers an ERC721 token to the {SocialGameToken} contract\n *\n * Intended usage: this contract is a standalone contract that manages business logic\n * around an escrow and the number of depositors of fixed amount of tokens. An external\n * oracle is used to determine the winner of the game, and a percentage of the escrow\n * is sent to Philantropic causes (DAO). A refund option is provided that can be triggered\n * by contract owner in cases where the social game expires or other external factors occur.\n * Refunds are pull-based meaning users must initiate a recovery of funds upon refund\n *\n * Note A game may only starts when sufficient people have endorsed it. The first game does not\n * require endorsement and is used to distribute initial SocialGameTokens.\n * Endorsement is currently configured to be optional and can be disabled by setting required\n * endorsements to 0 during contract creation\n *\n * Todo properly define appropriate tokenomics; should these tokens be deflationary?\n * See https://docs.google.com/spreadsheets/d/1QR9s4YUO7YEqH933wQlDOv62hYiRj5q-pvqEHaLnOkk/edit?usp=sharing\n * for token analytics with some assumptions\n *\n * @author victaphu\n */\ncontract SocialGame is Ownable, IERC721Receiver {\n    using Address for address payable;\n\n    event Participated(address participant, uint256 value);\n    event Refunded(address depositor);\n    event EndorsementRefunded(address endorser, uint256 tokenId);\n    event BeneficiaryWithdrawn(address beneficiary);\n    event PrizeClaimed(address beneficiary);\n    event EndorsementFeeClaimed(address endorser, uint256 value);\n    event GameCompleted(address first, address second, address third);\n    event GameCancelled();\n    event EndorsementReceived(address endorser, uint256 tokenId);\n\n    // this is for the beneficiary (daoFund)\n    RefundEscrow private immutable _daoEscrow;\n\n    // this is for the winners, owned by the smart contract itself\n    RefundEscrow private immutable _winnersEscrow;\n\n    uint256 public immutable pricePerRound;\n    uint256 public immutable participants;\n    uint256 public immutable gameId;\n    uint256 public immutable requiredEndorsers;\n    address[] public receivedAddressesArray;\n    bool public isGameCompleted;\n\n    // constants for the game\n    uint256 public constant PRIZE_1ST = 20;\n    uint256 public constant PRIZE_2ND = 10;\n    uint256 public constant PRIZE_3RD = 5;\n    uint256 public constant FUNDS_DAO = 60;\n    uint256 public constant ENDORSE_FEE = 5;\n\n    address payable public winner1st;\n    address payable public winner2nd;\n    address payable public winner3rd;\n\n    bool private _1stPrizeClaimed;\n    bool private _2ndPrizeClaimed;\n    bool private _3rdPrizeClaimed;\n\n    ISocialGameToken private _socialGameToken;\n    Report private _reporting;\n\n    // endorsements (need 20 endorsements to start the game)\n    uint256 public endorsements;\n\n    // capture the endorsers and allow for refund if the game is cancelled\n    // one address endorse only once\n    mapping(address => uint256) private _endorsers;\n\n    string public metadataURI;\n\n    /**\n     * @dev immutable configuration objects initialised in the contructor,\n     * including the benefactor of the escrowed funds\n     */\n\n    constructor(\n        address payable beneficiary_,\n        uint256 participants_,\n        uint256 pricePerRound_,\n        uint256 gameId_,\n        uint256 requiredEndorsers_,\n        address socialGameToken_,\n        address reporting_\n    ) {\n        require(pricePerRound_ > 0, \"ER_001\");\n        require(participants_ > 3, \"ER_002\");\n\n        _daoEscrow = new RefundEscrow(beneficiary_);\n        _winnersEscrow = new RefundEscrow(payable(address(this)));\n        participants = participants_;\n        pricePerRound = pricePerRound_;\n        gameId = gameId_;\n        _socialGameToken = ISocialGameToken(socialGameToken_);\n        _reporting = Report(reporting_);\n        requiredEndorsers = requiredEndorsers_;\n    }\n\n    function setMetadataURI(string memory uri) public onlyOwner {\n        metadataURI = uri;\n    }\n\n    /**\n     * @dev pick a winner randomly and remove it from the list of participants\n     */\n    function pickWinner(uint256 value_)\n        private\n        returns (address payable winner)\n    {\n        // prevent the same address from being picked again by removing it\n        // first we switch the last spot with the randomly selected spot, then\n        // we pop the array to remove the last slot\n\n        winner = payable(receivedAddressesArray[value_]);\n        receivedAddressesArray[value_] = receivedAddressesArray[\n            receivedAddressesArray.length - 1\n        ];\n        receivedAddressesArray.pop();\n    }\n\n    /**\n     * @dev Call this on game completion to indicate game is completed and payouts\n     * should start to happen\n     *\n     * Emits {GameCompleted} event\n     */\n    function gameCompleted() private {\n        require(isGameComplete(), \"ER_003\");\n        _daoEscrow.close();\n        _winnersEscrow.close();\n        _winnersEscrow.beneficiaryWithdraw(); // withdraw the prize to this smart contract\n\n        bytes32 seed = vrf();\n        winner1st = pickWinner(\n            randomWithVRFSeed(\n                receivedAddressesArray.length,\n                seed,\n                block.difficulty\n            )\n        );\n        winner2nd = pickWinner(\n            randomWithVRFSeed(\n                receivedAddressesArray.length,\n                seed,\n                block.timestamp\n            )\n        );\n        winner3rd = pickWinner(\n            randomWithVRFSeed(receivedAddressesArray.length, seed, uint256(0))\n        );\n\n        _socialGameToken.gameCompleted();\n\n        emit GameCompleted(winner1st, winner2nd, winner3rd);\n    }\n\n    /**\n     * @dev create a random value using a seed (VRF) and the nounce. It is important that the\n     * seed is random.\n     *\n     * @param maxValue_ the maximum value (used for modulo)\n     * @param seed_ a random value derived from the environment\n     * @param nounce_ a value that is used as a nounce to extract random values from a single seed\n     * @return result random value derived from the parameters\n     */\n    function randomWithVRFSeed(\n        uint256 maxValue_,\n        bytes32 seed_,\n        uint256 nounce_\n    ) private pure returns (uint256 result) {\n        uint256 packed = uint256(keccak256(abi.encodePacked(seed_, nounce_)));\n        result = uint256(packed % maxValue_);\n    }\n\n    /**\n     * @dev retrieve the number which is the VRF for each block\n     * https://github.com/harmony-one/harmony/issues/3719\n     *\n     * @return result the VRF assocaited with the current block\n     */\n    function vrf() private view returns (bytes32 result) {\n        bytes32 input;\n        assembly {\n            let memPtr := mload(0x40)\n            if iszero(staticcall(not(0), 0xff, input, 32, memPtr, 32)) {\n                invalid()\n            }\n            result := mload(memPtr)\n        }\n    }\n\n    /**\n     * @dev Participate in the Social Game by transferring appropriate amount.\n     * Increases player count and records the address that transferred\n     *\n     * note: Sent value must match expected price per round, gamue must still be active, and\n     * msg.sender must not have already participated.\n     * Funds are sent to two escrows, a daoEscrow for the DAO, and a winnersEscrow\n     * for money to be claimed by the winners\n     *\n     * Emits a {Participated} event\n     */\n    function participate() external payable virtual {\n        require(msg.value == pricePerRound, \"ER_004\");\n        require(isGameCompleted == false, \"ER_005\");\n        require(_daoEscrow.depositsOf(msg.sender) == 0, \"ER_006\");\n        require(\n            endorsements == requiredEndorsers,\n            \"ER_007\"\n        );\n\n        uint256 additional = 0;\n        if (requiredEndorsers == 0) {\n            additional = ENDORSE_FEE;\n        }\n\n        receivedAddressesArray.push(msg.sender);\n        _daoEscrow.deposit{value: (msg.value * (FUNDS_DAO + additional)) / 100}(\n            msg.sender\n        );\n        _winnersEscrow.deposit{\n            value: (msg.value * (100 - (FUNDS_DAO + additional))) / 100\n        }(msg.sender);\n\n        uint256 value = _socialGameToken.enterGame(msg.sender, \"\", gameId);\n\n        emit Participated(msg.sender, value);\n\n        // update the player + game to indicate an entry to the game\n        // key is address of the owner of the social game, and the game id\n        _reporting.updateLatestReport(\n            abi.encodePacked(gameId),\n            abi.encodePacked(msg.sender),\n            msg.value\n        );\n\n        // close this if the\n        if (receivedAddressesArray.length == participants) {\n            isGameCompleted = true;\n            gameCompleted();\n        }\n    }\n\n    /**\n     * @dev allow user who contributed to get refund from both the daoEscrow and\n     * winners escrow if the game has been cancelled\n     *\n     * Emits {Refunded} event\n     */\n    function refund() external payable virtual {\n        require(isGameCancelled(), \"ER_008\");\n        require(\n            _winnersEscrow.depositsOf(msg.sender) > 0,\n            \"ER_009\"\n        );\n\n        _daoEscrow.withdraw(payable(msg.sender));\n        _winnersEscrow.withdraw(payable(msg.sender));\n\n        emit Refunded(msg.sender);\n    }\n\n    /**\n     * @dev allow endorser to get a refund on their ticket if the game was cancelled\n     *\n     * Emits {EndorserRefunded} event\n     */\n    function refundEndorsement() external virtual {\n        require(\n            isGameCancelled(),\n            \"ER_010\"\n        );\n        require(\n            _endorsers[msg.sender] > 0,\n            \"ER_011\"\n        );\n\n        uint256 token = _endorsers[msg.sender];\n        _endorsers[msg.sender] = 0;\n\n        IERC721 erc721 = IERC721(address(_socialGameToken));\n        erc721.safeTransferFrom(address(this), msg.sender, token);\n\n        emit EndorsementRefunded(msg.sender, token);\n    }\n    /**\n     * @dev enable winners of the game to withdraw, only if the game is complete\n     * and msg sender matches winner\n     *\n     * Emits {PrizeClaimed} event\n     */\n    function claimPrize() external virtual {\n        require(\n            isGameComplete(),\n            \"ER_012\"\n        );\n        require(\n            msg.sender == winner1st ||\n                msg.sender == winner2nd ||\n                msg.sender == winner3rd,\n            \"ER_013\"\n        );\n        require(\n            (msg.sender == winner1st && _1stPrizeClaimed == false) ||\n                (msg.sender == winner2nd && _2ndPrizeClaimed == false) ||\n                (msg.sender == winner3rd && _3rdPrizeClaimed == false),\n            \"ER_014\"\n        );\n\n        address payable payoutAddress = payable(msg.sender);\n\n        if (msg.sender == winner1st) {\n            _1stPrizeClaimed = true;\n            payoutAddress.sendValue(\n                (pricePerRound * participants * PRIZE_1ST) / 100\n            );\n        } else if (msg.sender == winner2nd) {\n            _2ndPrizeClaimed = true;\n            payoutAddress.sendValue(\n                (pricePerRound * participants * PRIZE_2ND) / 100\n            );\n        } else {\n            _3rdPrizeClaimed = true;\n            payoutAddress.sendValue(\n                (pricePerRound * participants * PRIZE_3RD) / 100\n            );\n        }\n\n        emit PrizeClaimed(msg.sender);\n    }\n\n    /**\n     * @dev enable endorsers to claim their share of the endorsement fee. Endorsement is set at 5% and endorsers share\n     * in a pool once the game is completed. Must revert if not part of endorsement list, or if the game is not complete\n     *\n     * Emits {EndorsementFeeClaimed} event\n     */\n    function claimEndorsementFee() external virtual {\n        require(\n            isGameComplete(),\n            \"ER_015\"\n        );\n        require(\n            requiredEndorsers > 0,\n            \"ER_016\"\n        );\n        require(\n            _endorsers[msg.sender] > 0,\n            \"ER_017\"\n        );\n\n        _endorsers[msg.sender] = 0;\n        address payable payoutAddress = payable(msg.sender);\n\n        uint256 refundValue = (pricePerRound * participants * ENDORSE_FEE) /\n            100 /\n            requiredEndorsers;\n\n        payoutAddress.sendValue(refundValue);\n\n        emit EndorsementFeeClaimed(msg.sender, refundValue);\n    }\n\n    /**\n     * @dev helper function to determine if the msg.sender won\n     * @return won whether the msg.sender is part of the winning address set\n     */\n    function didIWin() external view virtual returns (bool won) {\n        won =\n            winner1st == msg.sender ||\n            winner2nd == msg.sender ||\n            winner3rd == msg.sender;\n    }\n\n    /**\n     * @dev enable the DAO to withdraw the funds. only if the game is complete and\n     * the address of DAO matches the contructor address\n     *\n     * Emits {BeneficiaryWithdrawn} event\n     */\n    function beneficiaryWithdraw() external virtual {\n        require(\n            isGameCancelled() == false,\n            \"ER_018\"\n        );\n        require(\n            msg.sender == _daoEscrow.beneficiary(),\n            \"ER_019\"\n        );\n        require(\n            isGameComplete(),\n            \"ER_020\"\n        );\n        require(\n            address(_daoEscrow).balance > 0,\n            \"ER_021\"\n        );\n\n        _daoEscrow.beneficiaryWithdraw();\n\n        emit BeneficiaryWithdrawn(msg.sender);\n    }\n\n    /**\n     * @dev Called when the game is cancelled. This is called by the owner\n     * and allows the depositors to get their money back\n     *\n     * Emits {GameCancelled} event\n     */\n    function gameCancelled() public onlyOwner {\n        require(isGameComplete() == false, \"ER_022\");\n\n        _daoEscrow.enableRefunds();\n        _winnersEscrow.enableRefunds();\n\n        // even tho game was cancelled, enable NFT transfers as users paid for the gas to mint it\n        _socialGameToken.gameCompleted();\n\n        emit GameCancelled();\n    }\n\n    /**\n     * @dev check if game is complete. game complete when the participants\n     * required for deposits are matched\n     *\n     * @return gameComplete whether the game is completed\n     */\n    function isGameComplete() public view returns (bool gameComplete) {\n        gameComplete = isGameCompleted;\n    }\n\n    /**\n     * @dev check is game is cancelled. a game is cancelled by the contract\n     * owner. cancelled contracts enable refunds by the\n     *\n     * @return isCancelled whether the game has been cancelled\n     */\n    function isGameCancelled() public view returns (bool isCancelled) {\n        isCancelled = _daoEscrow.state() == RefundEscrow.State.Refunding;\n    }\n\n    /**\n     * @dev Get total number of participants so far\n     *\n     * @return participants_ current number of participants\n     */\n    function totalParticipants() public view returns (uint256 participants_) {\n        if (isGameCompleted) {\n            participants_ = participants;\n        } else {\n            participants_ = receivedAddressesArray.length;\n        }\n    }\n\n    /**\n     * @dev get dao and winners escrow values for caller of this function\n     *\n     * @return daoEscrow total value in dao escrow\n     * @return winnersEscrow total value in winners' escrow\n     */\n    function getDeposits()\n        public\n        view\n        returns (uint256 daoEscrow, uint256 winnersEscrow)\n    {\n        daoEscrow = _daoEscrow.depositsOf(msg.sender);\n        winnersEscrow = _winnersEscrow.depositsOf(msg.sender);\n    }\n\n    // function for receiving tokens\n    receive() external payable {\n        require(\n            msg.sender == address(_winnersEscrow),\n            \"ER_023\"\n        );\n    }\n\n    // Fallback function is called when msg.data is not empty\n    fallback() external payable {\n        require(\n            msg.sender == address(_winnersEscrow),\n            \"ER_024\"\n        );\n    }\n\n    /**\n     * @dev before a game begins it must be endorsed by 20 unique addresses holding a Social Game Token. They can endorse a\n     * game by transferring their token into the address of the game. This function can only be called by the deployed\n     * SocialGameToken contract that was used to create the game. The 20 endorsers is an arbitrary number for the purpose of\n     * the hackathon, proper tokenecomics should be applied and numbers adjusted to better balance token inflation/deflation.\n     *\n     * Note the initial deployment of the social game token will trigger off an initial endorser offering. During this offering\n     * there is no endorsement requirement for the game. This will seed the endorsers so that additional games can begin\n     */\n    function onERC721Received(\n        address operator,\n        address from,\n        uint256 tokenId,\n        bytes calldata data\n    ) external override returns (bytes4) {\n        require(\n            msg.sender == address(_socialGameToken),\n            \"ER_025\"\n        );\n        require(_endorsers[from] == 0, \"ER_026\");\n        require(\n            endorsements < requiredEndorsers,\n            \"ER_027\"\n        );\n\n        _endorsers[from] = tokenId;\n        endorsements = endorsements + 1;\n\n        emit EndorsementReceived(from, tokenId);\n\n        // receive ERC721 transfer; must be from the social game token.\n        return this.onERC721Received.selector;\n    }\n}\n",
  "sourcePath": "/Users/noorjehanphu/dev/social-harmony/truffle/contracts/SocialGame.sol",
  "compiler": {
    "name": "solc",
    "version": "0.8.6+commit.11564f7e.Emscripten.clang"
  },
  "schemaVersion": "3.4.1",
  "updatedAt": "2021-07-19T20:06:47.956Z",
  "devdoc": {
    "author": "victaphu",
    "details": "Contract to operate the Social Game, receiving entries via deposits into an escrow and releasing or cancelling the game depending on configuration. Contract should be created as part of the {SocialGameToken}-{createSocialGame} function. It can also be created if a user transfers an ERC721 token to the {SocialGameToken} contract Intended usage: this contract is a standalone contract that manages business logic around an escrow and the number of depositors of fixed amount of tokens. An external oracle is used to determine the winner of the game, and a percentage of the escrow is sent to Philantropic causes (DAO). A refund option is provided that can be triggered by contract owner in cases where the social game expires or other external factors occur. Refunds are pull-based meaning users must initiate a recovery of funds upon refund Note A game may only starts when sufficient people have endorsed it. The first game does not require endorsement and is used to distribute initial SocialGameTokens. Endorsement is currently configured to be optional and can be disabled by setting required endorsements to 0 during contract creation Todo properly define appropriate tokenomics; should these tokens be deflationary? See https://docs.google.com/spreadsheets/d/1QR9s4YUO7YEqH933wQlDOv62hYiRj5q-pvqEHaLnOkk/edit?usp=sharing for token analytics with some assumptions",
    "kind": "dev",
    "methods": {
      "beneficiaryWithdraw()": {
        "details": "enable the DAO to withdraw the funds. only if the game is complete and the address of DAO matches the contructor address Emits {BeneficiaryWithdrawn} event"
      },
      "claimEndorsementFee()": {
        "details": "enable endorsers to claim their share of the endorsement fee. Endorsement is set at 5% and endorsers share in a pool once the game is completed. Must revert if not part of endorsement list, or if the game is not complete Emits {EndorsementFeeClaimed} event"
      },
      "claimPrize()": {
        "details": "enable winners of the game to withdraw, only if the game is complete and msg sender matches winner Emits {PrizeClaimed} event"
      },
      "constructor": {
        "details": "immutable configuration objects initialised in the contructor, including the benefactor of the escrowed funds"
      },
      "didIWin()": {
        "details": "helper function to determine if the msg.sender won",
        "returns": {
          "won": "whether the msg.sender is part of the winning address set"
        }
      },
      "gameCancelled()": {
        "details": "Called when the game is cancelled. This is called by the owner and allows the depositors to get their money back Emits {GameCancelled} event"
      },
      "getDeposits()": {
        "details": "get dao and winners escrow values for caller of this function",
        "returns": {
          "daoEscrow": "total value in dao escrow",
          "winnersEscrow": "total value in winners' escrow"
        }
      },
      "isGameCancelled()": {
        "details": "check is game is cancelled. a game is cancelled by the contract owner. cancelled contracts enable refunds by the",
        "returns": {
          "isCancelled": "whether the game has been cancelled"
        }
      },
      "isGameComplete()": {
        "details": "check if game is complete. game complete when the participants required for deposits are matched",
        "returns": {
          "gameComplete": "whether the game is completed"
        }
      },
      "onERC721Received(address,address,uint256,bytes)": {
        "details": "before a game begins it must be endorsed by 20 unique addresses holding a Social Game Token. They can endorse a game by transferring their token into the address of the game. This function can only be called by the deployed SocialGameToken contract that was used to create the game. The 20 endorsers is an arbitrary number for the purpose of the hackathon, proper tokenecomics should be applied and numbers adjusted to better balance token inflation/deflation. Note the initial deployment of the social game token will trigger off an initial endorser offering. During this offering there is no endorsement requirement for the game. This will seed the endorsers so that additional games can begin"
      },
      "owner()": {
        "details": "Returns the address of the current owner."
      },
      "participate()": {
        "details": "Participate in the Social Game by transferring appropriate amount. Increases player count and records the address that transferred note: Sent value must match expected price per round, gamue must still be active, and msg.sender must not have already participated. Funds are sent to two escrows, a daoEscrow for the DAO, and a winnersEscrow for money to be claimed by the winners Emits a {Participated} event"
      },
      "refund()": {
        "details": "allow user who contributed to get refund from both the daoEscrow and winners escrow if the game has been cancelled Emits {Refunded} event"
      },
      "refundEndorsement()": {
        "details": "allow endorser to get a refund on their ticket if the game was cancelled Emits {EndorserRefunded} event"
      },
      "renounceOwnership()": {
        "details": "Leaves the contract without owner. It will not be possible to call `onlyOwner` functions anymore. Can only be called by the current owner. NOTE: Renouncing ownership will leave the contract without an owner, thereby removing any functionality that is only available to the owner."
      },
      "totalParticipants()": {
        "details": "Get total number of participants so far",
        "returns": {
          "participants_": "current number of participants"
        }
      },
      "transferOwnership(address)": {
        "details": "Transfers ownership of the contract to a new account (`newOwner`). Can only be called by the current owner."
      }
    },
    "title": "Social Change Game",
    "version": 1
  },
  "userdoc": {
    "kind": "user",
    "methods": {},
    "notice": "Smart Contract developed for the Harmony One Round 2 Hackathon on Gitcoin",
    "version": 1
  }
}