{
  "contractName": "DateTime",
  "abi": [
    {
      "inputs": [
        {
          "internalType": "uint16",
          "name": "year",
          "type": "uint16"
        }
      ],
      "name": "isLeapYear",
      "outputs": [
        {
          "internalType": "bool",
          "name": "",
          "type": "bool"
        }
      ],
      "stateMutability": "pure",
      "type": "function"
    },
    {
      "inputs": [
        {
          "internalType": "uint256",
          "name": "year",
          "type": "uint256"
        }
      ],
      "name": "leapYearsBefore",
      "outputs": [
        {
          "internalType": "uint256",
          "name": "",
          "type": "uint256"
        }
      ],
      "stateMutability": "pure",
      "type": "function"
    },
    {
      "inputs": [
        {
          "internalType": "uint8",
          "name": "month",
          "type": "uint8"
        },
        {
          "internalType": "uint16",
          "name": "year",
          "type": "uint16"
        }
      ],
      "name": "getDaysInMonth",
      "outputs": [
        {
          "internalType": "uint8",
          "name": "",
          "type": "uint8"
        }
      ],
      "stateMutability": "pure",
      "type": "function"
    },
    {
      "inputs": [
        {
          "internalType": "uint256",
          "name": "timestamp",
          "type": "uint256"
        }
      ],
      "name": "getYear",
      "outputs": [
        {
          "internalType": "uint16",
          "name": "",
          "type": "uint16"
        }
      ],
      "stateMutability": "pure",
      "type": "function"
    },
    {
      "inputs": [
        {
          "internalType": "uint256",
          "name": "timestamp",
          "type": "uint256"
        }
      ],
      "name": "getMonth",
      "outputs": [
        {
          "internalType": "uint8",
          "name": "",
          "type": "uint8"
        }
      ],
      "stateMutability": "pure",
      "type": "function"
    },
    {
      "inputs": [
        {
          "internalType": "uint256",
          "name": "timestamp",
          "type": "uint256"
        }
      ],
      "name": "getDay",
      "outputs": [
        {
          "internalType": "uint8",
          "name": "",
          "type": "uint8"
        }
      ],
      "stateMutability": "pure",
      "type": "function"
    },
    {
      "inputs": [
        {
          "internalType": "uint256",
          "name": "timestamp",
          "type": "uint256"
        }
      ],
      "name": "getHour",
      "outputs": [
        {
          "internalType": "uint8",
          "name": "",
          "type": "uint8"
        }
      ],
      "stateMutability": "pure",
      "type": "function"
    },
    {
      "inputs": [
        {
          "internalType": "uint256",
          "name": "timestamp",
          "type": "uint256"
        }
      ],
      "name": "getMinute",
      "outputs": [
        {
          "internalType": "uint8",
          "name": "",
          "type": "uint8"
        }
      ],
      "stateMutability": "pure",
      "type": "function"
    },
    {
      "inputs": [
        {
          "internalType": "uint256",
          "name": "timestamp",
          "type": "uint256"
        }
      ],
      "name": "getSecond",
      "outputs": [
        {
          "internalType": "uint8",
          "name": "",
          "type": "uint8"
        }
      ],
      "stateMutability": "pure",
      "type": "function"
    },
    {
      "inputs": [
        {
          "internalType": "uint256",
          "name": "timestamp",
          "type": "uint256"
        }
      ],
      "name": "getWeekday",
      "outputs": [
        {
          "internalType": "uint8",
          "name": "",
          "type": "uint8"
        }
      ],
      "stateMutability": "pure",
      "type": "function"
    },
    {
      "inputs": [
        {
          "internalType": "uint16",
          "name": "year",
          "type": "uint16"
        },
        {
          "internalType": "uint8",
          "name": "month",
          "type": "uint8"
        },
        {
          "internalType": "uint8",
          "name": "day",
          "type": "uint8"
        },
        {
          "internalType": "uint8",
          "name": "hour",
          "type": "uint8"
        },
        {
          "internalType": "uint8",
          "name": "minute",
          "type": "uint8"
        }
      ],
      "name": "toTimestamp",
      "outputs": [
        {
          "internalType": "uint256",
          "name": "timestamp",
          "type": "uint256"
        }
      ],
      "stateMutability": "pure",
      "type": "function"
    },
    {
      "inputs": [
        {
          "internalType": "uint16",
          "name": "year",
          "type": "uint16"
        },
        {
          "internalType": "uint8",
          "name": "month",
          "type": "uint8"
        },
        {
          "internalType": "uint8",
          "name": "day",
          "type": "uint8"
        },
        {
          "internalType": "uint8",
          "name": "hour",
          "type": "uint8"
        }
      ],
      "name": "toTimestamp",
      "outputs": [
        {
          "internalType": "uint256",
          "name": "timestamp",
          "type": "uint256"
        }
      ],
      "stateMutability": "pure",
      "type": "function"
    },
    {
      "inputs": [
        {
          "internalType": "uint16",
          "name": "year",
          "type": "uint16"
        },
        {
          "internalType": "uint8",
          "name": "month",
          "type": "uint8"
        },
        {
          "internalType": "uint8",
          "name": "day",
          "type": "uint8"
        }
      ],
      "name": "toTimestamp",
      "outputs": [
        {
          "internalType": "uint256",
          "name": "timestamp",
          "type": "uint256"
        }
      ],
      "stateMutability": "pure",
      "type": "function"
    },
    {
      "inputs": [
        {
          "internalType": "uint16",
          "name": "year",
          "type": "uint16"
        },
        {
          "internalType": "uint8",
          "name": "month",
          "type": "uint8"
        },
        {
          "internalType": "uint8",
          "name": "day",
          "type": "uint8"
        },
        {
          "internalType": "uint8",
          "name": "hour",
          "type": "uint8"
        },
        {
          "internalType": "uint8",
          "name": "minute",
          "type": "uint8"
        },
        {
          "internalType": "uint8",
          "name": "second",
          "type": "uint8"
        }
      ],
      "name": "toTimestamp",
      "outputs": [
        {
          "internalType": "uint256",
          "name": "timestamp",
          "type": "uint256"
        }
      ],
      "stateMutability": "pure",
      "type": "function"
    }
  ],
  "bytecode": "0x608060405234801561001057600080fd5b50610c9b806100206000396000f3fe608060405234801561001057600080fd5b50600436106100ba5760003560e01c80633e239e1a146100bf5780634ac1ad78146100e957806362ba9687146100fc57806365c728401461011d5780637f791833146101305780638aa001fc146101435780638c8d98a0146101565780639054bdec1461016957806392d663131461017c578063a324ad24146101a2578063a6f0e577146101b5578063b1999937146101d8578063b238ad0e146101eb578063fa93f883146101fe575b600080fd5b6100d26100cd366004610ab8565b610211565b60405160ff90911681526020015b60405180910390f35b6100d26100f7366004610ab8565b61023b565b61010f61010a3660046109df565b610257565b6040519081526020016100e0565b6100d261012b366004610ab8565b610272565b61010f61013e36600461098b565b610287565b6100d2610151366004610ab8565b6102a1565b61010f610164366004610948565b6102ae565b61010f610177366004610a44565b6102c8565b61018f61018a366004610ab8565b610479565b60405161ffff90911681526020016100e0565b6100d26101b0366004610ab8565b610569565b6101c86101c3366004610926565b61057e565b60405190151581526020016100e0565b61010f6101e6366004610ab8565b6105dd565b6100d26101f9366004610ad1565b610622565b6100d261020c366004610ab8565b6106e9565b60006018603c6102218185610b1c565b61022b9190610b1c565b6102359190610c0f565b92915050565b6000600761024c6201518084610b1c565b61022b906004610b04565b6000610268868686868660006102c8565b9695505050505050565b600061027d826106f7565b6040015192915050565b6000610298858585856000806102c8565b95945050505050565b6000610235603c83610c0f565b60006102c084848460008060006102c8565b949350505050565b60006107b25b8761ffff168161ffff161015610324576102e78161057e565b15610301576102fa6301e2850083610b04565b9150610312565b61030f6301e1338083610b04565b91505b8061031c81610bac565b9150506102ce565b61032c6108df565b601f81526103398961057e565b1561034a57601d6020820152610352565b601c60208201525b601f60408201819052601e606083018190526080830182905260a0830181905260c0830182905260e0830182905261010083018190526101208301829052610140830152610160820152600191505b8760ff168261ffff16101561040357806103bc600184610b4f565b61ffff16600c81106103d0576103d0610c4f565b60200201516103e59060ff1662015180610b30565b6103ef9084610b04565b9250816103fb81610bac565b9250506103a1565b61040e600188610b89565b61041e9060ff1662015180610b30565b6104289084610b04565b925061043960ff8716610e10610b30565b6104439084610b04565b925061045360ff8616603c610b30565b61045d9084610b04565b925061046c60ff851684610b04565b9998505050505050505050565b600080808061048c6301e1338086610b1c565b610498906107b2610b04565b91506104a56107b26105dd565b6104b28361ffff166105dd565b6104bc9190610b72565b90506104cc816301e28500610b30565b6104d69084610b04565b9250806104e56107b284610b4f565b61ffff166104f39190610b72565b610501906301e13380610b30565b61050b9084610b04565b92505b84831115610561576105246101c3600184610b4f565b1561053e576105376301e2850084610b72565b925061054f565b61054c6301e1338084610b72565b92505b61055a600183610b4f565b915061050e565b509392505050565b6000610574826106f7565b6020015192915050565b600061058b600483610bee565b61ffff161561059c57506000919050565b6105a7606483610bee565b61ffff16156105b857506001919050565b6105c461019083610bee565b61ffff16156105d557506000919050565b506001919050565b60006105ea600183610b72565b91506105f861019083610b1c565b610603606484610b1c565b61060e600485610b1c565b6106189190610b72565b6102359190610b04565b60008260ff166001148061063957508260ff166003145b8061064757508260ff166005145b8061065557508260ff166007145b8061066357508260ff166008145b8061067157508260ff16600a145b8061067f57508260ff16600c145b1561068c5750601f610235565b8260ff16600414806106a157508260ff166006145b806106af57508260ff166009145b806106bd57508260ff16600b145b156106ca5750601e610235565b6106d38261057e565b156106e05750601d610235565b50601c92915050565b6000603c61022b8184610b1c565b6040805160e081018252600080825260208201819052918101829052606081018290526080810182905260a0810182905260c0810182905290808061073b85610479565b61ffff16845261074c6107b26105dd565b845161075b9061ffff166105dd565b6107659190610b72565b9150610775826301e28500610b30565b61077f9084610b04565b9250816107b285600001516107949190610b4f565b61ffff166107a29190610b72565b6107b0906301e13380610b30565b6107ba9084610b04565b92506000600191505b600c8260ff161161082b576107dc828660000151610622565b6107ec9060ff1662015180610b30565b9050856107f98583610b04565b111561080d5760ff8216602086015261082b565b6108178185610b04565b93508161082381610bce565b9250506107c3565b600191505b61084285602001518660000151610622565b60ff168260ff1611610891578561085c8562015180610b04565b11156108705760ff82166040860152610891565b61087d6201518085610b04565b93508161088981610bce565b925050610830565b61089a86610211565b60ff1660608601526108ab866106e9565b60ff1660808601526108bc866102a1565b60ff1660a08601526108cd8661023b565b60ff1660c08601525092949350505050565b604051806101800160405280600c906020820280368337509192915050565b803561ffff8116811461091057600080fd5b919050565b803560ff8116811461091057600080fd5b60006020828403121561093857600080fd5b610941826108fe565b9392505050565b60008060006060848603121561095d57600080fd5b610966846108fe565b925061097460208501610915565b915061098260408501610915565b90509250925092565b600080600080608085870312156109a157600080fd5b6109aa856108fe565b93506109b860208601610915565b92506109c660408601610915565b91506109d460608601610915565b905092959194509250565b600080600080600060a086880312156109f757600080fd5b610a00866108fe565b9450610a0e60208701610915565b9350610a1c60408701610915565b9250610a2a60608701610915565b9150610a3860808701610915565b90509295509295909350565b60008060008060008060c08789031215610a5d57600080fd5b610a66876108fe565b9550610a7460208801610915565b9450610a8260408801610915565b9350610a9060608801610915565b9250610a9e60808801610915565b9150610aac60a08801610915565b90509295509295509295565b600060208284031215610aca57600080fd5b5035919050565b60008060408385031215610ae457600080fd5b610aed83610915565b9150610afb602084016108fe565b90509250929050565b60008219821115610b1757610b17610c23565b500190565b600082610b2b57610b2b610c39565b500490565b6000816000190483118215151615610b4a57610b4a610c23565b500290565b600061ffff83811690831681811015610b6a57610b6a610c23565b039392505050565b600082821015610b8457610b84610c23565b500390565b600060ff821660ff841680821015610ba357610ba3610c23565b90039392505050565b600061ffff80831681811415610bc457610bc4610c23565b6001019392505050565b600060ff821660ff811415610be557610be5610c23565b60010192915050565b600061ffff80841680610c0357610c03610c39565b92169190910692915050565b600082610c1e57610c1e610c39565b500690565b634e487b7160e01b600052601160045260246000fd5b634e487b7160e01b600052601260045260246000fd5b634e487b7160e01b600052603260045260246000fdfea2646970667358221220bac26f84630def6a48ae6d05fd392b5ccbc6bc1f6bde265c4b591d5c7dc44b4d64736f6c63430008060033",
  "immutableReferences": {},
  "source": "// SPDX-License-Identifier: MIT\npragma solidity >=0.4.22 <0.9.0;\n\n/**\n * DateTime function to convert epoch time to a useable date format\n * https://github.com/pipermerriam/ethereum-datetime/blob/master/contracts/DateTime.sol\n */\ncontract DateTime {\n        /*\n         *  Date and Time utilities for ethereum contracts\n         *\n         */\n        struct _DateTime {\n                uint16 year;\n                uint8 month;\n                uint8 day;\n                uint8 hour;\n                uint8 minute;\n                uint8 second;\n                uint8 weekday;\n        }\n\n        uint constant DAY_IN_SECONDS = 86400;\n        uint constant YEAR_IN_SECONDS = 31536000;\n        uint constant LEAP_YEAR_IN_SECONDS = 31622400;\n\n        uint constant HOUR_IN_SECONDS = 3600;\n        uint constant MINUTE_IN_SECONDS = 60;\n\n        uint16 constant ORIGIN_YEAR = 1970;\n\n        function isLeapYear(uint16 year) public pure returns (bool) {\n                if (year % 4 != 0) {\n                        return false;\n                }\n                if (year % 100 != 0) {\n                        return true;\n                }\n                if (year % 400 != 0) {\n                        return false;\n                }\n                return true;\n        }\n\n        function leapYearsBefore(uint year) public pure returns (uint) {\n                year -= 1;\n                return year / 4 - year / 100 + year / 400;\n        }\n\n        function getDaysInMonth(uint8 month, uint16 year) public pure returns (uint8) {\n                if (month == 1 || month == 3 || month == 5 || month == 7 || month == 8 || month == 10 || month == 12) {\n                        return 31;\n                }\n                else if (month == 4 || month == 6 || month == 9 || month == 11) {\n                        return 30;\n                }\n                else if (isLeapYear(year)) {\n                        return 29;\n                }\n                else {\n                        return 28;\n                }\n        }\n\n        function parseTimestamp(uint timestamp) internal pure returns (_DateTime memory dt) {\n                uint secondsAccountedFor = 0;\n                uint buf;\n                uint8 i;\n\n                // Year\n                dt.year = getYear(timestamp);\n                buf = leapYearsBefore(dt.year) - leapYearsBefore(ORIGIN_YEAR);\n\n                secondsAccountedFor += LEAP_YEAR_IN_SECONDS * buf;\n                secondsAccountedFor += YEAR_IN_SECONDS * (dt.year - ORIGIN_YEAR - buf);\n\n                // Month\n                uint secondsInMonth;\n                for (i = 1; i <= 12; i++) {\n                        secondsInMonth = DAY_IN_SECONDS * getDaysInMonth(i, dt.year);\n                        if (secondsInMonth + secondsAccountedFor > timestamp) {\n                                dt.month = i;\n                                break;\n                        }\n                        secondsAccountedFor += secondsInMonth;\n                }\n\n                // Day\n                for (i = 1; i <= getDaysInMonth(dt.month, dt.year); i++) {\n                        if (DAY_IN_SECONDS + secondsAccountedFor > timestamp) {\n                                dt.day = i;\n                                break;\n                        }\n                        secondsAccountedFor += DAY_IN_SECONDS;\n                }\n\n                // Hour\n                dt.hour = getHour(timestamp);\n\n                // Minute\n                dt.minute = getMinute(timestamp);\n\n                // Second\n                dt.second = getSecond(timestamp);\n\n                // Day of week.\n                dt.weekday = getWeekday(timestamp);\n        }\n\n        function getYear(uint timestamp) public pure returns (uint16) {\n                uint secondsAccountedFor = 0;\n                uint16 year;\n                uint numLeapYears;\n\n                // Year\n                year = uint16(ORIGIN_YEAR + timestamp / YEAR_IN_SECONDS);\n                numLeapYears = leapYearsBefore(year) - leapYearsBefore(ORIGIN_YEAR);\n\n                secondsAccountedFor += LEAP_YEAR_IN_SECONDS * numLeapYears;\n                secondsAccountedFor += YEAR_IN_SECONDS * (year - ORIGIN_YEAR - numLeapYears);\n\n                while (secondsAccountedFor > timestamp) {\n                        if (isLeapYear(uint16(year - 1))) {\n                                secondsAccountedFor -= LEAP_YEAR_IN_SECONDS;\n                        }\n                        else {\n                                secondsAccountedFor -= YEAR_IN_SECONDS;\n                        }\n                        year -= 1;\n                }\n                return year;\n        }\n\n        function getMonth(uint timestamp) public pure returns (uint8) {\n                return parseTimestamp(timestamp).month;\n        }\n\n        function getDay(uint timestamp) public pure returns (uint8) {\n                return parseTimestamp(timestamp).day;\n        }\n\n        function getHour(uint timestamp) public pure returns (uint8) {\n                return uint8((timestamp / 60 / 60) % 24);\n        }\n\n        function getMinute(uint timestamp) public pure returns (uint8) {\n                return uint8((timestamp / 60) % 60);\n        }\n\n        function getSecond(uint timestamp) public pure returns (uint8) {\n                return uint8(timestamp % 60);\n        }\n\n        function getWeekday(uint timestamp) public pure returns (uint8) {\n                return uint8((timestamp / DAY_IN_SECONDS + 4) % 7);\n        }\n\n        function toTimestamp(uint16 year, uint8 month, uint8 day) public pure returns (uint timestamp) {\n                return toTimestamp(year, month, day, 0, 0, 0);\n        }\n\n        function toTimestamp(uint16 year, uint8 month, uint8 day, uint8 hour) public pure returns (uint timestamp) {\n                return toTimestamp(year, month, day, hour, 0, 0);\n        }\n\n        function toTimestamp(uint16 year, uint8 month, uint8 day, uint8 hour, uint8 minute) public pure returns (uint timestamp) {\n                return toTimestamp(year, month, day, hour, minute, 0);\n        }\n\n        function toTimestamp(uint16 year, uint8 month, uint8 day, uint8 hour, uint8 minute, uint8 second) public pure returns (uint timestamp) {\n                uint16 i;\n\n                // Year\n                for (i = ORIGIN_YEAR; i < year; i++) {\n                        if (isLeapYear(i)) {\n                                timestamp += LEAP_YEAR_IN_SECONDS;\n                        }\n                        else {\n                                timestamp += YEAR_IN_SECONDS;\n                        }\n                }\n\n                // Month\n                uint8[12] memory monthDayCounts;\n                monthDayCounts[0] = 31;\n                if (isLeapYear(year)) {\n                        monthDayCounts[1] = 29;\n                }\n                else {\n                        monthDayCounts[1] = 28;\n                }\n                monthDayCounts[2] = 31;\n                monthDayCounts[3] = 30;\n                monthDayCounts[4] = 31;\n                monthDayCounts[5] = 30;\n                monthDayCounts[6] = 31;\n                monthDayCounts[7] = 31;\n                monthDayCounts[8] = 30;\n                monthDayCounts[9] = 31;\n                monthDayCounts[10] = 30;\n                monthDayCounts[11] = 31;\n\n                for (i = 1; i < month; i++) {\n                        timestamp += DAY_IN_SECONDS * monthDayCounts[i - 1];\n                }\n\n                // Day\n                timestamp += DAY_IN_SECONDS * (day - 1);\n\n                // Hour\n                timestamp += HOUR_IN_SECONDS * (hour);\n\n                // Minute\n                timestamp += MINUTE_IN_SECONDS * (minute);\n\n                // Second\n                timestamp += second;\n\n                return timestamp;\n        }\n}",
  "sourcePath": "/Users/noorjehanphu/dev/social-harmony/truffle/contracts/reports/DateTime.sol",
  "compiler": {
    "name": "solc",
    "version": "0.8.6+commit.11564f7e.Emscripten.clang"
  },
  "schemaVersion": "3.4.1",
  "updatedAt": "2021-07-07T11:10:27.224Z",
  "devdoc": {
    "kind": "dev",
    "methods": {},
    "version": 1
  },
  "userdoc": {
    "kind": "user",
    "methods": {},
    "notice": "DateTime function to convert epoch time to a useable date format https://github.com/pipermerriam/ethereum-datetime/blob/master/contracts/DateTime.sol",
    "version": 1
  }
}