{
  "contractName": "RefundableEscrow",
  "abi": [
    {
      "inputs": [
        {
          "internalType": "address payable",
          "name": "beneficiary_",
          "type": "address"
        }
      ],
      "stateMutability": "nonpayable",
      "type": "constructor"
    },
    {
      "anonymous": false,
      "inputs": [
        {
          "indexed": true,
          "internalType": "address",
          "name": "payee",
          "type": "address"
        },
        {
          "indexed": false,
          "internalType": "uint256",
          "name": "weiAmount",
          "type": "uint256"
        }
      ],
      "name": "Deposited",
      "type": "event"
    },
    {
      "anonymous": false,
      "inputs": [
        {
          "indexed": true,
          "internalType": "address",
          "name": "previousOwner",
          "type": "address"
        },
        {
          "indexed": true,
          "internalType": "address",
          "name": "newOwner",
          "type": "address"
        }
      ],
      "name": "OwnershipTransferred",
      "type": "event"
    },
    {
      "anonymous": false,
      "inputs": [],
      "name": "RefundsClosed",
      "type": "event"
    },
    {
      "anonymous": false,
      "inputs": [],
      "name": "RefundsEnabled",
      "type": "event"
    },
    {
      "anonymous": false,
      "inputs": [
        {
          "indexed": true,
          "internalType": "address",
          "name": "payee",
          "type": "address"
        },
        {
          "indexed": false,
          "internalType": "uint256",
          "name": "weiAmount",
          "type": "uint256"
        }
      ],
      "name": "Withdrawn",
      "type": "event"
    },
    {
      "inputs": [],
      "name": "beneficiary",
      "outputs": [
        {
          "internalType": "address payable",
          "name": "",
          "type": "address"
        }
      ],
      "stateMutability": "view",
      "type": "function"
    },
    {
      "inputs": [],
      "name": "beneficiaryWithdraw",
      "outputs": [],
      "stateMutability": "nonpayable",
      "type": "function"
    },
    {
      "inputs": [],
      "name": "close",
      "outputs": [],
      "stateMutability": "nonpayable",
      "type": "function"
    },
    {
      "inputs": [
        {
          "internalType": "address",
          "name": "refundee",
          "type": "address"
        }
      ],
      "name": "deposit",
      "outputs": [],
      "stateMutability": "payable",
      "type": "function"
    },
    {
      "inputs": [
        {
          "internalType": "address",
          "name": "payee",
          "type": "address"
        }
      ],
      "name": "depositsOf",
      "outputs": [
        {
          "internalType": "uint256",
          "name": "",
          "type": "uint256"
        }
      ],
      "stateMutability": "view",
      "type": "function"
    },
    {
      "inputs": [],
      "name": "enableRefunds",
      "outputs": [],
      "stateMutability": "nonpayable",
      "type": "function"
    },
    {
      "inputs": [],
      "name": "owner",
      "outputs": [
        {
          "internalType": "address",
          "name": "",
          "type": "address"
        }
      ],
      "stateMutability": "view",
      "type": "function"
    },
    {
      "inputs": [],
      "name": "renounceOwnership",
      "outputs": [],
      "stateMutability": "nonpayable",
      "type": "function"
    },
    {
      "inputs": [],
      "name": "state",
      "outputs": [
        {
          "internalType": "enum RefundEscrow.State",
          "name": "",
          "type": "uint8"
        }
      ],
      "stateMutability": "view",
      "type": "function"
    },
    {
      "inputs": [
        {
          "internalType": "address",
          "name": "newOwner",
          "type": "address"
        }
      ],
      "name": "transferOwnership",
      "outputs": [],
      "stateMutability": "nonpayable",
      "type": "function"
    },
    {
      "inputs": [
        {
          "internalType": "address payable",
          "name": "payee",
          "type": "address"
        }
      ],
      "name": "withdraw",
      "outputs": [],
      "stateMutability": "nonpayable",
      "type": "function"
    },
    {
      "inputs": [
        {
          "internalType": "address",
          "name": "",
          "type": "address"
        }
      ],
      "name": "withdrawalAllowed",
      "outputs": [
        {
          "internalType": "bool",
          "name": "",
          "type": "bool"
        }
      ],
      "stateMutability": "view",
      "type": "function"
    }
  ],
  "bytecode": "0x60a06040523480156200001157600080fd5b50604051620019a2380380620019a28339818101604052810190620000379190620001e7565b8060006200004a620001c860201b60201c565b9050806000806101000a81548173ffffffffffffffffffffffffffffffffffffffff021916908373ffffffffffffffffffffffffffffffffffffffff1602179055508073ffffffffffffffffffffffffffffffffffffffff16600073ffffffffffffffffffffffffffffffffffffffff167f8be0079c531659141344cd1fd0a4f28419497f9722a3daafe3b4186f6b6457e060405160405180910390a350600073ffffffffffffffffffffffffffffffffffffffff168173ffffffffffffffffffffffffffffffffffffffff1614156200015b576040517f08c379a0000000000000000000000000000000000000000000000000000000008152600401620001529062000240565b60405180910390fd5b8073ffffffffffffffffffffffffffffffffffffffff1660808173ffffffffffffffffffffffffffffffffffffffff1660601b815250506000600260006101000a81548160ff02191690836002811115620001bb57620001ba620002a7565b5b0217905550505062000344565b600033905090565b600081519050620001e1816200032a565b92915050565b6000602082840312156200020057620001ff620002d6565b5b60006200021084828501620001d0565b91505092915050565b600062000228602d8362000262565b91506200023582620002db565b604082019050919050565b600060208201905081810360008301526200025b8162000219565b9050919050565b600082825260208201905092915050565b6000620002808262000287565b9050919050565b600073ffffffffffffffffffffffffffffffffffffffff82169050919050565b7f4e487b7100000000000000000000000000000000000000000000000000000000600052602160045260246000fd5b600080fd5b7f526566756e64457363726f773a2062656e65666963696172792069732074686560008201527f207a65726f206164647265737300000000000000000000000000000000000000602082015250565b620003358162000273565b81146200034157600080fd5b50565b60805160601c61163f620003636000396000610275015261163f6000f3fe6080604052600436106100a75760003560e01c80638da5cb5b116100645780638da5cb5b146101825780639af6549a146101ad578063c19d93fb146101c4578063e3a9db1a146101ef578063f2fde38b1461022c578063f340fa0114610255576100a7565b806338af3eed146100ac57806343d726d6146100d757806351cff8d9146100ee578063685ca19414610117578063715018a6146101545780638c52dc411461016b575b600080fd5b3480156100b857600080fd5b506100c1610271565b6040516100ce9190611069565b60405180910390f35b3480156100e357600080fd5b506100ec610299565b005b3480156100fa57600080fd5b5061011560048036038101906101109190610e63565b6103db565b005b34801561012357600080fd5b5061013e60048036038101906101399190610e36565b61042f565b60405161014b9190611084565b60405180910390f35b34801561016057600080fd5b50610169610467565b005b34801561017757600080fd5b506101806105a1565b005b34801561018e57600080fd5b506101976106e4565b6040516101a4919061104e565b60405180910390f35b3480156101b957600080fd5b506101c261070d565b005b3480156101d057600080fd5b506101d96107ac565b6040516101e6919061109f565b60405180910390f35b3480156101fb57600080fd5b5061021660048036038101906102119190610e36565b6107c3565b60405161022391906111da565b60405180910390f35b34801561023857600080fd5b50610253600480360381019061024e9190610e36565b61080c565b005b61026f600480360381019061026a9190610e36565b6109b5565b005b60007f0000000000000000000000000000000000000000000000000000000000000000905090565b6102a1610a2f565b73ffffffffffffffffffffffffffffffffffffffff166102bf6106e4565b73ffffffffffffffffffffffffffffffffffffffff1614610315576040517f08c379a000000000000000000000000000000000000000000000000000000000815260040161030c9061119a565b60405180910390fd5b6000600281111561032957610328611315565b5b6103316107ac565b600281111561034357610342611315565b5b14610383576040517f08c379a000000000000000000000000000000000000000000000000000000000815260040161037a9061117a565b60405180910390fd5b60028060006101000a81548160ff021916908360028111156103a8576103a7611315565b5b02179055507f088672c3a6e342f7cd94a65ba63b79df24a8973927b4d05d803c44bbf787d12f60405160405180910390a1565b6103e48161042f565b610423576040517f08c379a000000000000000000000000000000000000000000000000000000000815260040161041a9061115a565b60405180910390fd5b61042c81610a37565b50565b60006001600281111561044557610444611315565b5b61044d6107ac565b600281111561045f5761045e611315565b5b149050919050565b61046f610a2f565b73ffffffffffffffffffffffffffffffffffffffff1661048d6106e4565b73ffffffffffffffffffffffffffffffffffffffff16146104e3576040517f08c379a00000000000000000000000000000000000000000000000000000000081526004016104da9061119a565b60405180910390fd5b600073ffffffffffffffffffffffffffffffffffffffff1660008054906101000a900473ffffffffffffffffffffffffffffffffffffffff1673ffffffffffffffffffffffffffffffffffffffff167f8be0079c531659141344cd1fd0a4f28419497f9722a3daafe3b4186f6b6457e060405160405180910390a360008060006101000a81548173ffffffffffffffffffffffffffffffffffffffff021916908373ffffffffffffffffffffffffffffffffffffffff160217905550565b6105a9610a2f565b73ffffffffffffffffffffffffffffffffffffffff166105c76106e4565b73ffffffffffffffffffffffffffffffffffffffff161461061d576040517f08c379a00000000000000000000000000000000000000000000000000000000081526004016106149061119a565b60405180910390fd5b6000600281111561063157610630611315565b5b6106396107ac565b600281111561064b5761064a611315565b5b1461068b576040517f08c379a0000000000000000000000000000000000000000000000000000000008152600401610682906111ba565b60405180910390fd5b6001600260006101000a81548160ff021916908360028111156106b1576106b0611315565b5b02179055507f599d8e5a83cffb867d051598c4d70e805d59802d8081c1c7d6dffc5b6aca2b8960405160405180910390a1565b60008060009054906101000a900473ffffffffffffffffffffffffffffffffffffffff16905090565b6002808111156107205761071f611315565b5b6107286107ac565b600281111561073a57610739611315565b5b1461077a576040517f08c379a0000000000000000000000000000000000000000000000000000000008152600401610771906110ba565b60405180910390fd5b6107aa47610786610271565b73ffffffffffffffffffffffffffffffffffffffff16610bb790919063ffffffff16565b565b6000600260009054906101000a900460ff16905090565b6000600160008373ffffffffffffffffffffffffffffffffffffffff1673ffffffffffffffffffffffffffffffffffffffff168152602001908152602001600020549050919050565b610814610a2f565b73ffffffffffffffffffffffffffffffffffffffff166108326106e4565b73ffffffffffffffffffffffffffffffffffffffff1614610888576040517f08c379a000000000000000000000000000000000000000000000000000000000815260040161087f9061119a565b60405180910390fd5b600073ffffffffffffffffffffffffffffffffffffffff168173ffffffffffffffffffffffffffffffffffffffff1614156108f8576040517f08c379a00000000000000000000000000000000000000000000000000000000081526004016108ef906110da565b60405180910390fd5b8073ffffffffffffffffffffffffffffffffffffffff1660008054906101000a900473ffffffffffffffffffffffffffffffffffffffff1673ffffffffffffffffffffffffffffffffffffffff167f8be0079c531659141344cd1fd0a4f28419497f9722a3daafe3b4186f6b6457e060405160405180910390a3806000806101000a81548173ffffffffffffffffffffffffffffffffffffffff021916908373ffffffffffffffffffffffffffffffffffffffff16021790555050565b600060028111156109c9576109c8611315565b5b6109d16107ac565b60028111156109e3576109e2611315565b5b14610a23576040517f08c379a0000000000000000000000000000000000000000000000000000000008152600401610a1a9061113a565b60405180910390fd5b610a2c81610cab565b50565b600033905090565b610a3f610a2f565b73ffffffffffffffffffffffffffffffffffffffff16610a5d6106e4565b73ffffffffffffffffffffffffffffffffffffffff1614610ab3576040517f08c379a0000000000000000000000000000000000000000000000000000000008152600401610aaa9061119a565b60405180910390fd5b6000600160008373ffffffffffffffffffffffffffffffffffffffff1673ffffffffffffffffffffffffffffffffffffffff1681526020019081526020016000205490506000600160008473ffffffffffffffffffffffffffffffffffffffff1673ffffffffffffffffffffffffffffffffffffffff16815260200190815260200160002081905550610b65818373ffffffffffffffffffffffffffffffffffffffff16610bb790919063ffffffff16565b8173ffffffffffffffffffffffffffffffffffffffff167f7084f5476618d8e60b11ef0d7d3f06914655adb8793e28ff7f018d4c76d505d582604051610bab91906111da565b60405180910390a25050565b80471015610bfa576040517f08c379a0000000000000000000000000000000000000000000000000000000008152600401610bf19061111a565b60405180910390fd5b60008273ffffffffffffffffffffffffffffffffffffffff1682604051610c2090611039565b60006040518083038185875af1925050503d8060008114610c5d576040519150601f19603f3d011682016040523d82523d6000602084013e610c62565b606091505b5050905080610ca6576040517f08c379a0000000000000000000000000000000000000000000000000000000008152600401610c9d906110fa565b60405180910390fd5b505050565b610cb3610a2f565b73ffffffffffffffffffffffffffffffffffffffff16610cd16106e4565b73ffffffffffffffffffffffffffffffffffffffff1614610d27576040517f08c379a0000000000000000000000000000000000000000000000000000000008152600401610d1e9061119a565b60405180910390fd5b600034905080600160008473ffffffffffffffffffffffffffffffffffffffff1673ffffffffffffffffffffffffffffffffffffffff16815260200190815260200160002054610d779190611211565b600160008473ffffffffffffffffffffffffffffffffffffffff1673ffffffffffffffffffffffffffffffffffffffff168152602001908152602001600020819055508173ffffffffffffffffffffffffffffffffffffffff167f2da466a7b24304f47e87fa2e1e5a81b9831ce54fec19055ce277ca2f39ba42c482604051610e0091906111da565b60405180910390a25050565b600081359050610e1b816115db565b92915050565b600081359050610e30816115f2565b92915050565b600060208284031215610e4c57610e4b611344565b5b6000610e5a84828501610e0c565b91505092915050565b600060208284031215610e7957610e78611344565b5b6000610e8784828501610e21565b91505092915050565b610e9981611279565b82525050565b610ea881611267565b82525050565b610eb78161128b565b82525050565b610ec6816112d4565b82525050565b6000610ed9603883611200565b9150610ee482611349565b604082019050919050565b6000610efc602683611200565b9150610f0782611398565b604082019050919050565b6000610f1f603a83611200565b9150610f2a826113e7565b604082019050919050565b6000610f42601d83611200565b9150610f4d82611436565b602082019050919050565b6000610f65602b83611200565b9150610f708261145f565b604082019050919050565b6000610f88603383611200565b9150610f93826114ae565b604082019050919050565b6000610fab602983611200565b9150610fb6826114fd565b604082019050919050565b6000610fce602083611200565b9150610fd98261154c565b602082019050919050565b6000610ff16000836111f5565b9150610ffc82611575565b600082019050919050565b6000611014603283611200565b915061101f82611578565b604082019050919050565b611033816112ca565b82525050565b600061104482610fe4565b9150819050919050565b60006020820190506110636000830184610e9f565b92915050565b600060208201905061107e6000830184610e90565b92915050565b60006020820190506110996000830184610eae565b92915050565b60006020820190506110b46000830184610ebd565b92915050565b600060208201905081810360008301526110d381610ecc565b9050919050565b600060208201905081810360008301526110f381610eef565b9050919050565b6000602082019050818103600083015261111381610f12565b9050919050565b6000602082019050818103600083015261113381610f35565b9050919050565b6000602082019050818103600083015261115381610f58565b9050919050565b6000602082019050818103600083015261117381610f7b565b9050919050565b6000602082019050818103600083015261119381610f9e565b9050919050565b600060208201905081810360008301526111b381610fc1565b9050919050565b600060208201905081810360008301526111d381611007565b9050919050565b60006020820190506111ef600083018461102a565b92915050565b600081905092915050565b600082825260208201905092915050565b600061121c826112ca565b9150611227836112ca565b9250827fffffffffffffffffffffffffffffffffffffffffffffffffffffffffffffffff0382111561125c5761125b6112e6565b5b828201905092915050565b6000611272826112aa565b9050919050565b6000611284826112aa565b9050919050565b60008115159050919050565b60008190506112a5826115c7565b919050565b600073ffffffffffffffffffffffffffffffffffffffff82169050919050565b6000819050919050565b60006112df82611297565b9050919050565b7f4e487b7100000000000000000000000000000000000000000000000000000000600052601160045260246000fd5b7f4e487b7100000000000000000000000000000000000000000000000000000000600052602160045260246000fd5b600080fd5b7f526566756e64457363726f773a2062656e65666963696172792063616e206f6e60008201527f6c79207769746864726177207768696c6520636c6f7365640000000000000000602082015250565b7f4f776e61626c653a206e6577206f776e657220697320746865207a65726f206160008201527f6464726573730000000000000000000000000000000000000000000000000000602082015250565b7f416464726573733a20756e61626c6520746f2073656e642076616c75652c207260008201527f6563697069656e74206d61792068617665207265766572746564000000000000602082015250565b7f416464726573733a20696e73756666696369656e742062616c616e6365000000600082015250565b7f526566756e64457363726f773a2063616e206f6e6c79206465706f736974207760008201527f68696c6520616374697665000000000000000000000000000000000000000000602082015250565b7f436f6e646974696f6e616c457363726f773a207061796565206973206e6f742060008201527f616c6c6f77656420746f20776974686472617700000000000000000000000000602082015250565b7f526566756e64457363726f773a2063616e206f6e6c7920636c6f73652077686960008201527f6c65206163746976650000000000000000000000000000000000000000000000602082015250565b7f4f776e61626c653a2063616c6c6572206973206e6f7420746865206f776e6572600082015250565b50565b7f526566756e64457363726f773a2063616e206f6e6c7920656e61626c6520726560008201527f66756e6473207768696c65206163746976650000000000000000000000000000602082015250565b600381106115d8576115d7611315565b5b50565b6115e481611267565b81146115ef57600080fd5b50565b6115fb81611279565b811461160657600080fd5b5056fea26469706673582212205010987c4483e2b907ef7b30b7acb37a8b38c4b0769a3e3df879fac76b57e6d564736f6c63430008050033",
  "immutableReferences": {
    "957": [
      {
        "length": 32,
        "start": 629
      }
    ]
  },
  "source": "// SPDX-License-Identifier: MIT\npragma solidity >=0.4.22 <0.9.0;\n\nimport \"@openzeppelin/contracts/utils/escrow/RefundEscrow.sol\";\n\ncontract RefundableEscrow is RefundEscrow {\n    constructor(address payable beneficiary_) RefundEscrow(beneficiary_) {\n        \n    }\n}\n",
  "sourcePath": "/Users/noorjehanphu/dev/social-harmony/truffle/contracts/RefundableEscrow.sol",
  "compiler": {
    "name": "solc",
    "version": "0.8.5+commit.a4f2e591.Emscripten.clang"
  },
  "schemaVersion": "3.4.1",
  "updatedAt": "2021-06-15T19:03:11.897Z",
  "devdoc": {
    "kind": "dev",
    "methods": {
      "beneficiary()": {
        "returns": {
          "_0": "The beneficiary of the escrow."
        }
      },
      "beneficiaryWithdraw()": {
        "details": "Withdraws the beneficiary's funds."
      },
      "close()": {
        "details": "Allows for the beneficiary to withdraw their funds, rejecting further deposits."
      },
      "deposit(address)": {
        "details": "Stores funds that may later be refunded.",
        "params": {
          "refundee": "The address funds will be sent to if a refund occurs."
        }
      },
      "enableRefunds()": {
        "details": "Allows for refunds to take place, rejecting further deposits."
      },
      "owner()": {
        "details": "Returns the address of the current owner."
      },
      "renounceOwnership()": {
        "details": "Leaves the contract without owner. It will not be possible to call `onlyOwner` functions anymore. Can only be called by the current owner. NOTE: Renouncing ownership will leave the contract without an owner, thereby removing any functionality that is only available to the owner."
      },
      "state()": {
        "returns": {
          "_0": "The current state of the escrow."
        }
      },
      "transferOwnership(address)": {
        "details": "Transfers ownership of the contract to a new account (`newOwner`). Can only be called by the current owner."
      },
      "withdraw(address)": {
        "details": "Withdraw accumulated balance for a payee, forwarding all gas to the recipient. WARNING: Forwarding all gas opens the door to reentrancy vulnerabilities. Make sure you trust the recipient, or are either following the checks-effects-interactions pattern or using {ReentrancyGuard}.",
        "params": {
          "payee": "The address whose funds will be withdrawn and transferred to."
        }
      },
      "withdrawalAllowed(address)": {
        "details": "Returns whether refundees can withdraw their deposits (be refunded). The overridden function receives a 'payee' argument, but we ignore it here since the condition is global, not per-payee."
      }
    },
    "version": 1
  },
  "userdoc": {
    "kind": "user",
    "methods": {},
    "version": 1
  }
}